:020000040000FA
:10000000100700206D020000710200007302000062
:100010007502000077020000790200000000000075
:100020000000000000000000000000007B02000053
:100030007D020000000000007F020000810200003D
:10004000830200008302000083020000830200009C
:10005000830200008302000083020000830200008C
:10006000830200008302000083020000830200007C
:10007000830200008302000083020000830200006C
:10008000830200008302000083020000830200005C
:10009000830200008302000083020000830200004C
:1000A000830200008302000083020000830200003C
:1000B000830200008302000083020000830200002C
:1000C000830200008302000083020000830200001C
:1000D000830200008302000083020000830200000C
:1000E00083020000830200008302000083020000FC
:1000F00083020000830200008302000083020000EC
:1001000083020000830200008302000083020000DB
:1001100083020000830200008302000083020000CB
:1001200083020000830200008302000083020000BB
:1001300083020000830200008302000083020000AB
:1001400000000000000000000000000000000000AF
:10015000830200008302000083020000830200008B
:10016000000000000000000000000000000000008F
:10017000000000000000000000000000000000007F
:10018000000000000000000000000000000000006F
:10019000000000000000000000000000000000005F
:1001A000000000000000000000000000000000004F
:1001B000490800008302000083020000830200005F
:1001C000830200008302000083020000830200001B
:1001D000830200008302000083020000830200000B
:1001E00083020000830200008302000083020000FB
:1001F00083020000830200008302000083020000EB
:10020000830200008302000083020000000000005F
:1002100083020000830200008302000083020000CA
:1002200083020000830200008302000083020000BA
:1002300083020000830200008302000083020000AA
:10024000830200008302000083020000830200009A
:10025000830200008302000083020000830200008A
:1002600083020000830200008302000000F00AB84D
:10027000FEE7FEE7FEE7FEE7FEE7FEE7FEE7FEE756
:10028000FEE7FEE700F002F800F03AF80AA090E876
:10029000000C82448344AAF10107DA4501D100F041
:1002A0002FF8AFF2090EBAE80F0013F0010F18BFD4
:1002B000FB1A43F0010318472023000040230000ED
:1002C000103A24BF78C878C1FAD8520724BF30C882
:1002D00030C144BF04680C60704700000023002454
:1002E00000250026103A28BF78C1FBD8520728BF46
:1002F00030C148BF0B6070471FB51FBD10B510BDA2
:1003000000F029F81146FFF7F7FF00F09BFD00F021
:1003100047F803B4FFF7F2FF03BC00F04BF800000E
:1003200072B6704762B67047EFF3108072B67047CE
:1003300080F31088704730BF704702480249014A75
:10034000024B70471003002010070020100300200C
:10035000704770477047754600F028F8AE460500B4
:100360006946534620F00700854618B020B5FFF7D0
:10037000E4FFBDE820404FF000064FF000074FF0CB
:1003800000084FF0000B21F00701AC46ACE8C009B3
:10039000ACE8C009ACE8C009ACE8C0098D467047BC
:1003A0000446AFF300802046FFF7B3FF00487047D4
:1003B000AC02002001491820ABBEFEE72600020077
:1003C000704700000148006870470000A890034093
:1003D00008B52948006840F008002849C1F808011C
:1003E0002548006800902448006800902448006870
:1003F00020F00800224908602248006840F0080008
:10040000204908602048006820F008001E49086064
:100410001E48006840F008001C4908601C4800683D
:1004200040F002001A4908604FF00000009002E01E
:100430000098401C009000981428F9D30120154919
:10044000086040F223101449086200200860084642
:10045000406940F470404861042008630F49086017
:100460004FF006000C49C1F8A4004FF0000088606E
:100470004FF00800086008BD08E10F4000E00F40A1
:1004800000740040207400401C7500402875004036
:1004900038E60F40C49F034000900340A090034003
:1004A00005E0044900E0491E0029FCD1401E002857
:1004B000F7D1704755581400F0B50646002420E0E7
:1004C000701C6043C0EBC00000F0040711480057E7
:1004D000A0F1300510480057454005F008008000A5
:1004E00005F0040100EB410005F00301451885EA21
:1004F0000700413040B2094951F82410084A5054CD
:10050000641C082CDCDB002005490872084600F05A
:1005100089F8F0BD700200209025000098250000A9
:100520007A0200201D48006F40F000401B49086718
:100530000846006F40F4006008670846006E20F42B
:10054000F86008660846006E00F5A8600866084670
:10055000006F20F0700008670846006F08670846C3
:10056000006F20F4005008670846006F40F080409C
:1005700008670846006F20F0FE5000F180700867A1
:1005800000BF0648006D10F0400FFAD00348006F1E
:1005900020F40060014908677047000000E00F4048
:1005A00008B51748006840F020001649C1F8080156
:1005B0001348006800901448006820F014001249A5
:1005C00008601248006820F01400104908601048C4
:1005D0000068104900EA01000D4908600E480068F3
:1005E00040F010000C4908604FF004000B4908600F
:1005F0000B48006840F014000949086008BD00007D
:1006000008E10F4000E00F4028550240205402400E
:100610002C550240FFF0F0FF1055024000540240FC
:100620001C5502400146044A002002E00B5C1354B2
:10063000401C0828FADB7047580000200146044A95
:10064000002002E00B5C1354401C0828FADB7047C2
:100650004000002070B506460D4614460A20B6FB41
:10066000F0F0353040B22C4908700A20B6FBF0F1AA
:1006700000FB1160303040B227494870632D05D926
:100680002648806C00F0070000F15C050A20B5FBED
:10069000F0F0303040B2204988700A20B5FBF0F10C
:1006A00000FB115505F1300040B21B49C87042F201
:1006B0000F70844200D900244FF47A70B4FBF0F03C
:1006C000303040B2144908714FF47A70B4FBF0F145
:1006D00000FB11446420B4FBF0F0303040B20E490E
:1006E00048716420B4FBF0F100FB11440A20B4FB14
:1006F000F0F0303040B2084988710A20B4FBF0F1C4
:1007000000FB114404F1300040B20349C8710349B1
:10071000886CFFF7D1FE70BD7002002000500340CE
:1007200030B504460D46FFF7FDFE2C48006840F04A
:1007300020002A4908602AA0FFF780FF2B482C4997
:1007400088622C48C8620863486300202A49086010
:100750002749086029490860294908602949086033
:100760002949086029482A4908600620204908616B
:10077000002048612749086005202749086027496B
:1007800008602748274908602748486027A0FFF7E6
:1007900049FF00202849C8600860022048601C48C2
:1007A0000068401E886200208863012048628861DA
:1007B0002248006820F0FF0040F040001F49086018
:1007C0004FF080501E4908604FF001001A49C86080
:1007D000FFF7FEFD1B480649C86230BD04E60F4026
:1007E00055542E362E30337800000000440F0000A0
:1007F00038000020F40E0000240000203400002007
:1008000030000020200000202800002000350C00CF
:100810000C0000201C00002000000020040000202C
:10082000A40E000014000020CC0E00002020202088
:100830002020202000000000005003405CE400E085
:1008400008E100E01C0F00002DE9F043FA480068C1
:10085000401EFA49886201204862FFF7B3FD40F666
:10086000E4414843000BF6490860F648006830B19F
:10087000F4480068401EF3490860BDE8F083F24880
:10088000007810F0010F1ED1F048007810F0010F31
:1008900019D00120ED4908600020ED4908600120D1
:1008A000EC4908603220E74908600120E649086009
:1008B0000020E6494861E8490860E848E3490863E0
:1008C00048638862D9E7E1480068DF490860DF488B
:1008D000007810F0010F7DD0DD48006817280AD39A
:1008E0000220DA49086008468269DB480168062070
:1008F000FFF7B0FEC1E7D7480068E0B30020D54954
:100900000860D348006800EB8001C1EB8010D44937
:1009100001EB8000406DD3490860CD48006800EBD2
:100920008001C1EB8010CE4901EB8000401CC7491B
:100930008862C748006800EB8001C1EB8010C8499D
:1009400001EB80002930C149C862C148006800EB52
:100950008001C1EB8010C24901EB8000D0F8E84073
:10096000002C05DD012C03DC0121601EBE4A115460
:10097000002C09DA00E008E0B4F1FF3F04DB0021BD
:10098000C4F1FF30B84A115477E7B6480068E8BBB5
:10099000AF48006800EB8001C1EB8010B04911F84E
:1009A000200001281BD1AA48006800EB8001C1EBA0
:1009B0008010AB4901EB8000C030A4494863062099
:1009C0000860A3480068401CA14908600120A149B3
:1009D000086000E029E232209A490860E7E09C487C
:1009E000006800EB8001C1EB80109D4901EB8000A5
:1009F000C0309649486396480068401C9449086096
:100A000001209449086032208E4900E001E008602E
:100A1000CDE094480068401E924908608C48006808
:100A200000EB8001C1EB80108D4901EB800090F854
:100A3000580028B98D488E49096850F8215013E0B4
:100A40008348006800EB8001C1EB8010844901EB12
:100A5000800090F85800012805D18448854909682C
:100A600050F8215000E000257948006800EB800133
:100A7000C1EB80107A4901EB8000C06D0544D5F8C8
:100A800000807348006800EB8001C1EB801074495E
:100A900001EB800090F86000E0B96D48006800EB61
:100AA0008001C1EB80106E4901EB80006430704919
:100AB000096850F821606648006800EB8001C1EBCE
:100AC0008010674901EB80007C306949096850F863
:100AD00021703DE05E48006800EB8001C1EB8010B2
:100AE0005F4901EB800090F8600001281CD1584854
:100AF000006800EB8001C1EB8010594901EB8000D8
:100B000064305C49096850F821605148006800EB86
:100B10008001C1EB8010524901EB80007C305549C7
:100B2000096850F8217013E04948006800EB800123
:100B3000C1EB80104A4901EB8000466E44480068D2
:100B400000EB8001C1EB8010454901EB8000C76FCD
:100B500008EA0600B8422AD13D48006800EB80014F
:100B6000C1EB80103E4901EB8000943037490863A7
:100B70003748006800EB8001C1EB8010384901EB79
:100B80008000D0F8BC003449096808443249086044
:100B9000084600682D4948612D480068401C2C49D2
:100BA000086001202B490860322026490860002493
:100BB00038E12D48005D01287DD104EB84002E49E9
:100BC00001EB4010007828B928482949096850F8F5
:100BD00021500EE004EB8400274901EB401000781F
:100BE000012805D121482349096850F8215000E027
:100BF000002504EB8400204901EB401040680544C7
:100C0000D5F8008004EB840001EB4010007AA8BB0B
:100C100004EB840001EB40100C301549096850F8D2
:100C2000216004EB8400144901EB4010243010498A
:100C3000096850F821704AE00C0000200050034081
:100C40001C0000203000002024000020380000207C
:100C5000340000202800002010000020F40E0000C6
:100C6000BC0F00002C000020080000208C0E0000AB
:100C70000000002004000020F0240000FFE704EB47
:100C800084006B4901EB4010007A012814D104EB79
:100C9000840001EB40100C306649096850F821606F
:100CA00004EB8400624901EB40102430614909687B
:100CB00050F821700BE0B4E004EB84005C4901EBD8
:100CC0004010C66804EB840001EB4010476A08EA54
:100CD0000600B84214D14FF0010904EB84005449D6
:100CE00001EB401090F83C0001280BD104EB84008C
:100CF00001EB40107830504948630620086001E05D
:100D00004FF0000904EB8400494901EB401090F8D2
:100D10003C0010B9B9F1010F0BDA04EB840044492F
:100D200001EB401090F83C0001287AD1B9F1000F96
:100D300077D104EB84003E4901EB401090F83D0070
:100D400028B93E483E49096850F821500FE004EBAD
:100D50008400374901EB401090F83D00012805D18F
:100D600036483449096850F8215000E0002504EB6A
:100D700084002F4901EB4010006C0544D5F8008039
:100D800004EB840001EB401090F8440098B904EBA8
:100D9000840001EB401048302949096850F821606F
:100DA00004EB8400224901EB4010603024490968BB
:100DB00050F8217027E004EB84001D4901EB40103E
:100DC00090F84400012813D104EB840001EB40109B
:100DD00048301849096850F8216004EB8400144930
:100DE00001EB401060301349096850F821700AE0A7
:100DF00004EB84000E4901EB4010866C04EB840088
:100E000001EB4010076E08EA0600B84209D104EB76
:100E10008400074901EB40107830074948630620F9
:100E20000860641C012CFFF6C4AE00BF25E500007D
:100E3000F024000004000020380000208C0E000088
:100E40000000002005210846FFF76AFCFFF76AFA58
:100E5000FFF7A6FB0B48006840F004000A49C1F800
:100E6000FC030EE00120FFF71BFB0648006810F0B2
:100E7000100F06D10348006880F004000249C1F851
:100E8000FC03EFE7FC5302400050024000400040EA
:100E900000500040006000400070004000400240F0
:100EA00000500240496E70757420697320504634BA
:100EB0002C2053573100000000000000000000000B
:100EC0000000000000000000000000004F7574707A
:100ED0007574206973205046322C20426C75652051
:100EE0004C4544000000000000000000000000002D
:100EF00000000000200000000000000000000000D2
:100F000000000000000000000000000000000000E1
:100F1000000000000000000000000000544578615F
:100F20005320697320696E697469616C697A6564BC
:100F300020666F72204C61622036000000000000C5
:100F400000000000436C69636B2047726164696E46
:100F50006720627574746F6E20746F207374617291
:100F6000742067726164696E67000000446F6E658B
:100F70002067726164696E67000000000000000075
:100F80000000000000000000000000000000000061
:100F900000000000303132333435363738393031E3
:100FA00032333435363738393031323334353637F9
:100FB00038393031323334353637380001576169CA
:100FC00074000000000000000000000000000000AD
:100FD0000000000000000000000000000000000011
:100FE0000000000000436865636B696E67207468E9
:100FF000652054457861535F496E697428292069DA
:101000006E20706172616D65746572000000000091
:10101000010000000200000008E10F400000000095
:1010200000000000000000000000000000000000C0
:1010300000000000000000000100000001000000AE
:10104000010000000100000001000000000000009D
:10105000466972737420706172616D657465722087
:10106000636F72726563740000000000000000008E
:1010700000000000000000000000000041626F72EC
:10108000743A2054457861532E6820626164206F61
:101090007220666F7220646966666572656E742080
:1010A0006C6162000000000001576169740000007B
:1010B0000000000000000000000000000000000030
:1010C0000000000000000000000000000000000020
:1010D00000436865636B696E6720746865205445DA
:1010E0007861535F496E69742829206F7574207088
:1010F0006172616D617465720000000001000000A2
:101100000200000008E10F400100000000000000A4
:1011100000000000000000000000000000000000CF
:1011200000000000010000000100000001000000BC
:101130000100000001000000000000005365636F23
:101140006E6420706172616D6574657220636F7288
:1011500072656374000000000000000000000000E1
:10116000000000000000000041626F72743A2054D9
:10117000457861532E6820626164206F7220666F2B
:101180007220646966666572656E74206C616200C7
:1011900000000000015761697400000000000000B9
:1011A000000000000000000000000000000000003F
:1011B000000000000000000000000000004368651F
:1011C000636B696E672074686520696E7075742042
:1011D000706F727420636C6F636B0000000000001E
:1011E00000000000000000001400000002000000E9
:1011F00008E10F40000000000100000002000000B4
:1012000004000000080000001000000020000000A2
:1012100001000000020000000400000008000000BF
:101220001000000020000000496E70757420636C8F
:101230006F636B206973206F6E0000000000000078
:10124000000000000000000000000000000000009E
:101250000000000041626F72743A20496E7075742C
:1012600020706F727420636C6F636B206973206FE2
:1012700066660000000000000000000000000000A2
:1012800001576169740000000000000000000000C8
:10129000000000000000000000000000000000004E
:1012A000000000000000000000436865636B696E89
:1012B0006720746865206F757470757420706F7224
:1012C0007420636C6F636B0000000000000000007E
:1012D00000000000140000000200000008E10F40C0
:1012E00001000000010000000200000004000000F6
:1012F00008000000100000002000000001000000B5
:1013000002000000040000000800000010000000BF
:10131000200000004F757470757420636C6F636BF0
:10132000206973206F6E00000000000000000000C4
:1013300000000000000000000000000000000000AD
:1013400041626F72743A204F757470757420706FBB
:10135000727420636C6F636B206973206F66660024
:10136000000000000000000000000000015761695B
:1013700074000000000000000000000000000000F9
:10138000000000000000000000000000000000005D
:101390000000000000436865636B696E6720746835
:1013A0006520696E70757420616E616C6F67206571
:1013B0006E61626C65207265672E0000000000009F
:1013C00014000000000000002805000000000000DC
:1013D000000000000000000000000000000000000D
:1013E00000000000100000000000000000000000ED
:1013F00000000000000000000000000000000000ED
:10140000496E70757420616E616C6F67206973201E
:1014100064697361626C6564000000000000000094
:1014200000000000000000000000000041626F7238
:10143000743A20496E70757420414D53454C2069B3
:10144000732077726F6E67000000000000000000DC
:1014500000000000000000000157616974000000F6
:10146000000000000000000000000000000000007C
:10147000000000000000000000000000000000006C
:1014800000436865636B696E6720746865206F75DB
:101490007470757420616E616C6F6720656E616237
:1014A0006C65207265672E000000000014000000CB
:1014B00001000000280500000100000000000000FD
:1014C000000000000000000000000000000000001C
:1014D0000400000000000000000000000000000008
:1014E0000000000000000000000000004F75747054
:1014F000757420616E616C6F672069732064697315
:1015000061626C65640000000000000000000000E3
:10151000000000000000000041626F72743A204F2A
:10152000757470757420414D53454C206973207754
:10153000726F6E67000000000000000000000000F5
:101540000000000001576169740000000000000005
:10155000000000000000000000000000000000008B
:10156000000000000000000000000000004368656B
:10157000636B696E672074686520696E707574208E
:10158000706F727420636F6E74726F6C2072656717
:101590002E00000000000000140000000000000009
:1015A0002C0500000000000000000000000000000A
:1015B00000000000000000000000000000000F001C
:1015C000000000000000000000000000000000001B
:1015D0000000000000000000496E70757420504348
:1015E000544C2073657420666F72204750494F0039
:1015F00000000000000000000000000000000000EB
:101600000000000041626F72743A20496E70757478
:10161000205043544C2069732077726F6E6700002E
:1016200000000000000000000000000000000000BA
:101630000157616974000000000000000000000014
:10164000000000000000000000000000000000009A
:10165000000000000000000000436865636B696ED5
:101660006720746865206F757470757420706F7270
:101670007420636F6E74726F6C207265672E000049
:101680000000000014000000010000002C05000014
:101690000100000000000000000000000000000049
:1016A0000000000000000000000F0000000000002B
:1016B000000000000000000000000000000000002A
:1016C000000000004F7574707574205043544C2016
:1016D00073657420666F72204750494F0000000008
:1016E00000000000000000000000000000000000FA
:1016F00041626F72743A204F757470757420504354
:10170000544C2069732077726F6E670000000000F0
:1017100000000000000000000000000001576169A7
:101720007400000000000000000000000000000045
:1017300000000000000000000000000000000000A9
:101740000000000000436865636B696E6720746881
:101750006520696E70757420646972656374696F61
:101760006E20726567697374657200000000000086
:101770001400000000000000000400000000000051
:101780000000000000000000000000000000000059
:101790000000000010000000000000000000000039
:1017A0000000000000000000000000000000000039
:1017B000496E70757420646972656374696F6E2018
:1017C0006973204F4B000000000000000000000083
:1017D00000000000000000000000000041626F7285
:1017E000743A20496E707574206469726563746917
:1017F0006F6E2069732077726F6E670000000000C3
:101800000000000000000000015761697400000042
:1018100000000000000000000000000000000000C8
:1018200000000000000000000000000000000000B8
:1018300000436865636B696E6720746865206F7527
:101840007470757420646972656374696F6E207258
:101850006567697374657200000000001400000081
:101860000100000000040000010000000000000072
:101870000000000000000000000000000000000068
:101880000400000000000000000000000000000054
:101890000000000000000000040000004F7574709C
:1018A000757420646972656374696F6E2069732052
:1018B0004F4B00000000000000000000000000008E
:1018C000000000000000000041626F72743A204F77
:1018D000757470757420646972656374696F6E20C5
:1018E00069732077726F6E670000000000000000CF
:1018F0000000000001576169740000000000000052
:1019000000000000000000000000000000000000D7
:1019100000000000000000000000000000436865B7
:10192000636B696E672074686520696E70757420DA
:10193000616C742E2066756E63742E207265676903
:1019400073746572000000001400000000000000C5
:101950002004000000000000000000000000000063
:101960000000000000000000000000001000000067
:101970000000000000000000000000000000000067
:101980000000000000000000496E707574204146A0
:1019900053454C206973204F4B00000000000000AD
:1019A0000000000000000000000000000000000037
:1019B0000000000041626F72743A20496E707574C5
:1019C00020414653454C2069732077726F6E670043
:1019D0000000000000000000000000000000000007
:1019E0000157616974000000000000000000000061
:1019F00000000000000000000000000000000000E7
:101A0000000000000000000000436865636B696E21
:101A10006720746865206F757470757420616C74CC
:101A20002E2066756E63742E207265672E0000008E
:101A3000000000001400000001000000200400006D
:101A40000100000000000000000000000000000095
:101A50000000000000000000040000000000000082
:101A60000000000000000000000000000000000076
:101A7000000000004F757470757420414653454C4A
:101A8000206973204F4B00000000000000000000A0
:101A90000000000000000000000000000000000046
:101AA00041626F72743A204F7574707574204146AC
:101AB00053454C2069732077726F6E6700000000F9
:101AC00000000000000000000000000001576169F4
:101AD0007400000000000000000000000000000092
:101AE00000000000000000000000000000000000F6
:101AF0000000000000436865636B696E67207468CE
:101B00006520696E7075742070756C6C75702072CC
:101B100065676973746572000000000000000000D2
:101B2000140000000000000010050000000000008C
:101B300000000000000000000000000000000000A5
:101B40000000000010000000000000000000000085
:101B50000000000000000000000000001000000075
:101B6000496E7075742070756C6C20757020697387
:101B7000204F4B00000000000000000000000000AB
:101B800000000000000000000000000041626F72D1
:101B9000743A20496E707574205055522069732034
:101BA00077726F6E67000000000000000000000008
:101BB000000000000000000001576169740000008F
:101BC0000000000000000000000000000000000015
:101BD0000000000000000000000000000000000005
:101BE00000436865636B696E6720746865206F7574
:101BF000747075742070756C6C757020726567698F
:101C00007374657200000000000000001400000002
:101C100001000000100500000100000000000000AD
:101C200000000000000000000000000000000000B4
:101C300004000000000000000000000000000000A0
:101C40000000000000000000000000004F757470EC
:101C500075742070756C6C207570206973204F4B03
:101C60000000000000000000000000000000000074
:101C7000000000000000000041626F72743A204FC3
:101C80007574707574205055522069732077726F87
:101C90006E6700000000000000000000000000006F
:101CA000000000000157616974000000000000009E
:101CB0000000000000000000000000000000000024
:101CC0000000000000000000000000000043686504
:101CD000636B696E672074686520696E7075742027
:101CE0006469676974616C20656E61626C652072FD
:101CF00065672E00000000001400000000000000D6
:101D00001C050000000000000000000000000000B2
:101D100000000000000000000000000010000000B3
:101D200000000000000000000000000000000000B3
:101D30000000000010000000496E707574204445DA
:101D40004E206973204F4B0000000000000000008F
:101D50000000000000000000000000000000000083
:101D60000000000041626F72743A20496E70757411
:101D70002044454E2069732077726F6E6700000023
:101D80000000000000000000000000000000000053
:101D900001576169740000000000000000000000AD
:101DA0000000000000000000000000000000000033
:101DB000000000000000000000436865636B696E6E
:101DC0006720746865206F75747075742064696726
:101DD0006974616C20656E61626C65207265672E46
:101DE0000000000014000000010000001C050000BD
:101DF00001000000000000000000000000000000E2
:101E000000000000000000000400000000000000CE
:101E100000000000000000000000000000000000C2
:101E2000040000004C6162203620696E69742069EC
:101E300073204F4B00000000000000000000000075
:101E40000000000000000000000000000000000092
:101E500041626F72743A204F7574707574204445F6
:101E60004E2069732077726F6E67000000000000DB
:101E70000000000000000000000000000052656C3F
:101E8000656173652053573120285046342900007E
:101E90000000000000000000000000000000000042
:101EA0000000000000436865636B696E672073770C
:101EB000697463682072656C656173656400000015
:101EC0000000000000000000000000000000000012
:101ED000E803000000000000FC0300000000000018
:101EE00000000000000000000000000000000000F2
:101EF00000000000100000000000000000000000D2
:101F000000000000000000000000000010000000C1
:101F10005377697463682069732072656C656173B7
:101F200065640000000000000000000000000000E8
:101F300000000000000000001000000053776974EA
:101F40006368206E657665722072656C6561736585
:101F5000640000000000000000000000000000001D
:101F600000000000000000000052656C65617365B0
:101F7000205357312028504634290000000000002B
:101F80000000000000000000000000000000000051
:101F900000436865636B696E67204C4544206F6E33
:101FA0000000000000000000000000000000000031
:101FB000000000000000000000000000E803000036
:101FC00001000000FC030000010000000000000010
:101FD0000000000000000000000000000000000001
:101FE00004000000000000000000000000000000ED
:101FF000000000000000000004000000477261645F
:102000006572207365657320736F6C696420426C20
:1020100075650000000000000000000000000000E6
:10202000000000000C0000004C4544206E65766501
:1020300072207475726E6564206F6E00000000007F
:102040000000000000000000000000000000000090
:1020500001000000005075736820616E6420686F95
:102060006C6420535731202850463429000000006A
:102070000000000000000000000000000043686550
:10208000636B696E6720737769746368207072652B
:102090007373656400000000000000000000000091
:1020A0000000000000000000E80300000000000045
:1020B000FC03000000000000000000000000000021
:1020C0000000000000000000000000001000000000
:1020D0000000000000000000000000000000000000
:1020E00000000000000000005377697463682069F5
:1020F0007320707265737365640000000000000057
:1021000000000000000000000000000000000000CF
:1021100010000000537769746368206E65766572FD
:102120002070726573736564000000000000000099
:10213000000000000000000000000000000000009F
:10214000005075736820616E6420686F6C64205362
:1021500057312028504634290000000000000000BC
:10216000000000000000000000436865636B696EBA
:1021700067204C4544206F6E000000000000000006
:10218000000000000000000000000000000000004F
:1021900000000000E803000001000000FC03000054
:1021A000010000000000000000000000000000002E
:1021B000000000000000000004000000000000001B
:1021C000000000000000000000000000000000000F
:1021D00004000000477261646572207365657320B6
:1021E0004C4544206F6E000000000000000000001D
:1021F0000000000000000000000000000C000000D3
:102200004C4544206E65766572207475726E656407
:10221000206F6E00000000000000000000000000C1
:102220000000000000000000000000000150757375
:102230006820616E6420686F6C64205357312028D9
:10224000504634290000000000000000000000009B
:102250000000000000436865636B696E67204C45B1
:1022600044206F66660000000000000000000000CF
:10227000000000000000000000000000000000005E
:10228000E803000001000000FC0300000100000062
:10229000000000000000000000000000000000003E
:1022A000000000000400000000000000000000002A
:1022B000000000000000000000000000000000001E
:1022C0004772616465722073656573204C454420D4
:1022D0006F666600000000000000000000000000C3
:1022E00000000000000000001000000041626F725A
:1022F000743A204C4544206973206E6F7420666CDC
:10230000617368696E670000000000000000000053
:1023100000000000000000000052656C65617365FC
:102320002053573120285046342900000000000077
:10233000000000000000000000000000000000009D
:1023400000436865636B696E6720737769746368BF
:102350002072656C65617365640000000000000018
:10236000000000000000000000000000E803000082
:1023700000000000FC03000000000000000000005E
:10238000000000000000000000000000000000004D
:10239000100000000000000000000000000000002D
:1023A0000000000000000000100000005377697476
:1023B00063682069732072656C65617365640000F1
:1023C000000000000000000000000000000000000D
:1023D0000000000010000000537769746368206EED
:1023E000657665722072656C6561736564000000D6
:1023F00000000000000000000000000000000000DD
:10240000FFFFFFFF0052656C656173652053573114
:102410002028504634290000000000000000000081
:10242000000000000000000000000000004368659C
:10243000636B696E67204C4544206F6E000000009E
:10244000000000000000000000000000000000008C
:102450000000000000000000E80300000100000090
:10246000FC0300000100000000000000000000006C
:102470000000000000000000000000000400000058
:10248000000000000000000000000000000000004C
:102490000000000004000000477261646572207350
:1024A00065657320736F6C696420426C756500000C
:1024B000000000000000000000000000000000001C
:1024C0000C0000004C4544206E65766572207475E2
:1024D000726E6564206F6E00000000000000000056
:1024E00000000000000000000000000000000000EC
:1024F00000000000FC0300000000000000000000DD
:1025000000000000000000000000000000000000CB
:1025100010000000000000000000000000000000AB
:10252000000000000000000010000000000100009A
:10253000FC0300000100000000000000000000009B
:102540000000000000000000000000000400000087
:10255000000000000000000000000000000000007B
:10256000000000000000000041626F72743A204CCD
:102570004544206F6666207768696C6520737769CB
:102580007463682072656C656173656400000000A7
:10259000010A05070F0C08020200000006000000F7
:1025A0000300000000000000010000000700000020
:1025B000040000000500000003000000040000000B
:1025C00000000000020000000600000007000000FC
:1025D0000100000005000000F825000000000020B8
:1025E00038000000C0020000302600003800002043
:1025F000D8060000DC020000050000000500000015
:102600000000000080380100000000000000000011
:1026100000000000000000000000000000000000BA
:1026200000000000000000000000000000000000AA
:040000050000026D88
:00000001FF
