:020000040000FA
:10000000280700206D02000071020000730200004A
:100010007502000077020000790200000000000075
:100020000000000000000000000000007B02000053
:100030007D020000000000007F020000810200003D
:10004000830200008302000083020000830200009C
:10005000830200008302000083020000830200008C
:10006000830200008302000083020000830200007C
:10007000830200008302000083020000830200006C
:10008000830200008302000083020000830200005C
:10009000830200008302000083020000830200004C
:1000A000830200008302000083020000830200003C
:1000B000830200008302000083020000830200002C
:1000C000830200008302000083020000830200001C
:1000D000830200008302000083020000830200000C
:1000E00083020000830200008302000083020000FC
:1000F00083020000830200008302000083020000EC
:1001000083020000830200008302000083020000DB
:1001100083020000830200008302000083020000CB
:1001200083020000830200008302000083020000BB
:1001300083020000830200008302000083020000AB
:1001400000000000000000000000000000000000AF
:100150008302000083020000810900008302000086
:10016000000000000000000000000000000000008F
:10017000000000000000000000000000000000007F
:10018000000000000000000000000000000000006F
:10019000000000000000000000000000000000005F
:1001A000000000000000000000000000000000004F
:1001B000A109000083020000830200008302000006
:1001C000830200008302000083020000830200001B
:1001D000830200008302000083020000830200000B
:1001E00083020000830200008302000083020000FB
:1001F00083020000830200008302000083020000EB
:10020000830200008302000083020000000000005F
:1002100083020000830200008302000083020000CA
:1002200083020000830200008302000083020000BA
:1002300083020000830200008302000083020000AA
:10024000830200008302000083020000830200009A
:10025000830200008302000083020000830200008A
:1002600083020000830200008302000000F00AB84D
:10027000FEE7FEE7FEE7FEE7FEE7FEE7FEE7FEE756
:10028000FEE7FEE700F002F800F03AF80AA090E876
:10029000000C82448344AAF10107DA4501D100F041
:1002A0002FF8AFF2090EBAE80F0013F0010F18BFD4
:1002B000FB1A43F001031847C4470000E44700005D
:1002C000103A24BF78C878C1FAD8520724BF30C882
:1002D00030C144BF04680C60704700000023002454
:1002E00000250026103A28BF78C1FBD8520728BF46
:1002F00030C148BF0B6070471FB51FBD10B510BDA2
:1003000000F029F81146FFF7F7FF00F093FE00F028
:1003100047F803B4FFF7F2FF03BC00F04BF800000E
:1003200072B6704762B67047EFF3108072B67047CE
:1003300080F31088704730BF704702480249014A75
:10034000024B7047280300202807002028030020C4
:10035000704770477047754600F028F8AE460500B4
:100360006946534620F00700854618B020B5FFF7D0
:10037000E4FFBDE820404FF000064FF000074FF0CB
:1003800000084FF0000B21F00701AC46ACE8C009B3
:10039000ACE8C009ACE8C009ACE8C0098D467047BC
:1003A0000446AFF300802046FFF7B3FF00487047D4
:1003B000C402002001491820ABBEFEE7260002005F
:1003C000704700000148006870470000A890034093
:1003D00008B52948006840F008002849C1F808011C
:1003E0002548006800902448006800902448006870
:1003F00020F00800224908602248006840F0080008
:10040000204908602048006820F008001E49086064
:100410001E48006840F008001C4908601C4800683D
:1004200040F002001A4908604FF00000009002E01E
:100430000098401C009000981428F9D30120154919
:10044000086040F223101449086200200860084642
:10045000406940F470404861042008630F49086017
:100460004FF006000C49C1F8A4004FF0000088606E
:100470004FF00800086008BD08E10F4000E00F40A1
:1004800000740040207400401C7500402875004036
:1004900038E60F40C49F034000900340A090034003
:1004A000F0B50646002420E0701C6043C0EBC0009D
:1004B00000F0040711480057A0F13005104800571C
:1004C000454005F00800800005F0040100EB410004
:1004D00005F00301451885EA0700413040B209499B
:1004E00051F82410084A5054641C082CDCDB00200E
:1004F00005490872084600F0B3F8F0BD88020020F4
:10050000344A00003C4A0000920200201D48006F5F
:1005100040F000401B4908670846006F40F4006047
:1005200008670846006E20F4F86008660846006E0A
:1005300000F5A86008660846006F20F070000867A4
:100540000846006F08670846006F20F400500867EF
:100550000846006F40F0804008670846006F20F0B2
:10056000FE5000F18070086700BF0648006D10F073
:10057000400FFAD00348006F20F40060014908677B
:100580007047000000E00F400F48006820F03F0077
:100590000D4908600020091D08600C48006840F003
:1005A0003F000A49086009482030006820F03F00F9
:1005B00006492031086004480C38006840F03F00CC
:1005C00001490C390860704728550040005400402C
:1005D0000F48006820F007000D4908600020091D41
:1005E00008600C48006820F007000A4908600948C4
:1005F0002030006820F007000649203108600448D8
:100600000C38006840F0070001490C390860704759
:1006100028450240004402400F48006820F00A00CC
:100620000D4908600020091D08600C48006840F072
:100630000A000A49086009482030006820F00A00D2
:1006400006492031086004480C38006840F00A0070
:1006500001490C3908607047285502400054024097
:100660000146044A002002E00B5C1354401C082899
:10067000FADB7047700000200146044A002002E0C7
:100680000B5C1354401C0828FADB7047580000200C
:1006900070B506460D4614460A20B6FBF0F035301C
:1006A00040B22C4908700A20B6FBF0F100FB116043
:1006B000303040B227494870632D05D92648806CF8
:1006C00000F0070000F15C050A20B5FBF0F03030C7
:1006D00040B2204988700A20B5FBF0F100FB1155AB
:1006E00005F1300040B21B49C87042F20F708442DD
:1006F00000D900244FF47A70B4FBF0F0303040B2EF
:10070000144908714FF47A70B4FBF0F100FB114406
:100710006420B4FBF0F0303040B20E4948716420E0
:10072000B4FBF0F100FB11440A20B4FBF0F03030D0
:1007300040B2084988710A20B4FBF0F100FB114473
:1007400004F1300040B20349C8710349886CFFF7D7
:10075000A7FE70BD880200200050034000204FF02B
:10076000E0210861052008617047411E4FF0E0223A
:1007700051610021916100BF4FF0E021096911F43E
:10078000803FF9D07047000010B50346002403E015
:100790000348FFF7EAFF641C9C42F9D310BD000038
:1007A00000350C0070B504460D461646FFF7AEFE48
:1007B0003C48006840F020003A4908603AA0FFF742
:1007C0005BFF3C483C4988623C48C8620863486318
:1007D00000203B490860384908603A4908603A49B6
:1007E00008603A4908603A4908603A483A4908605E
:1007F0000A203149086100204861384908603848BA
:100800000460384805603648006818B936483749EA
:1008100008600AE032480068012803D134483349AF
:10082000086002E03348314908602E48006818B972
:1008300031482E4948600AE02A480068012803D15F
:100840002E482A49486002E02D48284948602DA0DA
:10085000FFF706FF00202E49C860086002204860AC
:100860001D480068401E886200208863012048629D
:1008700088612848006820F0FF0040F040002549CA
:1008800008604FF08050244908604FF00100204973
:10089000C860FFF79DFD0EB100F042F81F48064901
:1008A000C86270BD04E60F4055542E362E303378A2
:1008B000000000001C14000050000020CC130000B9
:1008C00038000020480000204400002034000020B0
:1008D0003C00002000350C002000002030000020EB
:1008E000080000200C000020DC120000280000207E
:1008F0002C1300007C1300000413000054130000AC
:10090000A413000020202020202020200000000030
:10091000005003405CE400E008E100E0F413000054
:1009200000B51348006840F030001149086000F03D
:1009300035FB00200F49C86008600220486041F67E
:100940003F708862002088630120486288610A48FD
:10095000006820F47F0040F46000074908604020F0
:10096000064908604FF001000249C86000BD000060
:1009700004E60F400040034044E400E008E100E0EA
:10098000012004494862044800684FEA10100349F6
:100990000860704700400340A890034000C000403A
:1009A0002DE9F043FA480068401EFA4988620120A8
:1009B0004862FFF707FD40F6E4414843000BF64963
:1009C0000860F648006830B1F4480068401EF349FA
:1009D0000860BDE8F083F248007810F0010F1ED1E6
:1009E000F048007810F0010F19D00120ED4908609F
:1009F0000020ED4908600120EC4908603220E749F9
:100A000008600120E64908600020E6494861E8499D
:100A10000860E848E349086348638862D9E7E14829
:100A20000068DF490860DF48007810F0010F7DD0D2
:100A3000DD48006830280AD30220DA4908600846F9
:100A40008269DB4801680A20FFF722FEC1E7D74828
:100A50000068E0B30020D5490860D348006800EB87
:100A60008001C1EB8010D44901EB8000406DD34977
:100A70000860CD48006800EB8001C1EB8010CE49D2
:100A800001EB8000401CC7498862C748006800EB42
:100A90008001C1EB8010C84901EB80002930C149B9
:100AA000C862C148006800EB8001C1EB8010C249F8
:100AB00001EB8000D0F8E840002C05DD0F2C03DCB2
:100AC0000121601EBE4A1154002C09DA00E008E042
:100AD00014F10F0F04DB0021C4F1FF30B84A1154A8
:100AE00077E7B6480068E8BBAF48006800EB8001D4
:100AF000C1EB8010B04911F8200001281BD1AA4891
:100B0000006800EB8001C1EB8010AB4901EB800075
:100B1000C030A449486306200860A3480068401C10
:100B2000A14908600120A149086000E029E23220C3
:100B30009A490860E7E09C48006800EB8001C1EB3F
:100B400080109D4901EB8000C0309649486396486B
:100B50000068401C944908600120944908603220D4
:100B60008E4900E001E00860CDE094480068401E36
:100B7000924908608C48006800EB8001C1EB80104E
:100B80008D4901EB800090F8580028B98D488E49B6
:100B9000096850F8215013E08348006800EB800199
:100BA000C1EB8010844901EB800090F858000128C7
:100BB00005D184488549096850F8215000E0002596
:100BC0007948006800EB8001C1EB80107A4901EBA5
:100BD0008000C06D0544D5F800807348006800EBC4
:100BE0008001C1EB8010744901EB800090F8600037
:100BF000E0B96D48006800EB8001C1EB80106E49E0
:100C000001EB800064307049096850F82160664843
:100C1000006800EB8001C1EB8010674901EB8000A8
:100C20007C306949096850F821703DE05E480068F1
:100C300000EB8001C1EB80105F4901EB800090F870
:100C4000600001281CD15848006800EB8001C1EB0E
:100C50008010594901EB800064305C49096850F804
:100C600021605148006800EB8001C1EB80105249BF
:100C700001EB80007C305549096850F8217013E081
:100C80004948006800EB8001C1EB80104A4901EB44
:100C90008000466E4448006800EB8001C1EB801084
:100CA000454901EB8000C76F08EA0600B8422AD127
:100CB0003D48006800EB8001C1EB80103E4901EB2C
:100CC00080009430374908633748006800EB8001A2
:100CD000C1EB8010384901EB8000D0F8BC003449EA
:100CE0000968084432490860084600682D4948618F
:100CF0002D480068401C2C49086001202B490860E1
:100D0000322026490860002438E12D48005D012882
:100D10007DD104EB84002E4901EB4010007828B906
:100D200028482949096850F821500EE004EB840056
:100D3000274901EB40100078012805D121482349BB
:100D4000096850F8215000E0002504EB8400204998
:100D500001EB401040680544D5F8008004EB8400A6
:100D600001EB4010007AA8BB04EB840001EB4010BB
:100D70000C301549096850F8216004EB84001449CF
:100D800001EB401024301049096850F821704AE006
:100D900020000020005003403000002044000020CC
:100DA0003800002050000020480000203C000020B7
:100DB00024000020CC130000941400004000002008
:100DC00010000020C4120000080000200C000020C9
:100DD000D4400000FFE704EB84006B4901EB4010B6
:100DE000007A012814D104EB840001EB40100C3090
:100DF0006649096850F8216004EB8400624901EB00
:100E0000401024306149096850F821700BE0B4E0CB
:100E100004EB84005C4901EB4010C66804EB8400DD
:100E200001EB4010476A08EA0600B84214D14FF0BF
:100E3000010904EB8400544901EB401090F83C0098
:100E400001280BD104EB840001EB401078305049AD
:100E500048630620086001E04FF0000904EB8400BD
:100E6000494901EB401090F83C0010B9B9F1010F6D
:100E70000BDA04EB8400444901EB401090F83C008D
:100E800001287AD1B9F1000F77D104EB84003E49F3
:100E900001EB401090F83D0028B93E483E490968F2
:100EA00050F821500FE004EB8400374901EB40106B
:100EB00090F83D00012805D136483449096850F8BA
:100EC000215000E0002504EB84002F4901EB401085
:100ED000006C0544D5F8008004EB840001EB401061
:100EE00090F8440098B904EB840001EB40104830BE
:100EF0002949096850F8216004EB8400224901EB7C
:100F0000401060302449096850F8217027E004EB54
:100F100084001D4901EB401090F84400012813D1D2
:100F200004EB840001EB401048301849096850F880
:100F3000216004EB8400144901EB40106030134938
:100F4000096850F821700AE004EB84000E4901EBB7
:100F50004010866C04EB840001EB4010076E08EA39
:100F60000600B84209D104EB8400074901EB4010A8
:100F700078300749486306200860641C0F2CFFF690
:100F8000C4AE00BF25E50000D44000000C000020E6
:100F900050000020C4120000080000201F48006814
:100FA00040F001001E49C1F804010846D0F80801CC
:100FB00040F00100C1F808011A48006B20F0010060
:100FC000184908634FF02B0048624FF01A008862FE
:100FD0004FF07000C8620846006B40F001000863E3
:100FE0001148006840F003000F4908600F4800688E
:100FF00040F003000D4908600D48006820F0FF0034
:1010000000F111000A490860A1F10400006820F015
:101010000300A1F1040108607047000004E10F40E3
:1010200000E00F4000C00040204400401C4500404C
:101030002C45004008B5002201210420FFF7B2FB37
:10104000FFF770F92948006840F032002849C1F8DC
:101050000801264800680090FFF758FAFFF77EFB6A
:10106000FFF792FAFFF7B4FAFFF7D6FA002021490A
:1010700008603AE01F48006800EB400101EBC00047
:101080001D4951F820001D4908601A48006800EB0E
:10109000400101EBC000184901EB8000406818498D
:1010A000C1F8FC031349096801EB410202EBC101DD
:1010B000114A02EB81018868FFF766FB1148D0F8FE
:1010C000FC0300F00700104908600A48006800EBC4
:1010D000400101EBC000084901EB80000C300A49D7
:1010E000096850F8210003490860C3E708E10F4090
:1010F00000E00F40000000200C110000FC530040F5
:101100000050024000400240040000202100000086
:101110000200000064000000000000000100000068
:1011200001000000010000000100000001000000BB
:101130000100000001000000220000000200000089
:101140006400000002000000020000000200000035
:101150000200000004000000040000000200000083
:10116000020000000C00000002000000640000000B
:101170000200000003000000030000000300000064
:101180000300000003000000030000000300000053
:1011900014000000020000006400000004000000D1
:1011A000000000000000000000000000040000003B
:1011B00004000000040000000400000024000000FF
:1011C00008000000640000000400000005000000AA
:1011D00005000000050000000400000005000000FC
:1011E00005000000050000002400000002000000CF
:1011F0006400000006000000060000000600000079
:1012000006000000060000000600000006000000C6
:101210000600000024000000000000006400000040
:1012200007000000070000000700000007000000A2
:101230000700000007000000070000000700000092
:10124000240000000200000064000000080000000C
:10125000080000000800000008000000080000006E
:101260000800000008000000080000002400000042
:1012700000000000640000000900000009000000F8
:10128000090000000900000009000000090000003A
:101290000900000009000000240000000200000016
:1012A00064000000000000000200000000000000D8
:1012B0000000000004000000000000000200000028
:1012C000000000000040004000500040006000406E
:1012D000007000400040024000500240496E7075AE
:1012E00074206973205041342D322C20706F736943
:1012F00074697665206C6F676963207377697463BE
:10130000686573004F75747075742069732050415F
:10131000372D322C20706F736974697665206C6F7D
:10132000676963204C45447300000000496E707586
:1013300074206973205042322D302C20706F7369F5
:1013400074697665206C6F6769632073776974636D
:10135000686573004F75747075742069732050420E
:10136000352D302C20706F736974697665206C6F31
:10137000676963204C45447300000000496E707536
:1013800074206973205045322D302C20706F7369A2
:1013900074697665206C6F6769632073776974631D
:1013A000686573004F7574707574206973205045BB
:1013B000352D302C20706F736974697665206C6FE1
:1013C000676963204C454473000000002000000062
:1013D000000000000000000000000000000000000D
:1013E00000000000000000000000000000000000FD
:1013F00000000000544578615320697320696E69CC
:101400007469616C697A656420666F72204C6162F0
:10141000203130000000000000000000436C6963D0
:101420006B2047726164696E6720627574746F6EB9
:1014300020746F2073746172742067726164696EC6
:1014400067000000446F6E652067726164696E67B3
:10145000000000000000000000000000000000008C
:1014600000000000000000000000000030313233B6
:101470003435363738393031323334353637383918
:101480003031323334353637383930313233343520
:101490003637380001576169740000000000000011
:1014A000000000000000000000000000000000003C
:1014B000000000000000000000000000004368651C
:1014C000636B696E67207468652054457861535F6B
:1014D000496E6974282920696E20706172616D659A
:1014E00074657200000000000100000002000000AE
:1014F00008E10F40000000000000000000000000B4
:1015000000000000000000000000000000000000DB
:1015100000000000000000000100000001000000C9
:1015200000000000010000004669727374207061C1
:1015300072616D6574657220636F727265637400A9
:10154000000000000000000000000000000000009B
:101550000000000041626F72743A20544578615374
:101560002E6820626164206F7220666F7220646949
:1015700066666572656E74206C6162000000000032
:1015800001576169740000000000000000000000C5
:10159000000000000000000000000000000000004B
:1015A000000000000000000000436865636B696E86
:1015B00067207468652054457861535F496E69748B
:1015C0002829206F757420706172616D6174657275
:1015D00000000000010000000200000008E10F40D0
:1015E00001000000000000000000000000000000FA
:1015F00000000000000000000000000000000000EB
:1016000000000000010000000100000000000000D8
:10161000010000005365636F6E6420706172616D3C
:101620006574657220636F727265637400000000F8
:1016300000000000000000000000000000000000AA
:1016400041626F72743A2054457861532E6820626B
:101650006164206F7220666F7220646966666572CD
:10166000656E74206C6162000000000001576169C2
:1016700074000000000000000000000000000000F6
:10168000000000000000000000000000000000005A
:101690000000000000436865636B696E6720746832
:1016A00065205379735469636B20636F6E74726F36
:1016B0006C20726567697374657200000000000039
:1016C000140000000200000010E000E00200000032
:1016D0000700000000000000000000000000000003
:1016E00000000000000000000500000000000000F5
:1016F00000000000000000000000000000000000EA
:101700005379735469636B2073657420636F7272CD
:101710006563746C790000000000000000000000A8
:1017200000000000000000000000000041626F7235
:10173000743A205379735469636B206469736162EE
:101740006C6564206F72207365742077726F6E67AA
:1017500000000000000000000157616974000000F3
:101760000000000000000000000000000000000079
:101770000000000000000000000000000000000069
:1017800000436865636B696E672074686520696EE5
:1017900070757420706F727420636C6F636B0000DF
:1017A0000000000000000000000000001400000025
:1017B0000200000008E10F400000000001000000EE
:1017C0000200000000000000000000001000000007
:1017D0000000000001000000020000000000000006
:1017E000000000001000000000000000496E70754D
:1017F0007420636C6F636B206973206F6E00000050
:1018000000000000000000000000000000000000D8
:10181000000000000000000041626F72743A20492D
:101820006E70757420706F727420636C6F636B20C0
:101830006973206F66660000000000000000000071
:101840000000000001576169740000000000000002
:101850000000000000000000000000000000000088
:101860000000000000000000000000000043686568
:10187000636B696E6720746865206F75747075742A
:1018800020706F727420636C6F636B000000000047
:101890000000000000000000140000000200000032
:1018A00008E10F40010000000100000002000000FC
:1018B0000000000000000000100000000000000018
:1018C0000100000002000000000000000000000015
:1018D00010000000000000004F75747075742063E4
:1018E0006C6F636B206973206F6E00000000000056
:1018F00000000000000000000000000000000000E8
:101900000000000041626F72743A204F7574707568
:101910007420706F727420636C6F636B2069732026
:101920006F6666000000000000000000000000007C
:101930000157616974000000000000000000000011
:101940000000000000000000000000000000000097
:10195000000000000000000000436865636B696ED2
:10196000672074686520506F7274204620636C6F26
:10197000636B000000000000000000000000000099
:1019800000000000140000000200000008E10F4009
:101990000200000020000000000000000000000025
:1019A0000000000000000000000000002000000017
:1019B0000000000000000000000000000000000027
:1019C00000000000506F7274204620636C6F636BE0
:1019D000206973206F6E000000000000000000000E
:1019E00000000000000000000000000000000000F7
:1019F00041626F72743A20506F7274204620636C9B
:101A00006F636B206973206F666600000000000042
:101A100000000000000000000000000001576169A4
:101A20007400000000000000000000000000000042
:101A300000000000000000000000000000000000A6
:101A40000000000000436865636B696E672074687E
:101A50006520696E70757420616E616C6F672065BA
:101A60006E61626C65207265672E000000000000E8
:101A70001400000000000000280500000000000025
:101A80001C00000007000000000000000000000033
:101A9000070000000000000000000000000000003F
:101AA0000000000000000000000000000000000036
:101AB000496E70757420616E616C6F672069732068
:101AC00064697361626C65640000000000000000DE
:101AD00000000000000000000000000041626F7282
:101AE000743A20496E70757420414D53454C2069FD
:101AF000732077726F6E6700000000000000000026
:101B0000000000000100000001576169740000003E
:101B100000000000000000000000000000000000C5
:101B200000000000000000000000000000000000B5
:101B300000436865636B696E6720746865206F7524
:101B40007470757420616E616C6F6720656E616280
:101B50006C65207265672E00000000001400000014
:101B6000010000002805000001000000FC0000004A
:101B70003F00000000000000000000003F000000E7
:101B80000000000000000000000000000000000055
:101B90000000000000000000000000004F7574709D
:101BA000757420616E616C6F67206973206469735E
:101BB00061626C656400000000000000000000002D
:101BC000000000000000000041626F72743A204F74
:101BD000757470757420414D53454C20697320779E
:101BE000726F6E670000000000000000000000003F
:101BF000020000000157616974000000000000004D
:101C000000000000000000000000000000000000D4
:101C100000000000000000000000000000436865B4
:101C2000636B696E672074686520506F727420461C
:101C300020616E616C6F6720656E61626C652072F9
:101C400065672E0000000000140000000200000084
:101C500028550240020000000A00000000000000B9
:101C60000000000000000000000000000000000074
:101C70000000000000000000000000000000000064
:101C80000000000000000000506F727420462061C8
:101C90006E616C6F672069732064697361626C6543
:101CA00064000000000000000000000000000000D0
:101CB0000000000041626F72743A20506F7274200D
:101CC0004620414D53454C2069732077726F6E67F3
:101CD0000000000000000000000000000300000001
:101CE000015761697400000000000000000000005E
:101CF00000000000000000000000000000000000E4
:101D0000000000000000000000436865636B696E1E
:101D1000672074686520696E70757420706F7274C6
:101D200020636F6E74726F6C207265672E00000006
:101D30000000000014000000000000002C0500005E
:101D40000000000000FF0F00FF0F00000000000077
:101D500000000000FF0F0000000000000000000075
:101D60000000000000000000000000000000000073
:101D700000000000496E707574205043544C20736D
:101D8000657420666F72204750494F0000000000C4
:101D90000000000000000000000000000000000043
:101DA00041626F72743A20496E70757420504354CA
:101DB0004C2069732077726F6E670000000000008E
:101DC00000000000000000000400000001576169ED
:101DD000740000000000000000000000000000008F
:101DE00000000000000000000000000000000000F3
:101DF0000000000000436865636B696E67207468CB
:101E000065206F757470757420706F727420636FC5
:101E10006E74726F6C207265672E00000000000007
:101E200014000000010000002C050000010000006B
:101E300000FFFFFFFFFFFF000000000000000000A8
:101E4000FFFFFF0000000000000000000000000095
:101E50000000000000000000000000000000000082
:101E60004F7574707574205043544C207365742002
:101E7000666F72204750494F0000000000000000CC
:101E800000000000000000000000000041626F72CE
:101E9000743A204F7574707574205043544C206907
:101EA000732077726F6E6700000000000000000072
:101EB000000000000000000001576169740000008C
:101EC0000000000000000000000000000000000012
:101ED0000000000000000000000000000000000002
:101EE00000436865636B696E672074686520506F96
:101EF0007274204620706F727420636F6E74726FFC
:101F00006C207265672E00000000000014000000C5
:101F1000020000002C55024002000000F0F000001A
:101F200000000000000000000000000000000000B1
:101F300000000000000000000000000000000000A1
:101F4000000000000000000000000000506F7274EC
:101F50002046205043544C2073657420666F7220D5
:101F60004750494F00000000000000000000000042
:101F7000000000000000000041626F72743A2050BF
:101F80006F72742046205043544C2069732077723E
:101F90006F6E6700000000000000000000000000FD
:101FA000000000000157616974000000000000009B
:101FB0000000000000000000000000000000000021
:101FC0000000000000000000000000000043686501
:101FD000636B696E672074686520696E7075742024
:101FE000646972656374696F6E2072656769737482
:101FF00065720000000000001400000000000000F6
:1020000000040000000000001C00000007000000A9
:1020100000000000000000000700000000000000B9
:1020200000000000000000000000000000000000B0
:102030000000000000000000496E707574206469A3
:1020400072656374696F6E206973204F4B000000E6
:102050000000000000000000000000000000000080
:102060000000000041626F72743A20496E7075740E
:1020700020646972656374696F6E2069732077727A
:102080006F6E67000000000000000000000000000C
:1020900001576169740000000000000000000000AA
:1020A0000000000000000000000000000000000030
:1020B000000000000000000000436865636B696E6B
:1020C0006720746865206F75747075742064697218
:1020D000656374696F6E20726567697374657200F9
:1020E00000000000140000000100000000040000D7
:1020F00001000000FC0000003F00000000000000A4
:10210000000000003F00000000000000FC00000094
:102110003F00000000000000000000003F00000041
:10212000000000004F7574707574206469726563F7
:1021300074696F6E206973204F4B0000000000002F
:10214000000000000000000000000000000000008F
:1021500041626F72743A204F7574707574206469AF
:1021600072656374696F6E2069732077726F6E6732
:10217000000000000000000000000000015761693D
:1021800074000000000000000000000000000000DB
:10219000000000000000000000000000000000003F
:1021A0000000000000436865636B696E6720746817
:1021B0006520506F7274204620646972656374698B
:1021C0006F6E2072656769737465720000000000AD
:1021D0001400000002000000005402400200000051
:1021E0000A000000000000000000000000000000E5
:1021F00000000000000000000A00000000000000D5
:1022000000000000000000000000000000000000CE
:10221000506F7274204620646972656374696F6ED2
:10222000206973204F4B00000000000000000000F8
:1022300000000000000000000000000041626F721A
:10224000743A20506F72742046206469726563741A
:10225000696F6E2069732077726F6E6700000000EF
:1022600000000000000000000157616974000000D8
:10227000000000000000000000000000000000005E
:10228000000000000000000000000000000000004E
:1022900000436865636B696E672074686520696ECA
:1022A00070757420616C742E2066756E63742E20B8
:1022B00072656769737465720000000014000000A5
:1022C0000000000020040000000000001C000000CE
:1022D00007000000000000000000000007000000F0
:1022E00000000000000000000000000000000000EE
:1022F000000000000000000000000000496E707542
:102300007420414653454C206973204F4B00000018
:1023100000000000000000000000000000000000BD
:10232000000000000000000041626F72743A204912
:102330006E70757420414653454C20697320777246
:102340006F6E670000000000000000000000000049
:1023500000000000015761697400000000000000E7
:10236000000000000000000000000000000000006D
:10237000000000000000000000000000004368654D
:10238000636B696E6720746865206F75747075740F
:1023900020616C742E2066756E63742E20726567E2
:1023A0002E000000000000001400000001000000EA
:1023B0002004000001000000FC0000003F000000BD
:1023C00000000000000000003F00000000000000CE
:1023D00000000000000000000000000000000000FD
:1023E00000000000000000004F75747075742041FB
:1023F0004653454C206973204F4B000000000000FD
:1024000000000000000000000000000000000000CC
:102410000000000041626F72743A204F757470754D
:102420007420414653454C2069732077726F6E6764
:10243000000000000000000000000000000000009C
:1024400001576169740000000000000000000000F6
:10245000000000000000000000000000000000007C
:10246000000000000000000000436865636B696EB7
:10247000672074686520506F7274204620616C7408
:102480002E2066756E63742E207265672E00000024
:102490000000000014000000020000002054024070
:1024A000020000000A000000000000000000000020
:1024B000000000000000000000000000000000001C
:1024C000000000000000000000000000000000000C
:1024D00000000000506F7274204620414653454C66
:1024E000206973204F4B0000000000000000000036
:1024F00000000000000000000000000000000000DC
:1025000041626F72743A20506F72742046204146C7
:1025100053454C2069732077726F6E67000000008E
:102520000000000000000000000000000157616989
:102530007400000000000000000000000000000027
:10254000000000000000000000000000000000008B
:102550000000000000436865636B696E6720746863
:102560006520696E7075742070756C6C7570207262
:102570006567697374657200000000000000000068
:102580001400000000000000100500000000000022
:102590001C00000007000000000000000000000018
:1025A0000700000000000000000000000000000024
:1025B000000000000000000000000000000000001B
:1025C000496E7075742070756C6C2075702069731D
:1025D000204F4B0000000000000000000000000041
:1025E00000000000000000000000000041626F7267
:1025F000743A20496E7075742050555220697320CA
:1026000077726F6E6700000000000000000000009D
:102610000000000000000000015761697400000024
:1026200000000000000000000000000000000000AA
:10263000000000000000000000000000000000009A
:1026400000436865636B696E6720746865206F7509
:10265000747075742070756C6C7570207265676924
:102660007374657200000000000000001400000098
:10267000010000001005000001000000FC00000047
:102680003F00000000000000000000003F000000CC
:10269000000000000000000000000000000000003A
:1026A0000000000000000000000000004F75747082
:1026B00075742070756C6C207570206973204F4B99
:1026C000000000000000000000000000000000000A
:1026D000000000000000000041626F72743A204F59
:1026E0007574707574205055522069732077726F1D
:1026F0006E67000000000000000000000000000005
:102700000000000001576169740000000000000033
:1027100000000000000000000000000000000000B9
:102720000000000000000000000000000043686599
:10273000636B696E672074686520506F7274204601
:102740002070756C6C757020726567697374657242
:102750000000000000000000140000000200000063
:1027600010550240020000000A00000000000000B6
:102770000000000000000000000000000000000059
:102780000000000000000000000000000000000049
:102790000000000000000000506F7274204620709E
:1027A000756C6C207570206973204F4B0000000021
:1027B0000000000000000000000000000000000019
:1027C0000000000041626F72743A20506F727420F2
:1027D00046205055522069732077726F6E67000053
:1027E00000000000000000000000000000000000E9
:1027F0000157616974000000000000000000000043
:1028000000000000000000000000000000000000C8
:10281000000000000000000000436865636B696E03
:10282000672074686520696E7075742070756C6CB3
:10283000646F776E2072656769737465720000005B
:10284000000000001400000000000000140500005B
:10285000000000001C000000070000000000000055
:102860000000000007000000000000000000000061
:102870000000000000000000000000000000000058
:1028800000000000496E7075742070756C6C2064D7
:102890006F776E206973204F4B000000000000002E
:1028A0000000000000000000000000000000000028
:1028B00041626F72743A20496E70757420504452B0
:1028C0002069732077726F6E672C207573652065A1
:1028D000787465726E616C000000000001576169D8
:1028E0007400000000000000000000000000000074
:1028F00000000000000000000000000000000000D8
:102900000000000000436865636B696E67207468AF
:1029100065206F75747075742070756C6C646F775A
:102920006E207265676973746572000000000000B4
:102930001400000001000000140500000100000068
:10294000FC0000003F00000000000000000000004C
:102950003F00000000000000000000000000000038
:102960000000000000000000000000000000000067
:102970004F75747075742070756C6C20646F776E11
:10298000206973204F4B0000000000000000000091
:1029900000000000000000000000000041626F72B3
:1029A000743A204F757470757420504452206973C6
:1029B0002077726F6E6700000000000000000000CA
:1029C0000000000000000000015761697400000071
:1029D00000000000000000000000000000000000F7
:1029E00000000000000000000000000000000000E7
:1029F00000436865636B696E672074686520506F7B
:102A0000727420462070756C6C646F776E207265EE
:102A10006769737465720000000000001400000014
:102A20000200000014550240020000000A000000ED
:102A30000000000000000000000000000000000096
:102A40000000000000000000000000000000000086
:102A5000000000000000000000000000506F7274D1
:102A600020462070756C6C20646F776E206973202F
:102A70004F4B0000000000000000000000000000BC
:102A8000000000000000000041626F72743A2050A4
:102A90006F72742046205044522069732077726F01
:102AA0006E67000000000000000000000000000051
:102AB0000000000001576169740000000000000080
:102AC0000000000000000000000000000000000006
:102AD00000000000000000000000000000436865E6
:102AE000636B696E672074686520696E7075742009
:102AF0006469676974616C20656E61626C652072DF
:102B000065672E00000000001400000000000000B7
:102B10001C050000000000001C0000000700000071
:102B2000000000000000000007000000000000009E
:102B30001C00000007000000000000000000000072
:102B40000700000000000000496E707574204445C5
:102B50004E206973204F4B00000000000000000071
:102B60000000000000000000000000000000000065
:102B70000000000041626F72743A20496E707574F3
:102B80002044454E2069732077726F6E6700000005
:102B90000000000000000000000000000000000035
:102BA000015761697400000000000000000000008F
:102BB0000000000000000000000000000000000015
:102BC000000000000000000000436865636B696E50
:102BD0006720746865206F75747075742064696708
:102BE0006974616C20656E61626C65207265672E28
:102BF0000000000014000000010000001C0500009F
:102C000001000000FC0000003F0000000000000088
:102C1000000000003F00000000000000FC00000079
:102C20003F00000000000000000000003F00000026
:102C3000000000004F75747075742044454E206983
:102C400073204F4B00000000000000000000000057
:102C50000000000000000000000000000000000074
:102C600041626F72743A204F7574707574204445D8
:102C70004E2069732077726F6E67000000000000BD
:102C80000000000000000000000000000157616922
:102C900074000000000000000000000000000000C0
:102CA0000000000000000000000000000000000024
:102CB0000000000000436865636B696E67207468FC
:102CC0006520506F72742046206469676974616C76
:102CD00020656E61626C65207265672E00000000E1
:102CE00014000000020000001C5502400200000019
:102CF0000A000000000000000000000000000000CA
:102D000000000000000000000A00000000000000B9
:102D100000000000000000000000000000000000B3
:102D20004C616220313020696E6974206973204FD4
:102D30004B00000000000000000000000000000048
:102D400000000000000000000000000041626F72FF
:102D5000743A20506F727420462044454E206973A7
:102D60002077726F6E670000000000000000000016
:102D700000000000000000000052656C6561736592
:102D800020416C6C205377697463686573000000A0
:102D90000000000000000000000000000000000033
:102DA00000436865636B696E6720616C6C207377A4
:102DB0006974636865732072656C6561736564002E
:102DC000000000000000000000000000E803000018
:102DD00000000000FC030000000000001C000000D8
:102DE00007000000000000000000000007000000D5
:102DF00000000000000000000000000000000000D3
:102E0000000000000000000000000000416C6C2089
:102E100073776974636865732072656C6561736547
:102E2000640000000000000000000000000000003E
:102E30000000000000000000416C6C207377697492
:102E400063686573206E657665722072656C656176
:102E50007365640000000000000000000000000036
:102E600000000000005075736820616E6420486F98
:102E70006C6420576573742053776974636800002D
:102E80000000000000000000000000000043686532
:102E9000636B696E672077657374207377697463F9
:102EA00068207072657373656400000000000000A4
:102EB0000000000000000000E80300000000000027
:102EC000FC030000000000001C00000007000000E0
:102ED00000000000000000000700000000000000EB
:102EE00004000000010000000000000000000000DD
:102EF000010000000000000057657374626F756E7A
:102F0000642063617220617070726F616368696EC2
:102F1000670000000000000000000000000000004A
:102F20000500000057657374207377697463682027
:102F30006E6576657220707265737365640000005B
:102F40000000000000000000000000000000000081
:102F5000005075736820616E6420486F6C64205760
:102F60006573742053776974636800000000000083
:102F7000000000000000000000436865636B696E9C
:102F800067207765737420677265656E2F736F7540
:102F900074682072656400000000000000000000FA
:102FA00000000000B80B000001000000FC0300005E
:102FB00001000000FC0000003F00000000000000D5
:102FC000000000003F000000000000003000000092
:102FD0000C00000000000000000000000C000000D9
:102FE0000000000057657374206C6967687420697D
:102FF0007320677265656E0000000000000000002D
:1030000000000000000000000000000005000000BB
:1030100057657374206E6576657220677265656E9C
:103020002F736F757468206E6576657220726564A3
:103030000000000000000000000000000050757358
:103040006820616E6420486F6C6420536F757468EB
:1030500020537769746368000000000000000000DE
:103060000000000000436865636B696E6720736F42
:103070007574682073776974636820707265737300
:103080006564000000000000000000000000000077
:10309000E803000000000000FC0300000000000046
:1030A0001C000000070000000000000000000000FD
:1030B00007000000000000000800000002000000FF
:1030C00000000000000000000200000000000000FE
:1030D000536F757468626F756E64206361722061EE
:1030E0007070726F616368696E67000000000000B5
:1030F000000000000000000005000000536F757420
:103100006820737769746368206E657665722070D5
:103110007265737365640000000000000000000029
:103120000000000000000000005075736820616E10
:103130006420486F6C6420536F75746820537769FE
:103140007463680000000000000000000000000040
:1031500000436865636B696E6720776573742079D7
:10316000656C6C6F772F736F75746820726564007F
:10317000000000000000000000000000E803000064
:1031800001000000FC03000001000000FC00000042
:103190003F00000000000000000000003F000000B1
:1031A00000000000500000001400000000000000BB
:1031B0000000000014000000000000005765737458
:1031C000206C696768742069732079656C6C6F770F
:1031D00000000000000000000000000000000000EF
:1031E000000000000500000057657374206E6576CE
:1031F00065722079656C6C6F772F736F75746820BA
:103200006E65766572207265640000000000000043
:1032100000000000005075736820616E6420486FE4
:103220006C6420536F757468205377697463680009
:10323000000000000000000000000000004368657E
:10324000636B696E672077657374207265642F7392
:103250006F75746820677265656E0000000000007D
:103260000000000000000000E80300000100000072
:10327000FC03000001000000FC0000003F00000013
:1032800000000000000000003F00000000000000FF
:103290008400000021000000000000000000000089
:1032A0002100000000000000536F757468206C69F5
:1032B00067687420697320677265656E000000009E
:1032C00000000000000000000000000000000000FE
:1032D0000500000057657374206E65766572207274
:1032E00065642F736F757468206E657665722067EC
:1032F0007265656E00000000000000000000000024
:10330000005075736820616E6420486F6C642057AC
:1033100065737420537769746368000000000000CF
:10332000000000000000000000436865636B696EE8
:10333000672077657374207377697463682070728F
:103340006573736564000000000000000000000069
:1033500000000000E803000000000000FC03000083
:10336000000000001C00000007000000000000003A
:103370000000000007000000000000000400000042
:10338000010000000000000000000000010000003B
:103390000000000057657374626F756E642063618E
:1033A0007220617070726F616368696E67000000FF
:1033B0000000000000000000000000000500000008
:1033C0005765737420737769746368206E657665DA
:1033D0007220707265737365640000000000000065
:1033E00000000000000000000000000000507573A5
:1033F0006820616E6420486F6C6420576573742088
:10340000537769746368000000000000000000004A
:103410000000000000436865636B696E6720776594
:103420007374207265642F736F7574682079656C8E
:103430006C6F77000000000000000000000000003A
:10344000E803000001000000FC0300000100000090
:10345000FC0000003F000000000000000000000031
:103460003F00000000000000880000002200000073
:10347000000000000000000022000000000000002A
:10348000536F757468206C6967687420697320795C
:10349000656C6C6F77000000000000000000000009
:1034A0000000000000000000050000005765737474
:1034B000206E65766572207265642F736F7574680F
:1034C000206E657665722079656C6C6F7700000000
:1034D0000000000000000000005075736820616E5D
:1034E0006420486F6C642057657374205377697447
:1034F0006368000000000000000000000000000001
:1035000000436865636B696E672077657374206735
:103510007265656E2F736F75746820726564000044
:10352000000000000000000000000000E8030000B0
:1035300001000000FC03000001000000FC0000008E
:103540003F00000000000000000000003F000000FD
:1035500000000000300000000C000000000000002F
:10356000000000000C0000000000000057657374AC
:10357000206C6967687420697320677265656E00E6
:10358000000000000000000000000000000000003B
:10359000000000000500000057657374206E65761A
:1035A000657220677265656E2F736F757468206E23
:1035B00065766572207265640000000000000000FE
:1035C00000000000005075736820616E6420486F31
:1035D0006C642057616C6B205377697463680000DA
:1035E00000000000000000000000000000436865CB
:1035F000636B696E672077616C6B207377697463A6
:10360000682070726573736564000000000000003C
:103610000000000000000000E803000000000000BF
:10362000FC030000000000001C0000000700000078
:103630000000000000000000070000000000000083
:103640001000000004000000000000000000000066
:103650000400000000000000506564657374726926
:10366000616E20617070726F616368696E670000DF
:10367000000000000000000000000000000000004A
:103680000500000057616C6B2073776974636820D4
:103690006E657665722070726573736564000000F4
:1036A000000000000000000000000000000000001A
:1036B000005075736820616E6420486F6C642057F9
:1036C000616C6B2053776974636800000000000030
:1036D000000000000000000000436865636B696E35
:1036E0006720776573742079656C6C6F772F736FC3
:1036F000757468207265640000000000000000001E
:1037000000000000E803000001000000FC030000CE
:1037100001000000FC0000003F000000000000006D
:10372000000000003F00000000000000500000000A
:103730001400000000000000000000001400000061
:103740000000000057657374206C69676874206915
:10375000732079656C6C6F7700000000000000003A
:103760000000000000000000000000000500000054
:1037700057657374206E657665722079656C6C6F21
:10378000772F736F757468206E6576657220726529
:10379000640000000000000000000000005075738D
:1037A0006820616E6420486F6C642057616C6B20E8
:1037B0005377697463680000000000000000000097
:1037C0000000000000436865636B696E67207765E1
:1037D0007374207265642F736F75746820726564EA
:1037E00000000000000000000000000000000000D9
:1037F000E803000001000000FC03000001000000DD
:10380000FC0000003F00000000000000000000007D
:103810003F000000000000009000000024000000B5
:103820000000000000000000240000000000000074
:10383000416C6C20636172207472616666696320FA
:103840006C69676874732072656400000000000092
:1038500000000000000000000500000057657374C0
:10386000206E65766572207265642F736F7574685B
:10387000206E6576657220726564000000000000AD
:103880000000000000000000005075736820616EA9
:103890006420486F6C642057616C6B2053776974A7
:1038A000636800000000000000000000000000004D
:1038B00000436865636B696E67202277616C6B22D9
:1038C000206C69676874206F6E00000000000000C3
:1038D000000000000000000000000000E8030000FD
:1038E00002000000FC530240020000000A00000039
:1038F00000000000000000000000000000000000C8
:1039000000000000080000000000000000000000AF
:103910000000000000000000000000002277616C41
:103920006B22206C69676874206973206F6E0000D9
:103930000000000000000000000000000000000087
:1039400000000000050000002277616C6B22206CF3
:1039500069676874206E65766572206F6E0000007E
:103960000000000000000000000000000000000057
:1039700000000000005075736820616E6420486F7D
:103980006C6420416C6C20537769746368657300C4
:103990000000000000000000000000000043686517
:1039A000636B696E6720616C6C2073776974636800
:1039B0006573207072657373656400000000000019
:1039C0000000000000000000E8030000000000000C
:1039D000FC030000000000001C00000007000000C5
:1039E00000000000000000000700000000000000D0
:1039F0001C000000070000000000000000000000A4
:103A00000700000000000000416C6C206C616E65D6
:103A1000732077616E7420746F2063726F7373000C
:103A20000000000000000000000000000000000096
:103A300005000000416C6C207377697463686573DE
:103A4000206E657665722070726573736564000020
:103A50000000000000000000000000000000000066
:103A6000005075736820616E6420486F6C6420415B
:103A70006C6C205377697463686573000000000004
:103A8000000000000000000000436865636B696E81
:103A9000672077657374207265642F736F7574681F
:103AA00020726564000000000000000000000000BB
:103AB00000000000E803000001000000FC0300001B
:103AC00001000000FC0000003F00000000000000BA
:103AD000000000003F000000000000009000000017
:103AE000240000000000000000000000240000008E
:103AF00000000000416C6C2063617220747261668A
:103B0000666963206C69676874732072656400007D
:103B100000000000000000000000000005000000A0
:103B200057657374206E65766572207265642F73B5
:103B30006F757468206E657665722072656400002A
:103B4000000000000000000000000000005075733D
:103B50006820616E6420486F6C6420416C6C205357
:103B6000776974636865730000000000000000005E
:103B70000000000000436865636B696E6720226483
:103B80006F6E27742077616C6B22206C6967687494
:103B9000206F6E0000000000000000000000000028
:103BA000E803000002000000FC5302400200000095
:103BB0000A000000000000000000000000000000FB
:103BC00000000000000000000200000000000000F3
:103BD00000000000000000000000000000000000E5
:103BE00022646F6E27742077616C6B22206C69678A
:103BF0006874206973206F6E0000000000000000F0
:103C000000000000000000000500000022646F6E4C
:103C100027742077616C6B22206C69676874206E52
:103C200065766572206F6E000000000000000000E5
:103C30000000000000000000005075736820616EF5
:103C40006420486F6C6420416C6C20537769746306
:103C50006865730000000000000000000000000024
:103C600000436865636B696E672022646F6E27741A
:103C70002077616C6B22206C69676874206F6666C0
:103C8000000000000000000000000000E803000049
:103C900002000000FC530240020000000A00000085
:103CA0000000000000000000000000000000000014
:103CB0000000000000000000000000000000000004
:103CC00000000000000000000000000022646F6E91
:103CD00027742077616C6B22206C69676874206997
:103CE00073206F6666000000000000000000000006
:103CF000000000000500000022646F6E277420772A
:103D0000616C6B22206C69676874206E6F7420662A
:103D10006C617368696E67000000000000000000BD
:103D200000000000005075736820616E6420486FC9
:103D30006C6420416C6C2053776974636865730010
:103D40000000000000000000000000000043686563
:103D5000636B696E672022646F6E27742077616CD5
:103D60006B22206C69676874206F6E000000000091
:103D70000000000000000000E80300000200000056
:103D8000FC530240020000000A0000000000000096
:103D90000000000000000000000000000000000023
:103DA0000200000000000000000000000000000011
:103DB000000000000000000022646F6E277420776E
:103DC000616C6B22206C69676874206973206F6E68
:103DD00000000000000000000000000000000000E3
:103DE0000500000022646F6E27742077616C6B22DF
:103DF000206C69676874206E6F7420666C617368EC
:103E0000696E670000000000000000000000000074
:103E1000005075736820616E6420486F6C642041A7
:103E20006C6C205377697463686573000000000050
:103E3000000000000000000000436865636B696ECD
:103E400067207765737420677265656E2F736F7571
:103E5000746820726564000000000000000000002B
:103E600000000000B80B000001000000FC0300008F
:103E700001000000FC0000003F0000000000000006
:103E8000000000003F0000000000000030000000C3
:103E90000C00000000000000000000000C0000000A
:103EA0000000000057657374206C696768742069AE
:103EB0007320677265656E0000000000000000005E
:103EC00000000000000000000000000005000000ED
:103ED00057657374206E6576657220677265656ECE
:103EE0002F736F757468206E6576657220726564D5
:103EF000000000000000000000000000005075738A
:103F00006820616E6420486F6C6420416C6C2053A3
:103F100077697463686573000000000000000000AA
:103F20000000000000436865636B696E6720776579
:103F30007374207265642F736F757468206772657F
:103F4000656E00000000000000000000000000009E
:103F5000B80B000001000000FC030000010000009D
:103F6000FC0000003F000000000000000000000016
:103F70003F0000000000000084000000210000005D
:103F80000000000000000000210000000000000010
:103F9000536F757468206C69676874206973206753
:103FA0007265656E00000000000000000000000067
:103FB0000000000000000000050000005765737459
:103FC000206E65766572207265642F736F757468F4
:103FD000206E6576657220677265656E0000000070
:103FE0000000000000000000005075736820616E42
:103FF0006420486F6C6420416C6C20537769746353
:104000006865730000000000000000000000000070
:1040100000436865636B696E67202277616C6B2271
:10402000206C69676874206F6E000000000000005B
:10403000000000000000000000000000B80B0000BD
:1040400002000000FC530240020000000A000000D1
:104050000000000000000000000000000000000060
:104060000000000008000000000000000000000048
:104070000000000000000000000000002277616CDA
:104080006B22206C69676874206973206F6E000072
:104090000000000000000000000000000000000020
:1040A00000000000050000002277616C6B22206C8C
:1040B00069676874206E65766572206F6E00000017
:1040C00000000000000000000000000000000000F0
:1040D0000000000001000000FC03000001000000DF
:1040E00004000000010000000000000000000000CB
:1040F00001000000000000000400000001000000BA
:1041000000000000000000000100000000000000AE
:1041100000020000FC530240020000000800000002
:10412000000000000000000000000000000000008F
:104130000000000008000000000000000000000077
:1041400000000000000000000000000041626F72EB
:10415000743A2043726173682120477265656E2648
:1041600077616C6B2073696D756C74616E656F75CA
:104170007300000001000000FC03000001000000CB
:104180002000000008000000000000000000000007
:1041900008000000000000002000000008000000EF
:1041A0000000000000000000080000000000000007
:1041B00000020000FC530240020000000800000062
:1041C00000000000000000000000000000000000EF
:1041D00000000000080000000000000000000000D7
:1041E00000000000000000000000000041626F724B
:1041F000743A2043726173682120477265656E26A8
:1042000077616C6B2073696D756C74616E656F7529
:104210007300000001000000FC030000010000002A
:104220000800000002000000000000000000000084
:104230000200000000000000080000000200000072
:10424000000000000000000002000000000000006C
:1042500000020000FC5302400200000008000000C1
:10426000000000000000000000000000000000004E
:104270000000000008000000000000000000000036
:1042800000000000000000000000000041626F72AA
:10429000743A204372617368212059656C6C6F77A2
:1042A0002677616C6B2073696D756C74616E656FD8
:1042B0007573000001000000FC0300000100000015
:1042C000400000001000000000000000000000009E
:1042D000100000000000000040000000100000007E
:1042E00000000000000000001000000000000000BE
:1042F00000020000FC530240020000000800000021
:1043000000000000000000000000000000000000AD
:104310000000000008000000000000000000000095
:1043200000000000000000000000000041626F7209
:10433000743A204372617368212059656C6C6F7701
:104340002677616C6B2073696D756C74616E656F37
:10435000757300000200000008E10F40010000003A
:10436000010000000200000000000000000000004A
:10437000100000000000000001000000020000002A
:10438000000000000000000010000000000000001D
:1043900000010000FC0300000100000024000000F8
:1043A00009000000000000000000000009000000FB
:1043B00000000000240000000900000000000000D0
:1043C00000000000090000000000000041626F7260
:1043D000743A2043726173682120477265656E20CC
:1043E000696E20626F746820646972656374696FB6
:1043F0006E7300000200000008E10F4001000000A1
:1044000001000000020000000000000000000000A9
:104410001000000000000000010000000200000089
:10442000000000000000000010000000000000007C
:1044300000010000FC030000010000002800000053
:104440000A00000000000000000000000A00000058
:1044500000000000280000000A000000000000002A
:10446000000000000A0000000000000041626F72BE
:10447000743A2043726173682120477265656E2625
:1044800079656C6C6F772073696D756C74616E659E
:104490006F7573000200000008E10F40010000008A
:1044A0000100000002000000000000000000000009
:1044B00010000000000000000100000002000000E9
:1044C00000000000000000001000000000000000DC
:1044D00000010000FC030000010000004400000097
:1044E00011000000000000000000000011000000AA
:1044F0000000000044000000110000000000000067
:1045000000000000110000000000000041626F7216
:10451000743A2043726173682120477265656E2684
:1045200079656C6C6F772073696D756C74616E65FD
:104530006F7573000200000008E10F4001000000E9
:104540000100000002000000000000000000000068
:104550001000000000000000010000000200000048
:10456000000000000000000010000000000000003B
:1045700000010000FC0300000100000048000000F2
:104580001200000000000000000000001200000007
:1045900000000000480000001200000000000000C1
:1045A00000000000120000000000000041626F7275
:1045B000743A204372617368212059656C6C6F777F
:1045C00020696E20626F7468206469726563746923
:1045D0006F6E73000200000008E10F400100000050
:1045E00001000000020000000000000000000000C8
:1045F00010000000000000000100000002000000A8
:10460000000000000000000010000000000000009A
:1046100000010000FC03000001000000C0000000D9
:10462000300000000000000000000000300000002A
:1046300000000000C000000030000000000000008A
:1046400000000000300000000000000041626F72B6
:10465000743A2057657374207265642679656C6CB2
:104660006F772073696D756C74616E656F7573001B
:10467000000000000200000008E10F4001000000FF
:104680000100000002000000000000000000000027
:104690001000000000000000010000000200000007
:1046A00000000000000000001000000000000000FA
:1046B00000010000FC03000001000000A000000059
:1046C000280000000000000000000000280000009A
:1046D00000000000A0000000280000000000000012
:1046E00000000000280000000000000041626F721E
:1046F000743A205765737420726564266772656525
:104700006E2073696D756C74616E656F75730000F2
:10471000000000000200000008E10F40010000005E
:104720000100000002000000000000000000000086
:104730001000000000000000010000000200000066
:104740000000000000000000100000000000000059
:1047500000010000FC0300000100000060000000F8
:104760001800000000000000000000001800000019
:1047700000000000600000001800000000000000C1
:1047800000000000180000000000000041626F728D
:10479000743A20576573742079656C6C6F7726675F
:1047A0007265656E2073696D756C74616E656F7589
:1047B000730000000200000008E10F40010000004B
:1047C00001000000020000000000000000000000E6
:1047D00010000000000000000100000002000000C6
:1047E00000000000000000001000000000000000B9
:1047F00000010000FC0300000100000018000000A0
:10480000060000000000000000000000060000009C
:10481000000000001800000006000000000000007A
:1048200000000000060000000000000041626F72FE
:10483000743A20536F757468207265642679656CCC
:104840006C6F772073696D756C74616E656F7573CD
:10485000000000000200000008E10F40010000001D
:104860000100000002000000000000000000000045
:104870001000000000000000010000000200000025
:104880000000000000000000100000000000000018
:1048900000010000FC030000010000001400000003
:1048A00005000000000000000000000005000000FE
:1048B00000000000140000000500000000000000DF
:1048C00000000000050000000000000041626F725F
:1048D000743A20536F757468207265642667726538
:1048E000656E2073696D756C74616E656F757300AC
:1048F000000000000200000008E10F40010000007D
:1049000001000000020000000000000000000000A4
:104910001000000000000000010000000200000084
:104920000000000000000000100000000000000077
:1049300000010000FC030000010000000C0000006A
:104940000300000000000000000000000300000061
:10495000000000000C000000030000000000000048
:1049600000000000030000000000000041626F72C0
:10497000743A20536F7574682079656C6C6F772674
:10498000677265656E2073696D756C74616E656FB5
:10499000757300000200000008E10F4002000000F3
:1049A00020000000000000000000000000000000E7
:1049B00000000000000000002000000000000000D7
:1049C00000000000000000000000000000000000E7
:1049D00000020000FC530240020000000A00000038
:1049E00000000000000000000000000000000000C7
:1049F000000000000A0000000000000000000000AD
:104A000000000000000000000000000041626F7222
:104A1000743A2057616C6B20616E6420446F6E277E
:104A2000742057616C6B2073696D756C74616E6571
:104A30006F757300010A05070F0C080202000000E1
:104A4000060000000300000000000000010000005C
:104A50000700000004000000050000000300000043
:104A6000040000000000000002000000060000003A
:104A70000700000001000000050000009C4A000043
:104A8000000000204C000000C0020000E84A0000C6
:104A90004C000020DC060000DC02000000000000EA
:104AA0000000000000000000000000000000000006
:104AB0000101010101010101010101008038010032
:104AC00000000000000000000000000000000000E6
:104AD00000000000000000000000000000000000D6
:084AE0000000000000000000CE
:040000050000026D88
:00000001FF
