:020000040000FA
:10000000A00600206D0200007102000073020000D3
:100010007502000077020000790200000000000075
:100020000000000000000000000000007B02000053
:100030007D020000000000007F020000810200003D
:10004000830200008302000083020000830200009C
:10005000830200008302000083020000830200008C
:10006000830200008302000083020000830200007C
:10007000830200008302000083020000830200006C
:10008000830200008302000083020000830200005C
:10009000830200008302000083020000830200004C
:1000A000830200008302000083020000830200003C
:1000B0008302000083020000D504000083020000D8
:1000C000830200008302000083020000830200001C
:1000D000830200008302000083020000830200000C
:1000E00083020000830200008302000083020000FC
:1000F00083020000830200008302000083020000EC
:1001000083020000830200008302000083020000DB
:1001100083020000830200008302000083020000CB
:1001200083020000830200008302000083020000BB
:1001300083020000830200008302000083020000AB
:1001400000000000000000000000000000000000AF
:10015000830200008302000083020000830200008B
:10016000000000000000000000000000000000008F
:10017000000000000000000000000000000000007F
:10018000000000000000000000000000000000006F
:10019000000000000000000000000000000000005F
:1001A000000000000000000000000000000000004F
:1001B0001108000083020000830200008302000097
:1001C000830200008302000083020000830200001B
:1001D000830200008302000083020000830200000B
:1001E00083020000830200008302000083020000FB
:1001F00083020000830200008302000083020000EB
:10020000830200008302000083020000000000005F
:1002100083020000830200008302000083020000CA
:1002200083020000830200008302000083020000BA
:1002300083020000830200008302000083020000AA
:10024000830200008302000083020000830200009A
:10025000830200008302000083020000830200008A
:1002600083020000830200008302000000F00AB84D
:10027000FEE7FEE7FEE7FEE7FEE7FEE7FEE7FEE756
:10028000FEE7FEE700F002F800F03AF80AA090E876
:10029000000C82448344AAF10107DA4501D100F041
:1002A0002FF8AFF2090EBAE80F0013F0010F18BFD4
:1002B000FB1A43F0010318475C1300007C13000095
:1002C000103A24BF78C878C1FAD8520724BF30C882
:1002D00030C144BF04680C60704700000023002454
:1002E00000250026103A28BF78C1FBD8520728BF46
:1002F00030C148BF0B6070471FB51FBD10B510BDA2
:1003000000F029F81146FFF7F7FF00F0F9FB00F0C5
:1003100047F803B4FFF7F2FF03BC00F04BF800000E
:1003200072B6704762B67047EFF3108072B67047CE
:1003300080F31088704730BF704702480249014A75
:10034000024B7047A0020020A0060020A00200205F
:10035000704770477047754600F028F8AE460500B4
:100360006946534620F00700854618B020B5FFF7D0
:10037000E4FFBDE820404FF000064FF000074FF0CB
:1003800000084FF0000B21F00701AC46ACE8C009B3
:10039000ACE8C009ACE8C009ACE8C0098D467047BC
:1003A0000446AFF300802046FFF7B3FF00487047D4
:1003B0003C02002001491820ABBEFEE726000200E7
:1003C0007047000008B50548009002E00098401E04
:1003D000009000980028F9D108BD00008038010085
:1003E0001848006840F020001749C1F808014FF094
:1003F000000016490860164908601648006820F099
:1004000002001449086001F10400006840F0020095
:1004100001F1040108604FF002000F4908600F4825
:10042000006840F002000D4908600D48006820F4A3
:100430007F0040F420000A4908604FF080400949DD
:100440000860704708E10F4000E00F4008000020FE
:1004500034000020045402401C5402401054024056
:100460001CE400E000E100E0F0B50646002420E0D6
:10047000701C6043C0EBC00000F004071148005737
:10048000A0F1300510480057454005F008008000F5
:1004900005F0040100EB410005F00301451885EA71
:1004A0000700413040B2094951F82410084A50541D
:1004B000641C082CDCDB002005490872084600F0AB
:1004C00085F8F0BD00020020CC150000D415000016
:1004D0000A0200200221134A11601349096811F031
:1004E000100F04D01049096811F0010F15D10F4900
:1004F000086D0F490968042907D10E490968091ACE
:100500000D4A116000210A4A11600A490860084931
:100510000968491C064A116002E00021044A116082
:10052000704700001C540240FC530240004003404E
:1005300008000020040000203400002008B51948FD
:10054000006840F020001849C1F80801154800680B
:1005500000901648164908604FF01F0001F1040191
:1005600008604FF0000001F10401086001F104018E
:1005700008604FF00E000F4908604FF000000E4970
:1005800008604FF011000D4908604FF01F000C4942
:1005900008600C48D0F8FC0320F002000A4908600B
:1005A00008BD000008E10F4000E00F404B434F4CF6
:1005B0002055024000540240205402401055024091
:1005C0001C55024000500240FC5302400146044AC0
:1005D000002002E00B5C1354401C0828FADB704733
:1005E000E80100200146044A002002E00B5C13549D
:1005F000401C0828FADB7047D001002070B5064681
:100600000D4614460A20B6FBF0F0353040B22C49B6
:1006100008700A20B6FBF0F100FB1160303040B2E8
:1006200027494870632D05D92648806C00F00700E3
:1006300000F15C050A20B5FBF0F0303040B22049F3
:1006400088700A20B5FBF0F100FB115505F1300070
:1006500040B21B49C87042F20F70844200D9002496
:100660004FF47A70B4FBF0F0303040B214490871A6
:100670004FF47A70B4FBF0F100FB11446420B4FB3A
:10068000F0F0303040B20E4948716420B4FBF0F114
:1006900000FB11440A20B4FBF0F0303040B20849AE
:1006A00088710A20B4FBF0F100FB114404F1300022
:1006B00040B20349C8710349886CFFF7D5FE70BD8D
:1006C000000200200050034000204FF0E0210861AC
:1006D0006FF07F4048610020886105200861704705
:1006E00030B504460D463048006840F030002E49D1
:1006F00008602EA0FFF776FF2F4830498862304807
:10070000C8620863486300202E4908602B490860CE
:100710002D4908602D4908602D4908602D49086061
:100720002D482E49086009202449086100204861AD
:100730002B4908602B482C4908602C4848602CA0A5
:10074000FFF744FF00202D49C86008600220486080
:10075000C01E8862002088630120C86000202849EC
:10076000C8600860022048601C480068401E88621B
:10077000002088630120486288612248006820F0D8
:10078000FF0040F040001F4908604FF080501E49B4
:1007900008604FF001001A49C860FFF721FE1B48AE
:1007A0000649C86230BD000004E60F4055542E369D
:1007B0002E30337800000000540C0000C8010020E7
:1007C000040C000020000020300000202C0000203D
:1007D0001C00002024000020007102000000002006
:1007E00018000020B40B000010000020DC0B0000FB
:1007F0002020202020202020000000000040034076
:10080000005003405CE400E008E100E02C0C000034
:1008100030B5A4480068401EA349886201204862A0
:10082000A248006828B1A1480068401E9F4908609E
:1008300030BD9F48007810F0010F22D19D4800780C
:1008400010F0010F1DD001209A49086000209A493C
:10085000086001209949086032209449086001200D
:1008600093490860002096490860964908609149BC
:1008700048619549086095488E49086348638862D5
:10088000D6E78C4800688A4908608A48007810F0EA
:10089000010F7DD0884800680B2858D30220854975
:1008A0000860002422E08A4850F8240030F0130049
:1008B00003D088487F4948633024854810F82400D5
:1008C00000F01300132803D183487A494863302489
:1008D0007F4850F824100246601C52F820008142E4
:1008E00003D17E48734948633024641C2F2CDAD32B
:1008F00007D17548006828307349086078486D4909
:100900000863704800687749884203D2764869498D
:10091000486310E06B4800687449884203D9744802
:100920006449486307E06848006828306649086001
:10093000704860490863644800685E494861084639
:100940008269614801680920FFF758FE70E75B483B
:10095000006848B300205949086057480068C0EB58
:10096000C00101EB0010644901EBC000406D634918
:10097000086051480068C0EBC00101EB00105E49FF
:1009800001EBC000001D4B4988624B48006800E045
:1009900085E0C0EBC00101EB0010574901EBC0003E
:1009A0002C304449C86243E75448006828BB424899
:1009B0000068C0EBC00101EB00104F4901EBC00023
:1009C00090303C4948633C480068C0EBC00101EBF3
:1009D0000010494951F8300018B106203549086027
:1009E0000AE035480068401C33490860012033495B
:1009F000086032202D4908601AE740480068401E10
:100A00003E4908602C480068C0EBC00101EB0010B3
:100A1000394901EBC000806D056827480068C0EBCC
:100A2000C00101EB0010344901EBC000C06D05406E
:100A300021480068C0EBC00101EB00102E4901EB1A
:100A4000C000006EA8422AD11B480068C0EBC0015C
:100A500001EB0010284901EBC00064301549086320
:100A600015480068C0EBC00101EB0010224901EB02
:100A7000C000D0F88C001449096808441249086085
:100A8000084600680B4948610B480068401C0A4949
:100A9000086001200949086032200449086000BF4D
:100AA000C6E6000000000020005003402C0000209B
:100AB00020000020C8010020300000202400002079
:100AC00008000020340000200C000020040C00006E
:100AD00000010020CC0C0000F40C00001C0D0000F4
:100AE000BC0D0000C0270900440D000040420F006B
:100AF0006C0D0000940D0000E40D000028000020A3
:100B0000002705210846FFF7EBFDFFF717FDFFF76C
:100B1000DBFD00244FF0E0208669FFF703FC33E0A3
:100B200000271A48006810F0010F04D01748006829
:100B300010F0100F0AD101271448006880F002005D
:100B40001349C1F8FC03FFF73DFC06E00F480068BD
:100B500020F002000E49C1F8FC03322C14D2012F00
:100B600012D14FF0E0208569701B20F07F400949C9
:100B700041F824000548006800F01300064941F8D8
:100B800024002E4604F10104CAE70000FC53024091
:100B900000500240380000200001002000400040CA
:100BA00000500040006000400070004000400240E3
:100BB00000500240496E7075747320617265205058
:100BC000463420616E642050463000000000000072
:100BD0000000000000000000000000004F7574706D
:100BE0007574206973205046312C20726564204C46
:100BF000454400000000000000000000000000006C
:100C000000000000200000000000000000000000C4
:100C100000000000000000000000000000000000D4
:100C20000000000000000000000000005445786152
:100C30005320697320696E697469616C697A6564AF
:100C400020666F72204C61622039000000000000B5
:100C500000000000436C69636B2047726164696E39
:100C60006720627574746F6E20746F207374617284
:100C7000742067726164696E67000000446F6E657E
:100C80002067726164696E67000000000000000068
:100C90000000000000000000000000000000000054
:100CA00000000000303132333435363738393031D6
:100CB00032333435363738393031323334353637EC
:100CC0003839303132333435363738004F6E6C793D
:100CD000206269747320342C312C3020616C6C6F6D
:100CE00077656420696E20446174615B35305D0016
:100CF00000000000526564206C69676874206F6EA4
:100D0000207768696C65206E6F20737769746368FB
:100D100020707265737365640000000041646A614D
:100D200063656E7420656C656D656E747320696EA5
:100D300020446174615B5D2061726520657175613D
:100D40006C000000466C617368696E6720746F6F99
:100D500020666173740000000000000000000000C5
:100D6000000000000000000000000000466C6173FD
:100D700068696E6720746F6F20736C6F7700000076
:100D80000000000000000000000000000000000063
:100D9000000000004C454420666C61736865732058
:100DA00077697468696E20746F6C6572616E6365D3
:100DB00000000000000000000000000041727261AD
:100DC0007920646174612070726F7065726C792033
:100DD00073657400000000000000000000000000C7
:100DE000000000000100000057616974000000006D
:100DF00000000000000000000000000000000000F3
:100E000000000000000000000000000000000000E2
:100E1000436865636B696E672074686520636C6FF7
:100E2000636B0000000000000000000000000000F4
:100E300000000000000000001400000008E10F4066
:100E40002000000020000000436C6F636B2069737A
:100E5000206F6E0000000000000000000000000095
:100E60000000000000000000000000000000000082
:100E70000000000041626F72743A20506F7274205B
:100E80004620636C6F636B206973206F6666000099
:100E90000000000000000000000000000100000051
:100EA00057616974000000000000000000000000AD
:100EB0000000000000000000000000000000000032
:100EC0000000000000000000436865636B696E6706
:100ED0002074686520646972656374696F6E0000D0
:100EE0000000000000000000000000000000000002
:100EF0001400000000540240130000000200000033
:100F0000446972656374696F6E206973204F4B008A
:100F100000000000000000000000000000000000D1
:100F200000000000000000000000000041626F723D
:100F3000743A20506F72742046206469726563743D
:100F4000696F6E2069732077726F6E670000000012
:100F500000000000010000005761697400000000FB
:100F60000000000000000000000000000000000081
:100F70000000000000000000000000000000000071
:100F8000436865636B696E672074686520616C7483
:100F900065726E6174652066756E6374696F6E202C
:100FA0007265676973746572140000002054024012
:100FB0001300000000000000414653454C206973B7
:100FC000204F4B0000000000000000000000000067
:100FD0000000000000000000000000000000000011
:100FE0000000000041626F72743A20506F727420EA
:100FF0004620414653454C2069732077726F6E67D7
:1010000000000000000000000000000001000000DF
:10101000576169740000000000000000000000003B
:1010200000000000000000000000000000000000C0
:101030000000000000000000436865636B696E6794
:10104000207468652070756C6C75702072656769B6
:1010500073746572000000000000000000000000D2
:1010600014000000105502401300000011000000A1
:1010700050756C6C207570206973204F4B00000018
:101080000000000000000000000000000000000060
:1010900000000000000000000000000041626F72CC
:1010A000743A20506F727420462050555220697354
:1010B0002077726F6E6700000000000000000000E3
:1010C000000000000100000057616974000000008A
:1010D0000000000000000000000000000000000010
:1010E0000000000000000000000000000000000000
:1010F000436865636B696E672074686520656E611F
:10110000626C652072656769737465720000000027
:101110000000000000000000140000001C55024008
:1011200013000000130000004C6162203920696E3A
:101130006974206973204F4B00000000000000001C
:10114000000000000000000000000000000000009F
:101150000A00000041626F72743A20506F7274206E
:10116000462044454E2069732077726F6E670000F9
:10117000000000000000000000000000010000006E
:101180005075736820616E6420686F6C64205357DB
:1011900031202850463429000000000000000000E3
:1011A0000000000000000000436865636B696E6723
:1011B000205357312070726573736564000000001E
:1011C000000000000000000000000000000000001F
:1011D000E8030000FC53024013000000030000007D
:1011E0004772616465722073656573206120526582
:1011F000640000000000000000000000000000008B
:1012000000000000000000000000000053573120E3
:101210006E657665722070757368656420616E64B2
:1012200020526564204C454400000000000000008E
:1012300000000000010000005075736820616E64BA
:1012400020686F6C642053573120285046342900A1
:10125000000000000000000000000000000000008E
:10126000436865636B696E67205357312070726500
:1012700073736564000000000000000000000000BF
:101280000000000000000000E8030000FC530240E2
:101290001300000001000000477261646572207352
:1012A00065657320616E206F6666000000000000B7
:1012B000000000000000000000000000000000002E
:1012C00000000000535731206E65766572207075FE
:1012D0007368656420616E64206E6F204C45440025
:1012E00000000000000000000000000001000000FD
:1012F0005075736820616E6420686F6C642053576A
:101300003220285046302900000000000000000074
:101310000000000000000000436865636B696E67B1
:1013200020535732207072657373656400000000AB
:1013300000000000000000000000000000000000AD
:10134000E8030000FC5302401300000012000000FC
:101350004772616465722073656573206120526510
:101360006400000000000000000000000000000019
:101370000000000000000000000000005357322071
:101380006E657665722070757368656420616E6441
:1013900020526564204C454400000000000000001D
:1013A00000000000010000005075736820616E6449
:1013B00020686F6C64205357322028504630290033
:1013C000000000000000000000000000000000001D
:1013D000436865636B696E6720535732207072658E
:1013E000737365640000000000000000000000004E
:1013F0000000000000000000E8030000FC53024071
:1014000013000000100000004772616465722073D1
:1014100065657320616E206F666600000000000045
:1014200000000000000000000000000000000000BC
:1014300000000000535732206E657665722070758B
:101440007368656420616E64206E6F204C454400B3
:10145000000000000000000000000000000000008C
:1014600052656C6561736520626F746820535731F3
:101470002053573220202000000000000000000010
:101480000000000000000000436865636B696E6740
:10149000207377697463682072656C656173656435
:1014A000000000000000000000000000000000003C
:1014B000E8030000FC53024013000000110000008C
:1014C000477261646572207365657320612052659F
:1014D00064000000000000000000000000000000A8
:1014E00000000000000000000A00000053573120F7
:1014F0006E657665722072656C6561736564000067
:1015000000000000000000000000000000000000DB
:101510000000000000000000507573682053572041
:10152000756E74696C20446174612066756C6C0022
:1015300000000000000000000000000000000000AB
:1015400046696C6C696E672062756666657200003C
:10155000000000000000000000000000000000008B
:101560000000000000000000E8030000FC530240FF
:10157000130000001100000052656C656173656422
:10158000000000000000000000000000000000005B
:10159000000000000000000000000000000000004B
:1015A000000000006E657665722072656C6561737F
:1015B0006564000000000000000000000000000062
:1015C000000000000000000000000000010A050704
:1015D0000F0C0802020000000600000003000000DB
:1015E00000000000010000000700000004000000EF
:1015F00005000000030000000400000000000000DF
:1016000002000000060000000700000001000000CA
:101610000500000034160000000000203800000023
:10162000C00200006C1600003800002068060000B0
:10163000DC02000080380100000000000000000013
:10164000000000000000000000000000000000009A
:10165000000000000000000000000000000000008A
:0C1660000000000000000000000000007E
:040000050000026D88
:00000001FF
