:020000040000FA
:10000000100700206D020000710200007302000062
:100010007502000077020000790200000000000075
:100020000000000000000000000000007B02000053
:100030007D020000000000007F020000810200003D
:10004000830200008302000083020000830200009C
:10005000830200008302000083020000830200008C
:10006000830200008302000083020000830200007C
:10007000830200008302000083020000830200006C
:10008000830200008302000083020000830200005C
:10009000830200008302000083020000830200004C
:1000A000830200008302000083020000830200003C
:1000B000830200008302000083020000830200002C
:1000C000830200008302000083020000830200001C
:1000D000830200008302000083020000830200000C
:1000E00083020000830200008302000083020000FC
:1000F00083020000830200008302000083020000EC
:1001000083020000830200008302000083020000DB
:1001100083020000830200008302000083020000CB
:1001200083020000830200008302000083020000BB
:1001300083020000830200008302000083020000AB
:1001400000000000000000000000000000000000AF
:1001500083020000830200004109000083020000C6
:10016000000000000000000000000000000000008F
:10017000000000000000000000000000000000007F
:10018000000000000000000000000000000000006F
:10019000000000000000000000000000000000005F
:1001A000000000000000000000000000000000004F
:1001B0006109000083020000830200008302000046
:1001C000830200008302000083020000830200001B
:1001D000830200008302000083020000830200000B
:1001E00083020000830200008302000083020000FB
:1001F00083020000830200008302000083020000EB
:10020000830200008302000083020000000000005F
:1002100083020000830200008302000083020000CA
:1002200083020000830200008302000083020000BA
:1002300083020000830200008302000083020000AA
:10024000830200008302000083020000830200009A
:10025000830200008302000083020000830200008A
:1002600083020000830200008302000000F00AB84D
:10027000FEE7FEE7FEE7FEE7FEE7FEE7FEE7FEE756
:10028000FEE7FEE700F002F800F03AF80AA090E876
:10029000000C82448344AAF10107DA4501D100F041
:1002A0002FF8AFF2090EBAE80F0013F0010F18BFD4
:1002B000FB1A43F00103184774270000942700003D
:1002C000103A24BF78C878C1FAD8520724BF30C882
:1002D00030C144BF04680C60704700000023002454
:1002E00000250026103A28BF78C1FBD8520728BF46
:1002F00030C148BF0B6070471FB51FBD10B510BDA2
:1003000000F029F81146FFF7F7FF00F073FE00F048
:1003100047F803B4FFF7F2FF03BC00F04BF800000E
:1003200072B6704762B67047EFF3108072B67047CE
:1003300080F31088704730BF704702480249014A75
:10034000024B70471003002010070020100300200C
:10035000704770477047754600F028F8AE460500B4
:100360006946534620F00700854618B020B5FFF7D0
:10037000E4FFBDE820404FF000064FF000074FF0CB
:1003800000084FF0000B21F00701AC46ACE8C009B3
:10039000ACE8C009ACE8C009ACE8C0098D467047BC
:1003A0000446AFF300802046FFF7B3FF00487047D4
:1003B000AC02002001491820ABBEFEE72600020077
:1003C000704700000148006870470000A890034093
:1003D00008B52948006840F008002849C1F808011C
:1003E0002548006800902448006800902448006870
:1003F00020F00800224908602248006840F0080008
:10040000204908602048006820F008001E49086064
:100410001E48006840F008001C4908601C4800683D
:1004200040F002001A4908604FF00000009002E01E
:100430000098401C009000981428F9D30120154919
:10044000086040F223101449086200200860084642
:10045000406940F470404861042008630F49086017
:100460004FF006000C49C1F8A4004FF0000088606E
:100470004FF00800086008BD08E10F4000E00F40A1
:1004800000740040207400401C7500402875004036
:1004900038E60F40C49F034000900340A090034003
:1004A00006E04FF47A5100E0491E0029FCD1401EBD
:1004B0000028F6D170470000F0B50646002420E081
:1004C000701C6043C0EBC00000F0040711480057E7
:1004D000A0F1300510480057454005F008008000A5
:1004E00005F0040100EB410005F00301451885EA21
:1004F0000700413040B2094951F82410084A5054CD
:10050000641C082CDCDB002005490872084600F05A
:10051000ABF8F0BD70020020E4290000EC290000D7
:100520007A02002000B51848006820F00200164941
:1005300008601648006820F002001449086012485C
:10054000001D006820F0F0000F49091D08600F48E9
:100550002038006840F002000C49203908600A4841
:100560000C38006840F0020007490C390860084860
:10057000006840F002000749C1F8FC034FF0640036
:10058000FFF78EFF00BD00002845024020440240D6
:10059000FC430240004002401D48006F40F0004014
:1005A0001B4908670846006F40F40060086708466A
:1005B000006E20F4F86008660846006E00F5A8603A
:1005C00008660846006F20F0700008670846006F54
:1005D00008670846006F20F4005008670846006F5F
:1005E00040F0804008670846006F20F0FE5000F1A0
:1005F0008070086700BF0648006D10F0400FFAD009
:100600000348006F20F4006001490867704700004C
:1006100000E00F401248006820F001001049086017
:100620001048006820F001000E4908600C48001DC9
:10063000006820F00F000A49091D086009482038A9
:10064000006820F0010007492039086004480C3890
:10065000006840F0010002490C3908607047000052
:1006600028450240204402400146044A002002E09E
:100670000B5C1354401C0828FADB7047580000201C
:100680000146044A002002E00B5C1354401C082879
:10069000FADB70474000002070B506460D46144650
:1006A0000A20B6FBF0F0353040B22C4908700A2021
:1006B000B6FBF0F100FB1160303040B227494870C2
:1006C000632D05D92648806C00F0070000F15C0519
:1006D0000A20B5FBF0F0303040B2204988700A2083
:1006E000B5FBF0F100FB115505F1300040B21B499C
:1006F000C87042F20F70844200D900244FF47A701F
:10070000B4FBF0F0303040B2144908714FF47A7005
:10071000B4FBF0F100FB11446420B4FBF0F0303086
:1007200040B20E4948716420B4FBF0F100FB114463
:100730000A20B4FBF0F0303040B2084988710A203A
:10074000B4FBF0F100FB114404F1300040B2034966
:10075000C8710349886CFFF7AFFE70BD70020020BE
:100760000050034070B504460D461646FFF714FFCF
:100770003C48006840F020003A4908603AA0FFF782
:100780007FFF3C483C4988623C48C8620863486334
:1007900000203B490860384908603A4908603A49F6
:1007A00008603A4908603A4908603A483A4908609E
:1007B00008203149086100204861384908603848FC
:1007C0000460384805603648006818B9364837492B
:1007D00008600AE032480068012803D134483349F0
:1007E000086002E03348314908602E48006818B9B3
:1007F00031482E4948600AE02A480068012803D1A0
:100800002E482A49486002E02D48284948602DA01A
:10081000FFF72AFF00202E49C860086002204860C8
:100820001D480068401E88620020886301204862DD
:1008300088612848006820F0FF0040F0400025490A
:1008400008604FF08050244908604FF001002049B3
:10085000C860FFF7BDFD0EB100F042F81F48064921
:10086000C86270BD04E60F4055542E362E303378E2
:1008700000000000C01100003800002070110000CE
:100880002400002034000020300000202000002040
:100890002800002000350C000C0000201C00002067
:1008A0000000002004000020801000001400002040
:1008B000D010000020110000A8100000F810000067
:1008C00048110000202020202020202000000000CF
:1008D000005003405CE400E008E100E098110000F3
:1008E00000B51348006840F030001149086000F07E
:1008F00035FB00200F49C86008600220486041F6BF
:100900003F708862002088630120486288610A483D
:10091000006820F47F0040F4600007490860402030
:10092000064908604FF001000249C86000BD0000A0
:1009300004E60F400040034044E400E008E100E02A
:10094000012004494862044800684FEA1010034936
:100950000860704700400340A890034000C000407A
:100960002DE9F043FA480068401EFA4988620120E8
:100970004862FFF727FD40F6E4414843000BF64983
:100980000860F648006830B1F4480068401EF3493A
:100990000860BDE8F083F248007810F0010F1ED126
:1009A000F048007810F0010F19D00120ED490860DF
:1009B0000020ED4908600120EC4908603220E74939
:1009C00008600120E64908600020E6494861E849DE
:1009D0000860E848E349086348638862D9E7E1486A
:1009E0000068DF490860DF48007810F0010F7DD013
:1009F000DD48006819280AD30220DA490860084651
:100A00008269DB4801680820FFF746FEC1E7D74846
:100A10000068E0B30020D5490860D348006800EBC7
:100A20008001C1EB8010D44901EB8000406DD349B7
:100A30000860CD48006800EB8001C1EB8010CE4912
:100A400001EB8000401CC7498862C748006800EB82
:100A50008001C1EB8010C84901EB80002930C149F9
:100A6000C862C148006800EB8001C1EB8010C24938
:100A700001EB8000D0F8E840002C05DD012C03DC00
:100A80000121601EBE4A1154002C09DA00E008E082
:100A9000B4F1FF3F04DB0021C4F1FF30B84A115428
:100AA00077E7B6480068E8BBAF48006800EB800114
:100AB000C1EB8010B04911F8200001281BD1AA48D1
:100AC000006800EB8001C1EB8010AB4901EB8000B6
:100AD000C030A449486306200860A3480068401C51
:100AE000A14908600120A149086000E029E2322004
:100AF0009A490860E7E09C48006800EB8001C1EB80
:100B000080109D4901EB8000C030964948639648AB
:100B10000068401C94490860012094490860322014
:100B20008E4900E001E00860CDE094480068401E76
:100B3000924908608C48006800EB8001C1EB80108E
:100B40008D4901EB800090F8580028B98D488E49F6
:100B5000096850F8215013E08348006800EB8001D9
:100B6000C1EB8010844901EB800090F85800012807
:100B700005D184488549096850F8215000E00025D6
:100B80007948006800EB8001C1EB80107A4901EBE5
:100B90008000C06D0544D5F800807348006800EB04
:100BA0008001C1EB8010744901EB800090F8600077
:100BB000E0B96D48006800EB8001C1EB80106E4920
:100BC00001EB800064307049096850F82160664884
:100BD000006800EB8001C1EB8010674901EB8000E9
:100BE0007C306949096850F821703DE05E48006832
:100BF00000EB8001C1EB80105F4901EB800090F8B1
:100C0000600001281CD15848006800EB8001C1EB4E
:100C10008010594901EB800064305C49096850F844
:100C200021605148006800EB8001C1EB80105249FF
:100C300001EB80007C305549096850F8217013E0C1
:100C40004948006800EB8001C1EB80104A4901EB84
:100C50008000466E4448006800EB8001C1EB8010C4
:100C6000454901EB8000C76F08EA0600B8422AD167
:100C70003D48006800EB8001C1EB80103E4901EB6C
:100C800080009430374908633748006800EB8001E2
:100C9000C1EB8010384901EB8000D0F8BC0034492A
:100CA0000968084432490860084600682D494861CF
:100CB0002D480068401C2C49086001202B49086021
:100CC000322026490860002438E12D48005D0128C3
:100CD0007DD104EB84002E4901EB4010007828B947
:100CE00028482949096850F821500EE004EB840097
:100CF000274901EB40100078012805D121482349FC
:100D0000096850F8215000E0002504EB84002049D8
:100D100001EB401040680544D5F8008004EB8400E6
:100D200001EB4010007AA8BB04EB840001EB4010FB
:100D30000C301549096850F8216004EB840014490F
:100D400001EB401024301049096850F821704AE046
:100D50000C000020005003401C0000203000002048
:100D6000240000203800002034000020280000204B
:100D70001000002070110000381200002C0000202C
:100D8000080000206810000000000020040000207F
:100D900044290000FFE704EB84006B4901EB40109D
:100DA000007A012814D104EB840001EB40100C30D0
:100DB0006649096850F8216004EB8400624901EB40
:100DC000401024306149096850F821700BE0B4E00C
:100DD00004EB84005C4901EB4010C66804EB84001E
:100DE00001EB4010476A08EA0600B84214D14FF000
:100DF000010904EB8400544901EB401090F83C00D9
:100E000001280BD104EB840001EB401078305049ED
:100E100048630620086001E04FF0000904EB8400FD
:100E2000494901EB401090F83C0010B9B9F1010FAD
:100E30000BDA04EB8400444901EB401090F83C00CD
:100E400001287AD1B9F1000F77D104EB84003E4933
:100E500001EB401090F83D0028B93E483E49096832
:100E600050F821500FE004EB8400374901EB4010AB
:100E700090F83D00012805D136483449096850F8FA
:100E8000215000E0002504EB84002F4901EB4010C5
:100E9000006C0544D5F8008004EB840001EB4010A1
:100EA00090F8440098B904EB840001EB40104830FE
:100EB0002949096850F8216004EB8400224901EBBC
:100EC000401060302449096850F8217027E004EB95
:100ED00084001D4901EB401090F84400012813D113
:100EE00004EB840001EB401048301849096850F8C1
:100EF000216004EB8400144901EB40106030134979
:100F0000096850F821700AE004EB84000E4901EBF7
:100F10004010866C04EB840001EB4010076E08EA79
:100F20000600B84209D104EB8400074901EB4010E8
:100F300078300749486306200860641C012CFFF6DE
:100F4000C4AE00BF25E500004429000004000020D5
:100F50003800002068100000000000201F480068D2
:100F600040F001001E49C1F804010846D0F808010C
:100F700040F00100C1F808011A48006B20F00100A0
:100F8000184908634FF02B0048624FF01A0088623E
:100F90004FF07000C8620846006B40F00100086323
:100FA0001148006840F003000F4908600F480068CE
:100FB00040F003000D4908600D48006820F0FF0074
:100FC00000F111000A490860A1F10400006820F056
:100FD0000300A1F1040108607047000004E10F4024
:100FE00000E00F4000C00040204400401C4500408D
:100FF0002C45004008B5002000900122042108463D
:10100000FFF7B0FB1448006840F010001349C1F826
:101010000801114800680090FFF7FCFAFFF782FA18
:10102000FFF780F917E00E48006810F0010F0BD0B1
:101030000B48006880F002000A49C1F8FC034FF039
:101040006400FFF72DFA06E00548006840F0020052
:101050000449C1F8FC03E6E708E10F4000E00F4057
:10106000FC4302400040024000400040005000406D
:10107000006000400070004000400240005002400C
:10108000496E707574206973205041322C20706F46
:10109000736974697665206C6F676963207377691B
:1010A00074636800000000004F75747075742069E7
:1010B00073205041332C20706F73697469766520FA
:1010C0006C6F676963204C4544000000000000001D
:1010D000496E707574206973205042302C20706FF7
:1010E000736974697665206C6F67696320737769CB
:1010F00074636800000000004F7574707574206997
:1011000073205042312C20706F73697469766520AA
:101110006C6F676963204C454400000000000000CC
:10112000496E707574206973205045302C20706FA3
:10113000736974697665206C6F676963207377697A
:1011400074636800000000004F7574707574206946
:1011500073205045312C20706F7369746976652057
:101160006C6F676963204C4544000000000000007C
:10117000200000000000000000000000000000004F
:10118000000000000000000000000000000000005F
:10119000000000000000000054457861532069738E
:1011A00020696E697469616C697A656420666F7222
:1011B000204C6162203800000000000000000000A8
:1011C000436C69636B2047726164696E6720627566
:1011D00074746F6E20746F20737461727420677200
:1011E0006164696E67000000446F6E65206772611C
:1011F00064696E670000000000000000000000004D
:1012000000000000000000000000000000000000DE
:101210003031323334353637383930313233343592
:101220003637383930313233343536373839303172
:1012300032333435363738000157616974000000A5
:10124000000000000000000000000000000000009E
:10125000000000000000000000000000000000008E
:1012600000436865636B696E672074686520544548
:101270007861535F496E6974282920696E20706116
:1012800072616D657465720000000000010000006D
:101290000200000008E10F40000000000000000014
:1012A000000000000000000000000000000000003E
:1012B000000000000000000000000000010000002D
:1012C0000100000000000000010000004669727388
:1012D0007420706172616D6574657220636F7272E3
:1012E00065637400000000000000000000000000C2
:1012F000000000000000000041626F72743A205448
:10130000457861532E6820626164206F7220666F99
:101310007220646966666572656E74206C61620035
:101320000000000001576169740000000000000027
:1013300000000000000000000000000000000000AD
:10134000000000000000000000000000004368658D
:10135000636B696E67207468652054457861535FDC
:10136000496E69742829206F757420706172616DEF
:1013700061746572000000000100000002000000BE
:1013800008E10F4001000000000000000000000024
:10139000000000000000000000000000000000004D
:1013A000000000000000000001000000010000003B
:1013B00000000000010000005365636F6E64207040
:1013C0006172616D6574657220636F7272656374BA
:1013D000000000000000000000000000000000000D
:1013E0000000000041626F72743A205445786153E6
:1013F0002E6820626164206F7220666F72206469BB
:1014000066666572656E74206C61620000000000A3
:101410000157616974000000000000000000000036
:1014200000000000000000000000000000000000BC
:10143000000000000000000000436865636B696EF7
:10144000672074686520696E70757420706F72749F
:1014500020636C6F636B0000000000000000000060
:1014600000000000140000000200000008E10F402E
:101470000000000001000000020000000000000069
:10148000000000001000000000000000010000004B
:10149000020000000000000000000000100000003A
:1014A00000000000496E70757420636C6F636B20E0
:1014B0006973206F6E000000000000000000000053
:1014C000000000000000000000000000000000001C
:1014D00041626F72743A20496E70757420706F7239
:1014E0007420636C6F636B206973206F6666000005
:1014F00000000000000000000000000001576169CA
:101500007400000000000000000000000000000067
:1015100000000000000000000000000000000000CB
:101520000000000000436865636B696E67207468A3
:1015300065206F757470757420706F727420636CA1
:101540006F636B000000000000000000000000005E
:10155000140000000200000008E10F40010000003C
:101560000100000002000000000000000000000078
:101570001000000000000000010000000200000058
:10158000000000000000000010000000000000004B
:101590004F757470757420636C6F636B2069732072
:1015A0006F6E00000000000000000000000000005E
:1015B00000000000000000000000000041626F72A7
:1015C000743A204F757470757420706F7274206354
:1015D0006C6F636B206973206F666600000000000B
:1015E0000000000000000000015761697400000065
:1015F00000000000000000000000000000000000EB
:1016000000000000000000000000000000000000DA
:1016100000436865636B696E672074686520696E56
:1016200070757420616E616C6F6720656E61626CAD
:1016300065207265672E00000000000014000000A5
:101640000000000028050000000000000400000069
:101650000100000000000000000000000100000088
:10166000000000000000000000000000000000007A
:10167000000000000000000000000000496E7075CE
:101680007420616E616C6F67206973206469736197
:10169000626C6564000000000000000000000000B3
:1016A000000000000000000041626F72743A20499F
:1016B0006E70757420414D53454C206973207772CC
:1016C0006F6E6700000000000000000000000000D6
:1016D0000000000001576169740000000000000074
:1016E00000000000000000000000000000000000FA
:1016F00000000000000000000000000000436865DA
:10170000636B696E6720746865206F75747075749B
:1017100020616E616C6F6720656E61626C6520721E
:1017200065672E00000000001400000001000000AA
:101730002805000001000000080000000200000071
:101740000000000000000000020000000000000097
:101750000000000000000000000000000000000089
:1017600000000000000000004F7574707574206167
:101770006E616C6F672069732064697361626C6568
:1017800064000000000000000000000000000000F5
:101790000000000041626F72743A204F75747075DA
:1017A0007420414D53454C2069732077726F6E67EA
:1017B0000000000000000000000000000000000029
:1017C0000157616974000000000000000000000083
:1017D0000000000000000000000000000000000009
:1017E000000000000000000000436865636B696E44
:1017F000672074686520696E70757420706F7274EC
:1018000020636F6E74726F6C207265672E0000002B
:101810000000000014000000000000002C05000083
:1018200000000000000F00000F000000000000009A
:10183000000000000F000000000000000000000099
:101840000000000000000000000000000000000098
:1018500000000000496E707574205043544C207392
:10186000657420666F72204750494F0000000000E9
:101870000000000000000000000000000000000068
:1018800041626F72743A20496E70757420504354EF
:101890004C2069732077726F6E67000000000000B3
:1018A0000000000000000000000000000157616916
:1018B00074000000000000000000000000000000B4
:1018C0000000000000000000000000000000000018
:1018D0000000000000436865636B696E67207468F0
:1018E00065206F757470757420706F727420636FEB
:1018F0006E74726F6C207265672E0000000000002D
:1019000014000000010000002C0500000100000090
:1019100000F00000F00000000000000000000000E7
:10192000F0000000000000000000000000000000C7
:1019300000000000000000000000000000000000A7
:101940004F7574707574205043544C207365742027
:10195000666F72204750494F0000000000000000F1
:1019600000000000000000000000000041626F72F3
:10197000743A204F7574707574205043544C20692C
:10198000732077726F6E6700000000000000000097
:1019900000000000000000000157616974000000B1
:1019A0000000000000000000000000000000000037
:1019B0000000000000000000000000000000000027
:1019C00000436865636B696E672074686520696EA3
:1019D00070757420646972656374696F6E207265D6
:1019E0006769737465720000000000001400000055
:1019F00000000000000400000000000004000000DF
:101A000001000000000000000000000001000000D4
:101A100000000000000000000000000000000000C6
:101A2000000000000000000000000000496E70751A
:101A30007420646972656374696F6E206973204FE6
:101A40004B0000000000000000000000000000004B
:101A5000000000000000000041626F72743A2049EB
:101A60006E70757420646972656374696F6E206945
:101A7000732077726F6E67000000000000000000A6
:101A800000000000015761697400000000000000C0
:101A90000000000000000000000000000000000046
:101AA0000000000000000000000000000043686526
:101AB000636B696E6720746865206F7574707574E8
:101AC00020646972656374696F6E207265676973FB
:101AD00074657200000000001400000001000000A6
:101AE00000040000010000000800000002000000E7
:101AF00000000000000000000200000000000000E4
:101B000008000000020000000000000000000000CB
:101B100002000000000000004F75747075742064AE
:101B20006972656374696F6E206973204F4B0000A2
:101B300000000000000000000000000000000000A5
:101B40000000000041626F72743A204F7574707526
:101B50007420646972656374696F6E20697320779D
:101B6000726F6E67000000000000000000000000BF
:101B700001576169740000000000000000000000CF
:101B80000000000000000000000000000000000055
:101B9000000000000000000000436865636B696E90
:101BA000672074686520696E70757420616C742E8E
:101BB0002066756E63742E20726567697374657232
:101BC00000000000140000000000000020040000DD
:101BD0000000000004000000010000000000000000
:101BE00000000000010000000000000000000000F4
:101BF00000000000000000000000000000000000E5
:101C000000000000496E70757420414653454C2019
:101C10006973204F4B00000000000000000000002E
:101C200000000000000000000000000000000000B4
:101C300041626F72743A20496E7075742041465348
:101C4000454C2069732077726F6E670000000000BA
:101C50000000000000000000000000000157616962
:101C60007400000000000000000000000000000000
:101C70000000000000000000000000000000000064
:101C80000000000000436865636B696E672074683C
:101C900065206F757470757420616C742E20667584
:101CA0006E63742E207265672E0000000000000035
:101CB00014000000010000002004000001000000EA
:101CC000080000000200000000000000000000000A
:101CD0000200000000000000000000000000000002
:101CE00000000000000000000000000000000000F4
:101CF0004F757470757420414653454C20697320AC
:101D00004F4B000000000000000000000000000039
:101D100000000000000000000000000041626F723F
:101D2000743A204F757470757420414653454C20A9
:101D300069732077726F6E6700000000000000007A
:101D400000000000000000000157616974000000FD
:101D50000000000000000000000000000000000083
:101D60000000000000000000000000000000000073
:101D700000436865636B696E672074686520696EEF
:101D80007075742070756C6C7570207265676973FE
:101D900074657200000000000000000014000000E4
:101DA000000000001005000000000000040000001A
:101DB0000100000000000000000000000100000021
:101DC0000000000000000000000000000000000013
:101DD000000000000000000000000000496E707567
:101DE000742070756C6C207570206973204F4B00E7
:101DF00000000000000000000000000000000000E3
:101E0000000000000000000041626F72743A204937
:101E10006E707574205055522069732077726F6E02
:101E2000670000000000000000000000000000004B
:101E3000000000000157616974000000000000000C
:101E40000000000000000000000000000000000092
:101E50000000000000000000000000000043686572
:101E6000636B696E6720746865206F757470757434
:101E70002070756C6C75702072656769737465721B
:101E8000000000000000000014000000010000003D
:101E90001005000001000000080000000200000022
:101EA0000000000000000000020000000000000030
:101EB0000000000000000000000000000000000022
:101EC00000000000000000004F75747075742070F1
:101ED000756C6C207570206973204F4B00000000FA
:101EE00000000000000000000000000000000000F2
:101EF0000000000041626F72743A204F7574707573
:101F000074205055522069732077726F6E670000FD
:101F100000000000000000000000000000000000C1
:101F2000015761697400000000000000000000001B
:101F300000000000000000000000000000000000A1
:101F4000000000000000000000436865636B696EDC
:101F5000672074686520696E7075742070756C6C8C
:101F6000646F776E20726567697374657200000034
:101F70000000000014000000000000001405000034
:101F8000000000000400000001000000000000004C
:101F90000000000001000000000000000000000040
:101FA0000000000000000000000000000000000031
:101FB00000000000496E7075742070756C6C2064B0
:101FC0006F776E206973204F4B0000000000000007
:101FD0000000000000000000000000000000000001
:101FE00041626F72743A20496E7075742050445289
:101FF0002069732077726F6E672C2075736520657A
:10200000787465726E616C000000000001576169B0
:10201000740000000000000000000000000000004C
:1020200000000000000000000000000000000000B0
:102030000000000000436865636B696E6720746888
:1020400065206F75747075742070756C6C646F7733
:102050006E2072656769737465720000000000008D
:102060001400000001000000140500000100000041
:102070000800000002000000000000000000000056
:10208000020000000000000000000000000000004E
:102090000000000000000000000000000000000040
:1020A0004F75747075742070756C6C20646F776EEA
:1020B000206973204F4B000000000000000000006A
:1020C00000000000000000000000000041626F728C
:1020D000743A204F7574707574205044522069739F
:1020E0002077726F6E6700000000000000000000A3
:1020F000000000000000000001576169740000004A
:1021000000000000000000000000000000000000CF
:1021100000000000000000000000000000000000BF
:1021200000436865636B696E672074686520696E3B
:10213000707574206469676974616C20656E616292
:102140006C65207265672E0000000000140000001E
:10215000000000001C05000000000000040000005A
:10216000010000000000000000000000010000006D
:10217000000000000400000001000000000000005A
:10218000000000000100000000000000496E7075B2
:10219000742044454E206973204F4B00000000001E
:1021A000000000000000000000000000000000002F
:1021B000000000000000000041626F72743A204984
:1021C0006E7075742044454E2069732077726F6E6F
:1021D0006700000000000000000000000000000098
:1021E0000000000001576169740000000000000059
:1021F00000000000000000000000000000000000DF
:1022000000000000000000000000000000436865BE
:10221000636B696E6720746865206F757470757480
:10222000206469676974616C20656E61626C652009
:102230007265672E0000000014000000010000001D
:102240001C05000001000000080000000200000062
:10225000000000000000000002000000000000007C
:102260000800000002000000000000000000000064
:1022700002000000000000004C6162203820696EFE
:102280006974206973204F4B0000000000000000BB
:10229000000000000000000000000000000000003E
:1022A0000000000041626F72743A204F75747075BF
:1022B000742044454E2069732077726F6E6700006A
:1022C000000000000000000000000000000000000E
:1022D0000052656C656173652053776974636800AB
:1022E00000000000000000000000000000000000EE
:1022F000000000000000000000436865636B696E29
:1023000067207377697463682072656C65617365B3
:102310006400000000000000000000000000000059
:1023200000000000E803000000000000FC030000C3
:102330000000000004000000010000000000000098
:10234000000000000100000000000000000000008C
:10235000000000000000000000000000000000007D
:102360000000000053776974636820697320726508
:102370006C656173656400000000000000000000EF
:10238000000000000000000000000000100000003D
:10239000537769746368206E657665722072656C28
:1023A000656173656400000000000000000000002B
:1023B0000000000000000000000000000052656CFA
:1023C00065617365205377697463680000000000DD
:1023D00000000000000000000000000000000000FD
:1023E0000000000000436865636B696E67204C4520
:1023F00044206F6E0000000000000000000000009C
:1024000000000000000000000000000000000000CC
:10241000E803000001000000FC03000001000000D0
:1024200008000000020000000000000000000000A2
:102430000200000000000000080000000200000090
:10244000000000000000000002000000000000008A
:10245000477261646572207365657320736F6C6980
:1024600064206F6E0000000000000000000000000B
:1024700000000000000000000C0000004C4544205B
:102480006E65766572207475726E6564206F6E007D
:10249000000000000000000000000000000000003C
:1024A0000000000001000000005075736820616E9C
:1024B0006420486F6C64205377697463680000007F
:1024C000000000000000000000000000000000000C
:1024D00000436865636B696E67207377697463682E
:1024E00020707265737365640000000000000000D6
:1024F000000000000000000000000000E8030000F1
:1025000000000000FC0300000000000004000000C8
:1025100001000000000000000000000001000000B9
:1025200000000000040000000100000000000000A6
:1025300000000000010000000000000053776974F3
:1025400063682069732070726573736564000000AE
:10255000000000000000000000000000000000007B
:102560000000000010000000537769746368206E5B
:102570006576657220707265737365640000000093
:10258000000000000000000000000000000000004B
:1025900000000000005075736820616E6420486F71
:1025A0006C642053776974636800000000000000C9
:1025B000000000000000000000000000004368650B
:1025C000636B696E67204C4544206F6E000000000D
:1025D00000000000000000000000000000000000FB
:1025E0000000000000000000E803000001000000FF
:1025F000FC030000010000000800000002000000D1
:1026000000000000000000000200000000000000C8
:1026100008000000020000000000000000000000B0
:1026200002000000000000004772616465722073C0
:10263000656573204C4544206F6E0000000000006B
:10264000000000000000000000000000000000008A
:102650000C0000004C4544206E6576657220747550
:10266000726E6564206F6E000000000000000000C4
:10267000000000000000000000000000000000005A
:10268000015075736820616E6420486F6C6420533C
:10269000776974636800000000000000000000001B
:1026A000000000000000000000436865636B696E75
:1026B00067204C4544206F66660000000000000063
:1026C000000000000000000000000000000000000A
:1026D00000000000E803000001000000FC0300000F
:1026E00001000000080000000200000000000000DF
:1026F00000000000020000000000000000000000D8
:1027000000000000000000000000000000000000C9
:102710000000000047726164657220736565732074
:102720004C4544206F666600000000000000000079
:102730000000000000000000000000001000000089
:1027400041626F72743A204C4544206973206E6F69
:102750007420666C617368696E6700000000000099
:102760000000000000000000000000000052656C46
:102770006561736520537769746368000000000029
:102780000000000000000000000000000000000049
:102790000000000000436865636B696E6720737713
:1027A000697463682072656C65617365640000001C
:1027B0000000000000000000000000000000000019
:1027C000E803000000000000FC030000000000001F
:1027D00004000000010000000000000000000000F4
:1027E00001000000000000000000000000000000E8
:1027F00000000000000000000000000000000000D9
:102800005377697463682069732072656C656173BE
:1028100065640000000000000000000000000000EF
:1028200000000000000000001000000053776974F1
:102830006368206E657665722072656C656173658C
:102840006400000000000000000000000000000024
:1028500000000000FFFFFFFF0052656C65617365BB
:1028600020537769746368000000000000000000D6
:102870000000000000000000000000000000000058
:1028800000436865636B696E67204C4544206F6E3A
:102890000000000000000000000000000000000038
:1028A000000000000000000000000000E80300003D
:1028B00001000000FC03000001000000080000000F
:1028C0000200000000000000000000000200000004
:1028D00000000000080000000200000000000000EE
:1028E0000000000002000000000000004772616468
:1028F0006572207365657320736F6C6964206F6EF9
:1029000000000000000000000000000000000000C7
:10291000000000000C0000004C4544206E65766508
:1029200072207475726E6564206F6E000000000086
:102930000000000000000000000000000000000097
:102940000000000000000000FC0300000000000088
:102950000400000001000000000000000000000072
:102960000100000000000000000000000000000066
:102970000000000000000000000000000000000057
:1029800000010000FC03000001000000080000003E
:102990000200000000000000000000000200000033
:1029A0000000000000000000000000000000000027
:1029B00000000000000000000000000041626F7293
:1029C000743A204C4544206F6666207768696C65D0
:1029D000207377697463682072656C6561736564E0
:1029E00000000000010A05070F0C080202000000A9
:1029F00006000000030000000000000001000000CD
:102A000007000000040000000500000003000000B3
:102A100004000000000000000200000006000000AA
:102A20000700000001000000050000004C2A000023
:102A30000000002038000000C0020000842A0000CE
:102A400038000020D8060000DC0200000000000072
:102A500000000000000000008038010000000000BD
:102A60000000000000000000000000000000000066
:102A70000000000000000000000000000000000056
:042A80000000000052
:040000050000026D88
:00000001FF
