:020000040000FA
:10000000300700206D020000710200007302000042
:100010007502000077020000790200000000000075
:100020000000000000000000000000007B02000053
:100030007D020000000000007F020000650A000051
:100040000D0500002105000083020000830200006E
:1000500035050000830200008302000083020000D7
:10006000830200008302000083020000830200007C
:10007000830200008302000083020000830200006C
:10008000830200008302000083020000830200005C
:10009000830200008302000083020000830200004C
:1000A000830200008302000083020000830200003C
:1000B000830200008302000083020000830200002C
:1000C000830200008302000083020000830200001C
:1000D000830200008302000083020000830200000C
:1000E00083020000830200008302000083020000FC
:1000F00083020000830200008302000083020000EC
:1001000083020000830200008302000083020000DB
:1001100083020000830200008302000083020000CB
:1001200083020000830200008302000083020000BB
:1001300083020000830200008302000083020000AB
:1001400000000000000000000000000000000000AF
:100150008302000083020000F10C00008302000013
:10016000000000000000000000000000000000008F
:10017000000000000000000000000000000000007F
:10018000000000000000000000000000000000006F
:10019000000000000000000000000000000000005F
:1001A000000000000000000000000000000000004F
:1001B000110D000083020000830200008302000092
:1001C000830200008302000083020000830200001B
:1001D000830200008302000083020000830200000B
:1001E00083020000830200008302000083020000FB
:1001F00083020000830200008302000083020000EB
:10020000830200008302000083020000000000005F
:1002100083020000830200008302000083020000CA
:1002200083020000830200008302000083020000BA
:1002300083020000830200008302000083020000AA
:10024000830200008302000083020000830200009A
:10025000830200008302000083020000830200008A
:1002600083020000830200008302000000F00AB84D
:10027000FEE7FEE7FEE7FEE7FEE7FEE7FEE7FEE756
:10028000FEE7FEE700F002F800F03AF80AA090E876
:10029000000C82448344AAF10107DA4501D100F041
:1002A0002FF8AFF2090EBAE80F0013F0010F18BFD4
:1002B000FB1A43F001031847602F0000802F000055
:1002C000103A24BF78C878C1FAD8520724BF30C882
:1002D00030C144BF04680C60704700000023002454
:1002E00000250026103A28BF78C1FBD8520728BF46
:1002F00030C148BF0B6070471FB51FBD10B510BDA2
:1003000000F029F81146FFF7F7FF01F055F800F06B
:1003100047F803B4FFF7F2FF03BC00F04BF800000E
:1003200072B6704762B67047EFF3108072B67047CE
:1003300080F31088704730BF704702480249014A75
:10034000024B7047300300203007002030030020AC
:10035000704770477047754600F028F8AE460500B4
:100360006946534620F00700854618B020B5FFF7D0
:10037000E4FFBDE820404FF000064FF000074FF0CB
:1003800000084FF0000B21F00701AC46ACE8C009B3
:10039000ACE8C009ACE8C009ACE8C0098D467047BC
:1003A0000446AFF300802046FFF7B3FF00487047D4
:1003B000CC02002001491820ABBEFEE72600020057
:1003C000704700000148006870470000A890034093
:1003D00008B52948006840F008002849C1F808011C
:1003E0002548006800902448006800902448006870
:1003F00020F00800224908602248006840F0080008
:10040000204908602048006820F008001E49086064
:100410001E48006840F008001C4908601C4800683D
:1004200040F002001A4908604FF00000009002E01E
:100430000098401C009000981428F9D30120154919
:10044000086040F223101449086200200860084642
:10045000406940F470404861042008630F49086017
:100460004FF006000C49C1F8A4004FF0000088606E
:100470004FF00800086008BD08E10F4000E00F40A1
:1004800000740040207400401C7500402875004036
:1004900038E60F40C49F034000900340A090034003
:1004A000F0B50646002420E0701C6043C0EBC0009D
:1004B00000F0040711480057A0F13005104800571C
:1004C000454005F00800800005F0040100EB410004
:1004D00005F00301451885EA0700413040B209499B
:1004E00051F82410084A5054641C082CDCDB00200E
:1004F00005490872084600F065F8F0BD900200203A
:10050000D0310000D83100009A02002000B504204C
:100510000249086000F0C8F900BD00001C4400401A
:1005200000B504200249086000F0BEF900BD0000DB
:100530001C54004000B504200249086000F0B4F9E2
:1005400000BD00001C4402401D48006F40F0004008
:100550001B4908670846006F40F4006008670846BA
:10056000006E20F4F86008660846006E00F5A8608A
:1005700008660846006F20F0700008670846006FA4
:1005800008670846006F20F4005008670846006FAF
:1005900040F0804008670846006F20F0FE5000F1F0
:1005A0008070086700BF0648006D10F0400FFAD059
:1005B0000348006F20F4006001490867704700009D
:1005C00000E00F400146044A002002E00B5C135497
:1005D000401C0828FADB7047780000200146044AD6
:1005E000002002E00B5C1354401C0828FADB704723
:1005F0006000002070B506460D4614460A20B6FB82
:10060000F0F0353040B22C4908700A20B6FBF0F10A
:1006100000FB1160303040B227494870632D05D986
:100620002648806C00F0070000F15C050A20B5FB4D
:10063000F0F0303040B2204988700A20B5FBF0F16C
:1006400000FB115505F1300040B21B49C87042F261
:100650000F70844200D900244FF47A70B4FBF0F09C
:10066000303040B2144908714FF47A70B4FBF0F1A5
:1006700000FB11446420B4FBF0F0303040B20E496E
:1006800048716420B4FBF0F100FB11440A20B4FB74
:10069000F0F0303040B2084988710A20B4FBF0F124
:1006A00000FB114404F1300040B20349C871034912
:1006B000886CFFF7F5FE70BD9002002000500340EB
:1006C00008B51F48006840F001001E49C1F8080144
:1006D0001B48006800901C481C4908601C480068C2
:1006E00020F00C001A49086001F10400006820F4B1
:1006F0007F4001F1040108604FF0040015490860D3
:100700001548006840F00400134908601348006869
:1007100020F00C00114908604FF0080010490860F3
:100720001048006840F00C000E4908604FF040206F
:10073000D0F8FC0320F00C000B49086008BD000055
:1007400008E10F4000E00F401D63010000000020A1
:100750002845004000440040084500402044004037
:10076000144500401C450040FC43004070B52C4837
:10077000006870B904202B4908602A480C380068CA
:1007800020F0040027490C39086001202649086040
:1007900023E02348006801280ED104202349086083
:1007A00022480C38006820F0040020490C39086009
:1007B00002201D49086010E01948006804280CD187
:1007C0001B4908601A480C38006820F004001849DA
:1007D0000C3908601020144908601648006800F0C1
:1007E00004FE0446144A154B00F012FE04D214A075
:1007F0001A494863002070BD1948006800F0F5FDF3
:1008000004460022174B00F08DFE04D216A01349B7
:1008100048630020EFE71BA0104908632320EAE7A4
:10082000100000201C44004080E100E01C54004007
:100830001C4402401C0000208C2EBAE8A2F903419F
:100840004F7574707574206672657175656E637925
:10085000203E2034383420487A0000005800002020
:1008600020000020006A08414F757470757420667E
:1008700072657175656E6379203C20333936204886
:100880007A0000004F75747075742066726571751A
:10089000656E63792069732061626F7574203434EA
:1008A0003020487A00000000134A916C134A126805
:1008B000D2B1134A12688A4203D9114A1268501AF7
:1008C00006E00D4A926A521A0D4B1B681A44501CDE
:1008D0000C4A1268904201D90A4A10600A4A12680A
:1008E000904201D2084A1060044A1268521C034B1D
:1008F0001A60034A1160704700500340180000203E
:1009000028000020200000201C00002010B500203E
:100910004B490860401E4B49086000204A49086066
:10092000FFF7FEFC4948006848BB4948006820F0D2
:10093000040047490860081D006820F00400091DF4
:100940000860081D006840F00400091D08600420CC
:100950003F49183108603E480C30006840F0040000
:100960003B490C3108603B48006820F0FF0040F034
:100970002000384908600120374908605CE03348AE
:100980000068012829D13548006820F00400334967
:100990000860081D006820F00400091D0860081D9B
:1009A000006840F00400091D086004202B4918313C
:1009B00008602A480C30006840F0040027490C31D8
:1009C00008602448006820F47F4040F4005021492A
:1009D00008600220204908602EE01C4800680428B6
:1009E0002AD11F48006820F004001D490860081D36
:1009F000006820F00400091D0860081D006840F030
:100A00000400091D086004201549183108601448C5
:100A10000C30006840F0040011490C3108600D48AA
:100A2000001D006820F0FF0040F020000949091D6A
:100A30000860102008490860FFF774FC10BD000032
:100A4000180000201C0000202000002010000020C2
:100A50000444004000E400E000E100E004540040F1
:100A6000044402402048006810F0080F1FD01F48BF
:100A70000068E0B91E48006860B91B48006880F053
:100A800004004FF04021C1F8FC034FF00100184969
:100A9000086021E01448006820F004004FF0402175
:100AA000C1F8FC034FF000001149086014E0104841
:100AB0000068012808D10C48006880F004004FF05D
:100AC0004021C1F8FC0307E00748006820F004005B
:100AD0004FF04021C1F8FC0303480068C0F3C00098
:100AE0000249086070470000FC43004004000020F9
:100AF0000800002000204FF0E0210861084800684D
:100B0000401E4861002088610648006820F07F4050
:100B10000449086007204FF0E02108617047000099
:100B20000000002020ED00E070B504460D4616469A
:100B3000FFF70AFD4D48006840F030004B4908605F
:100B40004BA0FFF74BFD4D484D4988624D48C862A8
:100B50000863486300204C490860494908604B49D4
:100B600008604B4908604B4908604B4908604B4896
:100B70004B4908600C2042490861002048614949FE
:100B8000086049480460494805604748006818B94A
:100B90004748484908600AE043480068012803D1F3
:100BA00045484449086002E04448424908603F48DB
:100BB000006818B942483F4948600AE03B4800686D
:100BC000012803D13F483B49486002E03E4839498B
:100BD00048603EA0FFF7F6FC00203F49C86008606F
:100BE000022048602E480068401E8862002088630A
:100BF0000120486288613948006820F0FF0040F019
:100C00004000364908604FF08050354908604FF089
:100C100001003149C86033480660006800B300F045
:100C20007FFB00203049C86008600220486041F620
:100C30003F708862002088630120486288612748ED
:100C40001838006820F47F0040F460002349183908
:100C500008604020224908604FF001002249C86026
:100C6000FFF7B6FB21480649C86270BD04E60F4095
:100C700055542E362E30337800000000E816000060
:100C8000580000209816000040000020500000206E
:100C90004C0000203C0000204400002000350C00E7
:100CA00024000020380000200C000020100000204C
:100CB000A815000030000020F815000048160000BC
:100CC000D015000020160000701600002020202003
:100CD0002020202000000000005003405CE400E0E1
:100CE00008E100E05400002000400340C01600006E
:100CF000012004494862044800684FEA1010034983
:100D00000860704700400340A890034000C00040C6
:100D10002DE9F0470120FE494862FFF753FB40F6FA
:100D2000E4414843000BFB490860FB48006830B1D0
:100D3000F9480068401EF8490860BDE8F087F748A8
:100D4000007810F0010F1ED1F548007810F0010F67
:100D500019D00120F24908600020F2490860012002
:100D6000F14908603220EC4908600120EB49086035
:100D70000020EB494861ED490860ED48E849086307
:100D800048638862D9E7E6480068E4490860E448B7
:100D9000007810F0010F7DD0E24800681C280AD3CB
:100DA0000220DF49086008468269E04801680C209B
:100DB000FFF720FCC1E7DC480068002855D0002080
:100DC000D9490860D748006800EB8001C1EB80106A
:100DD000D84901EB8000406DD7490860D1480068D0
:100DE00000EB8001C1EB8010D24901EB8000401C78
:100DF000CB498862CB48006800EB8001C1EB8010D2
:100E0000CC4901EB80002930C549C862C54800685B
:100E100000EB8001C1EB8010C64901EB8000D0F8E7
:100E2000E840002C05DD012C03DC0121601EC34AD3
:100E30001154002C07DAB4F1FF3F04DB0021C4F1A8
:100E4000FF30BE4A1154022C01D1FFF75FFDA01CF8
:100E50000AD1FFF78BFCB54909680844B34908601B
:100E600008460068AE49486167E7B3480068E8BBD8
:100E7000AC48006800EB8001C1EB8010AD4911F86F
:100E8000200001281BD1A748006800EB8001C1EBBE
:100E9000801000E038E2A74901EB8000C030A04993
:100EA0004863062008609F480068401C9D49086010
:100EB00001209D490860322097490860E7E0994881
:100EC000006800EB8001C1EB80109A4901EB8000C3
:100ED000C0309349486393480068401C91490860BA
:100EE00001209149086032208B4900E001E0086050
:100EF000CDE091480068401E8F490860894800682D
:100F000000EB8001C1EB80108A4901EB800090F872
:100F1000580028B98A488B49096850F8215013E0D5
:100F20008048006800EB8001C1EB8010814901EB33
:100F3000800090F85800012805D18148824909684D
:100F400050F8215000E000257648006800EB800151
:100F5000C1EB8010774901EB8000C06D0544D5F8E6
:100F600000807048006800EB8001C1EB801071497F
:100F700001EB800090F86000E0B96A48006800EB7F
:100F80008001C1EB80106B4901EB800064306D493A
:100F9000096850F821606348006800EB8001C1EBEC
:100FA0008010644901EB80007C306649096850F884
:100FB00021703DE05B48006800EB8001C1EB8010D0
:100FC0005C4901EB800090F8600001281CD1554875
:100FD000006800EB8001C1EB8010564901EB8000F6
:100FE00064305949096850F821604E48006800EBA8
:100FF0008001C1EB80104F4901EB80007C305249E9
:10100000096850F8217013E04648006800EB800141
:10101000C1EB8010474901EB8000466E41480068F3
:1010200000EB8001C1EB8010424901EB8000C76FEB
:1010300008EA0600B8422AD13A48006800EB80016D
:10104000C1EB80103B4901EB8000943034490863C8
:101050003448006800EB8001C1EB8010354901EB9A
:101060008000D0F8BC003149096808442F49086065
:10107000084600682A4948612A480068401C2949F6
:1010800008600120284908603220234908600024B4
:1010900037E12A48005D01287CD104EB84002B490C
:1010A00001EB4010007828B925482649096850F816
:1010B00021500EE004EB8400244901EB401000783D
:1010C000012805D11E482049096850F8215000E048
:1010D000002504EB84001D4901EB401040680544E5
:1010E000D5F8008004EB840001EB4010007A78BB57
:1010F00004EB840001EB40100C301249096850F8F1
:10110000216004EB8400114901EB4010243020E001
:1011100000500340380000204C0000204000002018
:101120005800002050000020440000202C00002027
:1011300098160000601700004800002014000020EE
:10114000901500000C00002010000020303100003D
:1011500004E06E49096850F8217027E004EB840030
:101160006B4901EB4010007A012814D104EB840094
:1011700001EB40100C306749096850F8216004EB1E
:101180008400634901EB401024306249096850F83B
:1011900021700BE0B4E004EB84005D4901EB4010EA
:1011A000C66804EB840001EB4010476A08EA0600B9
:1011B000B84214D14FF0010904EB8400544901EB0B
:1011C000401090F83C0001280BD104EB840001EBA7
:1011D00040107830504948630620086001E04FF025
:1011E000000904EB84004A4901EB401090F83C00F0
:1011F00010B9B9F1010F0BDA04EB8400444901EB9B
:10120000401090F83C0001287AD1B9F1000F77D155
:1012100004EB84003E4901EB401090F83D0028B9F2
:101220003E483A49096850F821500FE004EB840029
:10123000374901EB401090F83D00012805D13748AF
:101240003449096850F8215000E0002504EB84007F
:101250002F4901EB4010006C0544D5F8008004EBE9
:10126000840001EB401090F8440098B904EB84002E
:1012700001EB401048302549096850F8216004EB23
:101280008400234901EB401060302049096850F880
:10129000217027E004EB84001D4901EB401090F819
:1012A0004400012813D104EB840001EB40104830C6
:1012B0001849096850F8216004EB8400144901EBD7
:1012C000401060301349096850F821700AE004EBBF
:1012D00084000F4901EB4010866C04EB840001EBA5
:1012E0004010076E08EA0600B84209D104EB8400FA
:1012F000074901EB40107830074948630620086031
:10130000641C012CFFF6C5AE00BF16E50C000020E2
:10131000303100001000002058000020901500001F
:101320001F48006840F001001E49C1F8040108464A
:10133000D0F8080140F00100C1F808011A48006B1C
:1013400020F00100184908634FF02B0048624FF06D
:101350001A0088624FF07000C8620846006B40F0C7
:10136000010008631148006840F003000F4908605D
:101370000F48006840F003000D4908600D48006800
:1013800020F0FF0000F111000A490860A1F10400FB
:10139000006820F00300A1F104010860704700001C
:1013A00004E10F4000E00F4000C000402044004036
:1013B0001C4500402C450040012200210846FFF753
:1013C000B3FBFFF77DF9FFF795FBFEF7ABFF00BF1F
:1013D000FEE7491058BFC1F140415B1058BFC3F14F
:1013E00040438B42EFF300807047B0FA80F310FA6D
:1013F00003F10AD0C3F11D0303F580634FEA4150A6
:101400004FEA035202EBD12170474FF000007047C2
:1014100051EA030C17D41CF5801F58BFBCF5801F80
:1014200000F10680994218BF704708BF904270478C
:1014300007D711F5801F58BF13F5801F19D49942A3
:101440007047894270471CF5801F08D5BCF5801F86
:10145000F7D58B4218BF704708BF824270474FF4E0
:10146000001C1CEB410F38BF1CEB430F01D28B4219
:10147000704770B500F008F8922449004FF0005111
:101480004FF08053FFF7A5BF0EF1020E2EF0030EB2
:101490005EF8046B364205D4012A43EB030515F5CB
:1014A000001F12D8012841EB010C1CF5001F0CD8BD
:1014B0000ED14FEAD17C15F5001F0CEB4C0C0CF152
:1014C000020C08BF4CEBD37C04E04FF0080C01E0A9
:1014D0004FEAD37C0CEB4C0526FA05F606F007061E
:1014E000B6F1040C06D20EEB860CBDE870404CF051
:1014F000010C6047DFE80CF0090B02024FF00041DD
:101500004FF00000A1F5002170BD194610460128DA
:1015100051EB010418BFD4F5001484BF002001F082
:10152000004170BD53EA010C17D41CF5801F58BF51
:10153000BCF5801F00F106808B4218BF704708BFC2
:101540008242704707D713F5801F58BF11F5801FDF
:1015500019D48B4270479B4270471CF5801F08D5F9
:10156000BCF5801FF7D5994218BF704708BF90425D
:1015700070474FF4001C1CEB430F38BF1CEB410FAE
:1015800001D2994270470FB40CBC03BCFFF771BF86
:1015900000400040005000400060004000700040EB
:1015A0000040024000500240496E7075742069731B
:1015B000205041332C20706F736974697665206CFC
:1015C0006F676963207377697463680000000000C7
:1015D0004F7574707574206973205041322C2068E7
:1015E00065616470686F6E652074687275207265DD
:1015F000736973746F720000496E7075742069733B
:10160000205042332C20706F736974697665206CAA
:101610006F67696320737769746368000000000076
:101620004F7574707574206973205042322C206895
:1016300065616470686F6E6520746872752072658C
:10164000736973746F720000496E707574206973EA
:10165000205045332C20706F736974697665206C57
:101660006F67696320737769746368000000000026
:101670004F7574707574206973205045322C206842
:1016800065616470686F6E6520746872752072653C
:10169000736973746F720000200000000000000086
:1016A000000000000000000000000000000000003A
:1016B000000000000000000000000000000000002A
:1016C000544578615320697320696E697469616C4F
:1016D000697A656420666F72204C61622031320045
:1016E0000000000000000000436C69636B2047723B
:1016F0006164696E6720627574746F6E20746F2008
:1017000073746172742067726164696E67000000AF
:10171000446F6E652067726164696E670000000047
:1017200000000000000000000000000000000000B9
:10173000000000000000000030313233343536370D
:101740003839303132333435363738393031323355
:10175000343536373839303132333435363738006E
:1017600001576169740000000000000000000000E3
:101770000000000000000000000000000000000069
:10178000000000000000000000436865636B696EA4
:1017900067207468652054457861535F496E6974A9
:1017A000282920696E20706172616D657465720010
:1017B00000000000010000000200000008E10F40EE
:1017C0000000000000000000000000000000000019
:1017D0000000000000000000000000000000000009
:1017E00000000000010000000100000000000000F7
:1017F00001000000466972737420706172616D654A
:1018000074657220636F727265637400000000007B
:1018100000000000000000000000000002000000C6
:1018200041626F72743A2054457861532E68206289
:101830006164206F7220666F7220646966666572EB
:10184000656E74206C6162000000000001576169E0
:101850007400000000000000000000000000000014
:101860000000000000000000000000000000000078
:101870000000000000436865636B696E6720746850
:10188000652054457861535F496E69742829206F3B
:10189000757420706172616D617465720000000082
:1018A000010000000200000008E10F4001000000FC
:1018B0000000000000000000000000000000000028
:1018C0000000000000000000000000000000000018
:1018D0000100000001000000000000000100000005
:1018E0005365636F6E6420706172616D65746572BB
:1018F00020636F72726563740000000000000000D6
:1019000000000000000000000200000041626F7251
:10191000743A2054457861532E6820626164206FC8
:101920007220666F7220646966666572656E7420E7
:101930006C616200000000000157616974000000E2
:101940000000000000000000000000000000000097
:101950000000000000000000000000000000000087
:1019600000436865636B696E67207468652053790E
:10197000735469636B20636F6E74726F6C20726551
:1019800067697374657200000000000014000000B5
:101990000200000010E000E002000000070000006C
:1019A0000000000000000000000000000000000037
:1019B0000000000007000000000000000000000020
:1019C0000000000000000000000000005379735484
:1019D00069636B2073657420636F72726563746CE6
:1019E000790000000000000000000000000000007E
:1019F000000000000200000041626F72743A205340
:101A000079735469636B206F66662C2077726F6EF2
:101A1000672C206F72206E6F20696E747300000057
:101A20000000000001576169740000000000000020
:101A300000000000000000000000000000000000A6
:101A40000000000000000000000000000043686586
:101A5000636B696E672074686520696E70757420A9
:101A6000706F727420636C6F636B00000000000085
:101A70000000000000000000140000000200000050
:101A800008E10F400000000001000000020000001B
:101A90000000000000000000100000000000000036
:101AA0000100000002000000000000000000000033
:101AB0001000000000000000496E70757420636C17
:101AC0006F636B206973206F6E00000000000000E0
:101AD0000000000000000000000000000000000006
:101AE0000200000041626F72743A20496E70757492
:101AF00020706F727420636C6F636B206973206F4A
:101B00006666000000000000000000000000000009
:101B1000015761697400000000000000000000002F
:101B200000000000000000000000000000000000B5
:101B3000000000000000000000436865636B696EF0
:101B40006720746865206F757470757420706F728B
:101B50007420636C6F636B000000000000000000E5
:101B600000000000140000000200000008E10F4027
:101B70000100000001000000020000000000000061
:101B80000000000010000000000000000100000044
:101B90000200000000000000000000001000000033
:101BA000000000004F757470757420636C6F636B78
:101BB000206973206F6E000000000000000000002C
:101BC0000000000000000000000000000200000013
:101BD00041626F72743A204F757470757420706F23
:101BE000727420636C6F636B206973206F6666008C
:101BF00000000000000000000000000001576169C3
:101C00007400000000000000000000000000000060
:101C100000000000000000000000000000000000C4
:101C20000000000000436865636B696E672074689C
:101C30006520696E70757420616E616C6F672065D8
:101C40006E61626C65207265672E00000000000006
:101C50001400000000000000280500000000000043
:101C60000800000008000000000000000000000064
:101C7000080000000000000000000000000000005C
:101C80000000000000000000000000000000000054
:101C9000496E70757420616E616C6F672069732086
:101CA00064697361626C65640000000000000000FC
:101CB00000000000000000000200000041626F729E
:101CC000743A20496E70757420414D53454C20691B
:101CD000732077726F6E6700000000000000000044
:101CE000000000000000000001576169740000005E
:101CF00000000000000000000000000000000000E4
:101D000000000000000000000000000000000000D3
:101D100000436865636B696E6720746865206F7542
:101D20007470757420616E616C6F6720656E61629E
:101D30006C65207265672E00000000001400000032
:101D40000100000028050000010000000400000060
:101D5000040000000000000000000000040000007B
:101D60000000000000000000000000000000000073
:101D70000000000000000000000000004F757470BB
:101D8000757420616E616C6F67206973206469737C
:101D900061626C656400000000000000000000004B
:101DA000000000000200000041626F72743A204F90
:101DB000757470757420414D53454C2069732077BC
:101DC000726F6E670000000000000000000000005D
:101DD000000000000157616974000000000000006D
:101DE00000000000000000000000000000000000F3
:101DF00000000000000000000000000000436865D3
:101E0000636B696E672074686520696E70757420F5
:101E1000706F727420636F6E74726F6C207265677E
:101E20002E00000000000000140000000000000070
:101E30002C0500000000000000F0000000F0000091
:101E4000000000000000000000F0000000000000A2
:101E50000000000000000000000000000000000082
:101E60000000000000000000496E707574205043AF
:101E7000544C2073657420666F72204750494F00A0
:101E80000000000000000000000000000000000052
:101E90000200000041626F72743A20496E707574DE
:101EA000205043544C2069732077726F6E67000096
:101EB0000000000000000000000000000000000022
:101EC000015761697400000000000000000000007C
:101ED0000000000000000000000000000000000002
:101EE000000000000000000000436865636B696E3D
:101EF0006720746865206F757470757420706F72D8
:101F00007420636F6E74726F6C207265672E0000B0
:101F10000000000014000000010000002C0500007B
:101F200001000000000F0000000F00000000000092
:101F300000000000000F0000000000000000000092
:101F40000000000000000000000000000000000091
:101F5000000000004F7574707574205043544C207D
:101F600073657420666F72204750494F000000006F
:101F7000000000000000000000000000020000005F
:101F800041626F72743A204F7574707574205043BB
:101F9000544C2069732077726F6E67000000000058
:101FA000000000000000000000000000015761690F
:101FB00074000000000000000000000000000000AD
:101FC0000000000000000000000000000000000011
:101FD0000000000000436865636B696E67207468E9
:101FE0006520696E70757420646972656374696FC9
:101FF0006E207265676973746572000000000000EE
:1020000014000000000000000004000000000000B8
:1020100008000000080000000000000000000000B0
:1020200008000000000000000000000000000000A8
:1020300000000000000000000000000000000000A0
:10204000496E70757420646972656374696F6E207F
:102050006973204F4B0000000000000000000000EA
:1020600000000000000000000200000041626F72EA
:10207000743A20496E70757420646972656374697E
:102080006F6E2069732077726F6E6700000000002A
:1020900000000000000000000157616974000000AA
:1020A0000000000000000000000000000000000030
:1020B0000000000000000000000000000000000020
:1020C00000436865636B696E6720746865206F758F
:1020D0007470757420646972656374696F6E2072C0
:1020E00065676973746572000000000014000000E9
:1020F00001000000000400000100000004000000D6
:1021000004000000000000000000000004000000C7
:1021100000000000040000000400000000000000B7
:102120000000000004000000000000004F75747003
:10213000757420646972656374696F6E20697320B9
:102140004F4B0000000000000000000000000000F5
:10215000000000000200000041626F72743A204FDC
:10216000757470757420646972656374696F6E202C
:1021700069732077726F6E67000000000000000036
:1021800000000000015761697400000000000000B9
:10219000000000000000000000000000000000003F
:1021A000000000000000000000000000004368651F
:1021B000636B696E672074686520696E7075742042
:1021C000616C742E2066756E63742E20726567696B
:1021D000737465720000000014000000000000002D
:1021E00020040000000000000800000008000000BB
:1021F00000000000000000000800000000000000D7
:1022000000000000000000000000000000000000CE
:102210000000000000000000496E70757420414607
:1022200053454C206973204F4B0000000000000014
:10223000000000000000000000000000000000009E
:102240000200000041626F72743A20496E7075742A
:1022500020414653454C2069732077726F6E6700AA
:10226000000000000000000000000000000000006E
:1022700001576169740000000000000000000000C8
:10228000000000000000000000000000000000004E
:10229000000000000000000000436865636B696E89
:1022A0006720746865206F757470757420616C7434
:1022B0002E2066756E63742E207265672E000000F6
:1022C00000000000140000000100000020040000D5
:1022D00001000000040000000400000000000000F5
:1022E00000000000040000000000000000000000EA
:1022F00000000000000000000000000000000000DE
:10230000000000004F757470757420414653454CB1
:10231000206973204F4B0000000000000000000007
:1023200000000000000000000000000002000000AB
:1023300041626F72743A204F757470757420414613
:1023400053454C2069732077726F6E670000000060
:10235000000000000000000000000000015761695B
:1023600074000000000000000000000000000000F9
:10237000000000000000000000000000000000005D
:102380000000000000436865636B696E6720746835
:102390006520696E707574206469676974616C206A
:1023A000656E61626C65207265672E00000000003A
:1023B00014000000000000001C05000000000000E8
:1023C00008000000080000000000000000000000FD
:1023D00008000000000000000800000008000000E5
:1023E00000000000000000000800000000000000E5
:1023F000496E7075742044454E206973204F4B0020
:1024000000000000000000000000000000000000CC
:1024100000000000000000000200000041626F7236
:10242000743A20496E7075742044454E20697320BB
:1024300077726F6E6700000000000000000000006F
:1024400000000000000000000157616974000000F6
:10245000000000000000000000000000000000007C
:10246000000000000000000000000000000000006C
:1024700000436865636B696E6720746865206F75DB
:1024800074707574206469676974616C20656E612D
:10249000626C65207265672E000000001400000069
:1024A000010000001C050000010000000400000005
:1024B0000400000000000000000000000400000014
:1024C0000000000004000000040000000000000004
:1024D0000000000004000000000000004C616220C9
:1024E000313220696E6974206973204F4B000000FF
:1024F00000000000000000000000000000000000DC
:10250000000000000200000041626F72743A204F28
:1025100075747075742044454E2069732077726F0E
:102520006E670000000000000000000000000000D6
:10253000000000000052656C656173652054686599
:1025400020537769746368000000000000000000F9
:10255000000000000000000000000000004368656B
:10256000636B696E67207377697463682072656C4A
:102570006561736564000000000000000000000059
:102580000000000000000000E80300000000000060
:10259000FC0300000000000008000000080000002C
:1025A0000000000000000000080000000000000023
:1025B000000000000000000000000000000000001B
:1025C0000000000000000000537769746368206910
:1025D000732072656C656173656400000000000023
:1025E00000000000000000000000000000000000EB
:1025F00002000000537769746368206E6576657227
:102600002072656C65617365640000000000000065
:1026100000000000000000000000000001000000B9
:10262000005075736820616E6420486F6C6420747C
:10263000686520537769746368000000000000003B
:10264000000000000000000000436865636B696ED5
:10265000672073776974636820707265737365644B
:10266000000000000000000000000000000000006A
:1026700000000000E803000000000000FC03000070
:10268000000000000800000008000000000000003A
:10269000000000000800000000000000080000002A
:1026A000080000000000000000000000080000001A
:1026B00000000000537769746368206973207072AA
:1026C00065737365640000000000000000000000F6
:1026D00000000000000000000000000003000000F7
:1026E000537769746368206E6576657220707265D1
:1026F000737365640000000000000000000000002B
:102700000000000000000000000000000150757390
:102710006820616E6420486F6C6420746865205383
:10272000776974636800000000000000000000008A
:102730000000000000436865636B696E672073707A
:1027400065616B657220746F67676C652068696787
:102750006800000000000000000000000000000011
:102760003200000001000000FC0300000100000036
:102770000400000004000000000000000000000051
:10278000040000000000000004000000040000003D
:102790000000000000000000040000000000000035
:1027A000537065616B657220746F67676C65642038
:1027B0006869676800000000000000000000000079
:1027C00000000000000000000300000041626F7282
:1027D000743A20537065616B6572206F7574707503
:1027E000742069732073696C656E740000000000CA
:1027F0000000000000000000015075736820616E49
:102800006420486F6C642074686520537769746332
:102810006800000000000000000000000000000050
:1028200000436865636B696E6720737065616B65F3
:102830007220746F67676C65206C6F770000000012
:102840000000000000000000000000003200000056
:1028500001000000FC030000010000000400000073
:102860000400000000000000000000000400000060
:102870000000000000000000000000000000000058
:1028800000000000000000000000000053706561BF
:102890006B657220746F67676C6564206C6F77007E
:1028A0000000000000000000000000000000000028
:1028B000000000000300000041626F72743A205370
:1028C0007065616B6572206F7574707574206973C3
:1028D0002073696C656E7400000000000000000049
:1028E000FFFFFFFF005075736820616E6420486F22
:1028F0006C64207468652053776974636800000015
:1029000000000000000000000000000000436865B7
:10291000636B696E67206F7574707574206672657D
:102920007175656E63792069732034343020487A7C
:102930000000000000000000320000000200000063
:1029400008E10F400200000000000000000000004D
:102950000000000000000000000000000000000077
:102960000000000000000000000000000000000067
:102970000000000000000000467265712E206F7597
:1029800074707574207465737420636F6D706C65FA
:10299000746500000000000000000000000000005E
:1029A0000300000000000000000000000000000024
:1029B0000000000000000000000000000000000017
:1029C0000000000000000000000000000200000005
:1029D0000052656C656173652054686520537769A2
:1029E00074636800000000000000000000000000A8
:1029F000000000000000000000436865636B696E22
:102A000067207377697463682072656C65617365AC
:102A10006400000000000000000000000000000052
:102A200000000000E803000000000000FC030000BC
:102A30000000000008000000080000000000000086
:102A4000000000000800000000000000000000007E
:102A50000000000000000000000000000000000076
:102A60000000000053776974636820697320726501
:102A70006C656173656400000000000000000000E8
:102A80000000000000000000000000000300000043
:102A9000537769746368206E657665722072656C21
:102AA0006561736564000000000000000000000024
:102AB0000000000000000000000000000152656CF2
:102AC0006561736520546865205377697463680095
:102AD00000000000000000000000000000000000F6
:102AE0000000000000436865636B696E67207370C7
:102AF00065616B657220746F67676C6520686967D4
:102B0000680000000000000000000000000000005D
:102B10003200000001000000FC0300000100000082
:102B2000040000000400000000000000000000009D
:102B30000400000000000000040000000400000089
:102B40000000000000000000040000000000000081
:102B5000537065616B657220746F67676C65642084
:102B600068696768000000000000000000000000C5
:102B700000000000000000000300000041626F72CE
:102B8000743A20537065616B6572206F757470754F
:102B9000742069732073696C656E74000000000016
:102BA00000000000000000000152656C6561736563
:102BB0002054686520537769746368000000000042
:102BC0000000000000000000000000000000000005
:102BD00000436865636B696E6720737065616B6540
:102BE0007220746F67676C65206C6F77000000005F
:102BF00000000000000000000000000032000000A3
:102C000001000000FC0300000100000004000000BF
:102C100004000000000000000000000004000000AC
:102C200000000000000000000000000000000000A4
:102C3000000000000000000000000000537065610B
:102C40006B657220746F67676C6564206C6F7700CA
:102C50000000000000000000000000000000000074
:102C6000000000000300000041626F72743A2053BC
:102C70007065616B6572206F75747075742069730F
:102C80002073696C656E7400000000000000000095
:102C9000FEFFFFFF005075736820616E6420486F6F
:102CA0006C64207468652053776974636800000061
:102CB0000000000000000000000000000043686504
:102CC000636B696E672073776974636820707265DF
:102CD0007373656400000000000000000000000045
:102CE0000000000000000000E803000000000000F9
:102CF000FC030000000000000800000008000000C5
:102D000000000000000000000800000000000000BB
:102D100008000000080000000000000000000000A3
:102D200008000000000000005377697463682069A0
:102D3000732070726573736564000000000000000A
:102D40000000000000000000000000000000000083
:102D500003000000537769746368206E65766572BE
:102D6000207072657373656400000000000000004D
:102D70000000000000000000000000000000000053
:102D8000015075736820616E6420486F6C64207414
:102D900068652053776974636800000000000000D4
:102DA000000000000000000000436865636B696E6E
:102DB0006720737065616B65722073686F756C64F2
:102DC000206265206C6F77000000000000000000AA
:102DD000000000003200000001000000FC030000C1
:102DE00001000000040000000400000000000000DA
:102DF00000000000040000000000000000000000CF
:102E000000000000000000000000000000000000C2
:102E100000000000537065616B6572206F757470FF
:102E20007574206973206C6F77000000000000004B
:102E3000000000000000000000000000030000008F
:102E400041626F72743A20537065616B6572206FD6
:102E500075747075742069732073696C656E740085
:102E60000000000000000000000000000052656C3F
:102E700065617365205468652053776974636800E1
:102E80000000000000000000000000000000000042
:102E90000000000000436865636B696E672073770C
:102EA000697463682072656C656173656400000015
:102EB0000000000000000000000000000000000012
:102EC000E803000000000000FC0300000000000018
:102ED00008000000080000000000000000000000E2
:102EE00008000000000000000000000000000000DA
:102EF00000000000000000000000000000000000D2
:102F00005377697463682069732072656C656173B7
:102F100065640000000000000000000000000000E8
:102F200000000000000000000300000053776974F7
:102F30006368206E657665722072656C6561736585
:102F4000640000000000000000000000000000001D
:102F500000000000000000000152656C65617365AF
:102F6000205468652053776974636800000000008E
:102F70000000000000000000000000000000000051
:102F800000436865636B696E6720737065616B658C
:102F9000722073686F756C64206265206C6F7700B7
:102FA00000000000000000000000000032000000EF
:102FB00001000000FC03000001000000040000000C
:102FC00004000000000000000000000004000000F9
:102FD00000000000000000000000000000000000F1
:102FE0000000000000000000000000005370656158
:102FF0006B6572206F7574707574206973206C6FC7
:103000007700000000000000000000000000000049
:10301000000000000300000041626F72743A205308
:103020007065616B6572206F75747075742069735B
:103030002073696C656E74000000000000000000E1
:103040000000000000446F6E6500000000000000FA
:103050000000000000000000000000000000000070
:1030600000000000000000000000000000446F6E3F
:10307000652067726164696E6700000000000000EF
:103080000000000000000000000000000000000040
:10309000000000000000000001000000020000002D
:1030A00008E10F40020000000000000000000000E6
:1030B0000000000000000000000000000000000010
:1030C0000000000000000000000000000000000000
:1030D0000000000000000000446F6E652067726110
:1030E00064696E670000000000000000000000003E
:1030F00000000000000000000000000000000000D0
:1031000000000000000000000000000000000000BF
:1031100000000000000000000000000000000000AF
:10312000000000000000000000000000000000009F
:1031300000000000FC030000000000000800000088
:10314000080000000000000000000000080000006F
:10315000000000000000000000000000000000006F
:10316000000000000000000000000000000100005E
:10317000FC03000001000000040000000400000047
:10318000000000000000000004000000000000003B
:103190000400000004000000000000000000000027
:1031A000040000000000000041626F72743A205376
:1031B0007065616B6572206F6E207768696C652041
:1031C0007377697463682072656C65617365640008
:1031D000010A05070F0C08020200000006000000AB
:1031E00003000000000000000100000007000000D4
:1031F00004000000050000000300000004000000BF
:1032000000000000020000000600000007000000AF
:10321000010000000500000038320000000000201E
:1032200058000000C002000090320000580000204A
:10323000D8060000DC0200000000000000000000D2
:10324000000000000000000000000000000000007E
:1032500000000000FFFFFFFF0000000080380100B9
:10326000000000000000000000000000000000005E
:10327000000000000000000000000000000000004E
:10328000000000000000000000000000000000003E
:040000050000026D88
:00000001FF
