:020000040000FA
:10000000100700206D020000710200007302000062
:100010007502000077020000790200000000000075
:100020000000000000000000000000007B02000053
:100030007D020000000000007F020000810200003D
:10004000830200008302000083020000830200009C
:10005000830200008302000083020000830200008C
:10006000830200008302000083020000830200007C
:10007000830200008302000083020000830200006C
:10008000830200008302000083020000830200005C
:10009000830200008302000083020000830200004C
:1000A000830200008302000083020000830200003C
:1000B000830200008302000083020000830200002C
:1000C000830200008302000083020000830200001C
:1000D000830200008302000083020000830200000C
:1000E00083020000830200008302000083020000FC
:1000F00083020000830200008302000083020000EC
:1001000083020000830200008302000083020000DB
:1001100083020000830200008302000083020000CB
:1001200083020000830200008302000083020000BB
:1001300083020000830200008302000083020000AB
:1001400000000000000000000000000000000000AF
:10015000830200008302000083020000830200008B
:10016000000000000000000000000000000000008F
:10017000000000000000000000000000000000007F
:10018000000000000000000000000000000000006F
:10019000000000000000000000000000000000005F
:1001A000000000000000000000000000000000004F
:1001B0001508000083020000830200008302000093
:1001C000830200008302000083020000830200001B
:1001D000830200008302000083020000830200000B
:1001E00083020000830200008302000083020000FB
:1001F00083020000830200008302000083020000EB
:10020000830200008302000083020000000000005F
:1002100083020000830200008302000083020000CA
:1002200083020000830200008302000083020000BA
:1002300083020000830200008302000083020000AA
:10024000830200008302000083020000830200009A
:10025000830200008302000083020000830200008A
:1002600083020000830200008302000000F00AB84D
:10027000FEE7FEE7FEE7FEE7FEE7FEE7FEE7FEE756
:10028000FEE7FEE700F002F800F03AF80AA090E876
:10029000000C82448344AAF10107DA4501D100F041
:1002A0002FF8AFF2090EBAE80F0013F0010F18BFD4
:1002B000FB1A43F001031847601100008011000091
:1002C000103A24BF78C878C1FAD8520724BF30C882
:1002D00030C144BF04680C60704700000023002454
:1002E00000250026103A28BF78C1FBD8520728BF46
:1002F00030C148BF0B6070471FB51FBD10B510BDA2
:1003000000F029F81146FFF7F7FF00F09BFB00F023
:1003100047F803B4FFF7F2FF03BC00F04BF800000E
:1003200072B6704762B67047EFF3108072B67047CE
:1003300080F31088704730BF704702480249014A75
:10034000024B70471003002010070020100300200C
:10035000704770477047754600F028F8AE460500B4
:100360006946534620F00700854618B020B5FFF7D0
:10037000E4FFBDE820404FF000064FF000074FF0CB
:1003800000084FF0000B21F00701AC46ACE8C009B3
:10039000ACE8C009ACE8C009ACE8C0098D467047BC
:1003A0000446AFF300802046FFF7B3FF00487047D4
:1003B000AC02002001491820ABBEFEE72600020077
:1003C000704700000148006870470000A890034093
:1003D00008B52948006840F008002849C1F808011C
:1003E0002548006800902448006800902448006870
:1003F00020F00800224908602248006840F0080008
:10040000204908602048006820F008001E49086064
:100410001E48006840F008001C4908601C4800683D
:1004200040F002001A4908604FF00000009002E01E
:100430000098401C009000981428F9D30120154919
:10044000086040F223101449086200200860084642
:10045000406940F470404861042008630F49086017
:100460004FF006000C49C1F8A4004FF0000088606E
:100470004FF00800086008BD08E10F4000E00F40A1
:1004800000740040207400401C7500402875004036
:1004900038E60F40C49F034000900340A090034003
:1004A000F0B50646002420E0701C6043C0EBC0009D
:1004B00000F0040711480057A0F13005104800571C
:1004C000454005F00800800005F0040100EB410004
:1004D00005F00301451885EA0700413040B209499B
:1004E00051F82410084A5054641C082CDCDB00200E
:1004F00005490872084600F083F8F0BD700200203C
:10050000D0130000D81300007A0200201D48006FAD
:1005100040F000401B4908670846006F40F4006047
:1005200008670846006E20F4F86008660846006E0A
:1005300000F5A86008660846006F20F070000867A4
:100540000846006F08670846006F20F400500867EF
:100550000846006F40F0804008670846006F20F0B2
:10056000FE5000F18070086700BF0648006D10F073
:10057000400FFAD00348006F20F40060014908677B
:100580007047000000E00F4008B51548006840F0D3
:1005900020001449C1F80801114800680090124871
:1005A000124908604FF01F0001F1040108604FF08C
:1005B000000001F10401086001F1040108604FF03E
:1005C0000E000B4908604FF000000A4908604FF028
:1005D0001100094908604FF01F000849086008BD74
:1005E00008E10F4000E00F404B434F4C20550240C4
:1005F0000054024020540240105502401C55024055
:100600000146044A002002E00B5C1354401C0828F9
:10061000FADB7047580000200146044A002002E03F
:100620000B5C1354401C0828FADB70474000002084
:1006300070B506460D4614460A20B6FBF0F035307C
:1006400040B22C4908700A20B6FBF0F100FB1160A3
:10065000303040B227494870632D05D92648806C58
:1006600000F0070000F15C050A20B5FBF0F0303027
:1006700040B2204988700A20B5FBF0F100FB11550B
:1006800005F1300040B21B49C87042F20F7084423D
:1006900000D900244FF47A70B4FBF0F0303040B24F
:1006A000144908714FF47A70B4FBF0F100FB114467
:1006B0006420B4FBF0F0303040B20E494871642041
:1006C000B4FBF0F100FB11440A20B4FBF0F0303031
:1006D00040B2084988710A20B4FBF0F100FB1144D4
:1006E00004F1300040B20349C8710349886CFFF738
:1006F000D7FE70BD700200200050034030B50446A4
:100700000D46FFF703FF2A48006840F02000284903
:10071000086028A0FFF780FF29482A4988622A48F4
:10072000C8620863486300202849086025490860BA
:100730002749086027490860274908602749086059
:1007400027482849086004201E49086100204861A4
:10075000254908602548264908602648486026A0A3
:10076000FFF74EFF00202749C8600860022048605C
:100770001C480068401E886200208863012048628F
:1007800088612148006820F0FF0040F040001E49C9
:1007900008604FF080501D4908604FF00100194972
:1007A000C860FFF715FE1A480649C86230BD000050
:1007B00004E60F4055542E362E30337800000000EA
:1007C000700B000038000020200B000024000020E7
:1007D00034000020300000202000002028000020ED
:1007E00000350C000C0000201C000020D00A000086
:1007F00014000020F80A00002020202020202020C3
:1008000000000000005003405CE400E008E100E06C
:10081000480B000010B57F480068401E7E49886282
:1008200001204862FFF7CEFD40F6E4414843000B4B
:100830007A4908607A48006828B179480068401E03
:100840007749086010BD7748007810F0010F1ED17D
:100850007548007810F0010F19D001207249086026
:1008600000207249086001207149086064206C49C9
:10087000086001206B49086000206B4948616D49A0
:1008800008606D486849086348638862DAE766482B
:100890000068644908606448007810F0010F7DD05A
:1008A000624800680B280AD302205F4908600846A6
:1008B0008269604801680420FFF7BAFEC2E75C481D
:1008C000006838B300205A49086058480068C0EBF7
:1008D000C00101EB0010594901EBC000406D5849BF
:1008E000086052480068C0EBC00101EB001053499A
:1008F00001EBC000001D4C4988624C480068C0EB09
:10090000C00101EB00104D4901EBC0002C304649FD
:10091000C86297E74A48006828BB44480068C0EBB3
:10092000C00101EB0010454901EBC00090303E4989
:1009300048633E480068C0EBC00101EB00103F492E
:1009400051F8300018B10620374908600AE03748EE
:100950000068401C35490860012035490860642062
:100960002F4908606EE736480068401E3449086029
:100970002E480068C0EBC00101EB00102F4901EBCD
:10098000C000806D046829480068C0EBC00101EB1D
:1009900000102A4901EBC000C06D00E037E00440C0
:1009A00022480068C0EBC00101EB0010234901EBB5
:1009B000C000006EA0422AD11C480068C0EBC001F4
:1009C00001EB00101D4901EBC000643016490863BB
:1009D00016480068C0EBC00101EB0010174901EB9D
:1009E000C000D0F88C001349096808441149086018
:1009F000084600680C4948610C480068401C0B49D7
:100A0000086001200A49086064200549086000BFA9
:100A100018E700000C000020005003401C000020DC
:100A20003000002024000020380000203400002086
:100A30002800002010000020200B0000E80B000020
:100A40002C00002005210846FFF758FEFFF79CFD0B
:100A5000FFF768FC27E01448006800F01000134915
:100A600008601348D0F8FC0300F001001149086049
:100A70000E48006830B90846006818B904200A49D1
:100A8000086010E00948006818B9022006490860AB
:100A900009E00848006818B908200349086002E026
:100AA000002001490860D6E7FC5302400000002006
:100AB0000050024004000020004000400050004070
:100AC00000600040007000400040024000500240C2
:100AD000496E7075747320617265205046342061D0
:100AE0006E6420504630000000000000000000004E
:100AF00000000000000000004F75747075747320D2
:100B0000617265205046332C205046322C20616E95
:100B1000642050463100000000000000000000008A
:100B200020000000000000000000000000000000A5
:100B300000000000000000000000000000000000B5
:100B400000000000000000005445786153206973E4
:100B500020696E697469616C697A656420666F7278
:100B6000204C616220340000000000000000000002
:100B7000436C69636B2047726164696E67206275BC
:100B800074746F6E20746F20737461727420677256
:100B90006164696E67000000446F6E652067726172
:100BA00064696E67000000000000000000000000A3
:100BB0000000000000000000000000000000000035
:100BC00030313233343536373839303132333435E9
:100BD00036373839303132333435363738393031C9
:100BE00032333435363738000100000057616974FC
:100BF00000000000000000000000000000000000F5
:100C000000000000000000000000000000000000E4
:100C100000000000436865636B696E672074686557
:100C200020636C6F636B0000000000000000000098
:100C300000000000000000000000000014000000A0
:100C400008E10F402000000020000000436C6F63AB
:100C50006B206973206F6E00000000000000000030
:100C60000000000000000000000000000000000084
:100C7000000000000500000041626F72743A2050CD
:100C80006F7274204620636C6F636B206973206FF2
:100C90006666000000000000000000000000000088
:100CA00001000000576169740000000000000000AE
:100CB0000000000000000000000000000000000034
:100CC00000000000000000000000000043686563B1
:100CD0006B696E6720746865206469726563746906
:100CE0006F6E000000000000000000000000000027
:100CF0000000000014000000005402401F0000002B
:100D00000E000000446972656374696F6E20697338
:100D1000204F4B0000000000000000000000000019
:100D200000000000000000000000000005000000BE
:100D300041626F72743A20506F7274204620646969
:100D400072656374696F6E2069732077726F6E6766
:100D500000000000000000000100000057616974FD
:100D60000000000000000000000000000000000083
:100D70000000000000000000000000000000000073
:100D800000000000436865636B696E6720746865E6
:100D900020616C7465726E6174652066756E637433
:100DA000696F6E2072656769737465721400000064
:100DB000205402401F00000000000000414653453F
:100DC0004C206973204F4B00000000000000000021
:100DD0000000000000000000000000000000000013
:100DE000000000000500000041626F72743A20505C
:100DF0006F7274204620414653454C20697320771A
:100E0000726F6E670000000000000000000000002C
:100E1000010000005761697400000000000000003C
:100E200000000000000000000000000000000000C2
:100E3000000000000000000000000000436865633F
:100E40006B696E67207468652070756C6C757020B6
:100E5000726567697374657200000000000000002D
:100E60000000000014000000105502401F000000A8
:100E70001100000050756C6C207570206973204F54
:100E80004B00000000000000000000000000000017
:100E9000000000000000000000000000050000004D
:100EA00041626F72743A20506F7274204620505520
:100EB000522069732077726F6E6700000000000097
:100EC000000000000000000001000000576169748C
:100ED0000000000000000000000000000000000012
:100EE0000000000000000000000000000000000002
:100EF00000000000436865636B696E672074686575
:100F000020656E61626C65207265676973746572D5
:100F100000000000000000000000000014000000BD
:100F20001C5502401F0000001F0000004C616220A1
:100F30003420696E6974206973204F4B00000000F3
:100F400000000000000000000000000000000000A1
:100F5000000000000500000041626F72743A2050EA
:100F60006F727420462044454E2069732077726F5B
:100F70006E6700000000000000000000000000009C
:100F8000000000005075736820616E6420686F6C0B
:100F900064205357312028504634290000000000B7
:100FA00000000000000000000000000043686563CE
:100FB0006B696E6720535731207072657373656477
:100FC0000000000000000000000000000000000021
:100FD00000000000E8030000FC5302401F00000076
:100FE00003000000477261646572207365657320B9
:100FF0006120526564000000000000000000000055
:1010000000000000000000000000000014000000CC
:10101000535731207075736865642073686F756C01
:101020006420626520526564204C45440000000045
:1010300000000000000000000000000052656C6528
:1010400061736520626F7468207377697463686583
:10105000730000000000000000000000000000001D
:1010600000000000436865636B696E6720626F74FF
:10107000682072656C6561736564000000000000A3
:10108000000000000000000000000000E803000075
:10109000FC5302401F000000110000004772616411
:1010A00065722073656573204C4544206F66660049
:1010B0000000000000000000000000000000000030
:1010C0000000000005000000426F7468207377691B
:1010D00074636865732072656C6561736564207301
:1010E000686F756C64206265204C4544206F6666AD
:1010F000000000005075736820616E6420686F6C9A
:101100006420535732202850463029000000000048
:10111000000000000000000000000000436865635C
:101120006B696E6720535732207072657373656404
:1011300000000000000000000000000000000000AF
:1011400000000000E8030000FC5302401F00000004
:101150001800000047726164657220736565732032
:101160006120477265656E0000000000000000000D
:10117000000000000000000000000000140000005B
:10118000535732207075736865642073686F756C8F
:101190006420626520477265656E204C45440000FE
:1011A00000000000000000000000000052656C65B7
:1011B00061736520626F7468207377697463686512
:1011C00073000000000000000000000000000000AC
:1011D00000000000436865636B696E6720626F748E
:1011E000682072656C656173656400000000000032
:1011F000000000000000000000000000E803000004
:10120000FC5302401F00000011000000477261649F
:1012100065722073656573204C4544206F666600D7
:1012200000000000000000000000000000000000BE
:101230000000000005000000426F746820737769A9
:1012400074636865732072656C656173656420738F
:10125000686F756C64206265204C4544206F66663B
:10126000000000005075736820616E6420686F6C28
:101270006420626F74682053573120535732000046
:1012800000000000000000000000000043686563EB
:101290006B696E6720626F74682073776974636826
:1012A0006573207072657373656400000000000050
:1012B00000000000E8030000FC5302401E00000094
:1012C00004000000477261646572207365657320D5
:1012D0006120426C75650000000000000000000005
:1012E00000000000000000000000000014000000EA
:1012F000426F7468207075736865642073686F75D9
:101300006C6420626520426C7565204C4544000089
:1013100000000000000000000000000052656C6545
:1013200061736520626F74682073776974636865A0
:10133000730000000000000000000000000000003A
:1013400000000000436865636B696E6720626F741C
:10135000682072656C6561736564000000000000C0
:10136000000000000000000000000000E803000092
:10137000FC5302401F00000011000000477261642E
:1013800065722073656573204C4544206F66660066
:10139000000000000000000000000000000000004D
:1013A0000000000005000000426F74682073776938
:1013B00074636865732072656C656173656420731E
:1013C000686F756C64206265204C4544206F6666CA
:1013D000010A05070F0C08020200000006000000C9
:1013E00003000000000000000100000007000000F2
:1013F00004000000050000000300000004000000DD
:1014000000000000020000000600000007000000CD
:10141000010000000500000038140000000000205A
:1014200038000000C00200007014000038000020E6
:10143000D8060000DC0200000000000000000000F0
:1014400000000000803801000000000000000000E3
:10145000000000000000000000000000000000008C
:10146000000000000000000000000000000000007C
:040000050000026D88
:00000001FF
