:020000040000FA
:10000000600700206D020000710200007302000012
:100010007502000077020000790200000000000075
:100020000000000000000000000000007B02000053
:100030007D020000000000007F020000310A000085
:10004000830200008302000083020000830200009C
:10005000830200008302000083020000830200008C
:10006000830200008302000083020000830200007C
:10007000830200008302000083020000830200006C
:10008000830200008302000083020000830200005C
:10009000830200008302000083020000830200004C
:1000A000830200008302000083020000830200003C
:1000B000830200008302000083020000830200002C
:1000C000830200008302000083020000830200001C
:1000D000830200008302000083020000830200000C
:1000E00083020000830200008302000083020000FC
:1000F00083020000830200008302000083020000EC
:1001000083020000830200008302000083020000DB
:1001100083020000830200008302000083020000CB
:1001200083020000830200008302000083020000BB
:1001300083020000830200008302000083020000AB
:1001400000000000000000000000000000000000AF
:100150008302000083020000250D000083020000DE
:10016000000000000000000000000000000000008F
:10017000000000000000000000000000000000007F
:10018000000000000000000000000000000000006F
:10019000000000000000000000000000000000005F
:1001A000000000000000000000000000000000004F
:1001B000450D00008302000083020000830200005E
:1001C000830200008302000083020000830200001B
:1001D000830200008302000083020000830200000B
:1001E00083020000830200008302000083020000FB
:1001F00083020000830200008302000083020000EB
:10020000830200008302000083020000000000005F
:1002100083020000830200008302000083020000CA
:1002200083020000830200008302000083020000BA
:1002300083020000830200008302000083020000AA
:10024000830200008302000083020000830200009A
:10025000830200008302000083020000830200008A
:1002600083020000830200008302000000F00AB84D
:10027000FEE7FEE7FEE7FEE7FEE7FEE7FEE7FEE756
:10028000FEE7FEE700F002F800F03AF80AA090E876
:10029000000C82448344AAF10107DA4501D100F041
:1002A0002FF8AFF2090EBAE80F0013F0010F18BFD4
:1002B000FB1A43F001031847BC370000DC3700008D
:1002C000103A24BF78C878C1FAD8520724BF30C882
:1002D00030C144BF04680C60704700000023002454
:1002E00000250026103A28BF78C1FBD8520728BF46
:1002F00030C148BF0B6070471FB51FBD10B510BDA2
:1003000000F029F81146FFF7F7FF01F0A3FC00F019
:1003100047F803B4FFF7F2FF03BC00F04BF800000E
:1003200072B6704762B67047EFF3108072B67047CE
:1003300080F31088704730BF704702480249014A75
:10034000024B70476003002060070020600300201C
:10035000704770477047754600F028F8AE460500B4
:100360006946534620F00700854618B020B5FFF7D0
:10037000E4FFBDE820404FF000064FF000074FF0CB
:1003800000084FF0000B21F00701AC46ACE8C009B3
:10039000ACE8C009ACE8C009ACE8C0098D467047BC
:1003A0000446AFF300802046FFF7B3FF00487047D4
:1003B000FC02002001491820ABBEFEE72600020027
:1003C000704700000821084A916200BF0649496849
:1003D00011F0080FFAD005490968C1F30B004FF07E
:1003E0000801014AD160704700800340A8800340A3
:1003F00008B52A48006840F010002949C1F80801F2
:100400002648006800902748006820F0040025492D
:1004100008602548006840F004002349086023482C
:10042000006820F00400214908602148006840F07D
:1004300004001F4908601A48D0F8000140F48030D9
:100440001749C1F800011548006800900846D0F827
:10045000000120F440701749086040F2231016494B
:1004600008620846006820F00800086008464069F5
:1004700020F4704048611148006820F00F0000F13E
:1004800001000E4908604FF006000B49C1F8A400B6
:100490000846006840F00800086008BD08E10F4009
:1004A00000E00F4000440240204402401C4502404E
:1004B0002845024000E10F4000800340A080034037
:1004C0000148006870470000A890034008B52B4819
:1004D000006840F008002A49C1F808012748006870
:1004E00000902648006800902648006820F0080028
:1004F000244908602448006840F008002249086048
:100500002248006820F00800204908602048006860
:1005100040F008001E4908601948D0F8000140F476
:1005200000301749C1F800014FF00000009002E0D0
:100530000098401C009000981428F9D30120154918
:10054000086040F223101449086200200860084641
:10055000406940F4704048610320086304200F495B
:1005600008604FF006000C49C1F8A4004FF00000ED
:1005700088604FF00800086008BD000008E10F40E7
:1005800000E00F4000740040207400401C750040E3
:1005900028750040C49F034000900340A090034092
:1005A00001464FF4FA704843800A401C704700002F
:1005B000F0B50646002420E0701C6043C0EBC0008C
:1005C00000F0040711480057A0F13005104800570B
:1005D000454005F00800800005F0040100EB4100F3
:1005E00005F00301451885EA0700413040B209498A
:1005F00051F82410084A5054641C082CDCDB0020FD
:1006000005490872084600F095F9F0BDC0020020C7
:10061000293A0000343A0000CA02002008B5154803
:10062000006840F020001449C1F808011148006832
:1006300000901248006840F002001049086010481D
:10064000006820F002000E4908600E48006840F083
:1006500002000C4908600C48006820F002000A49BA
:1006600008600A48D0F8FC0320F00200084908603E
:1006700008BD000008E10F4000E00F4000540240B8
:10068000205402401C5502402855024000500240B0
:10069000FC5302400348006880F002000249C1F8A0
:1006A000FC037047FC5302400050024010B5002488
:1006B00004E00021012001F0A7FA641CB4F5FC7FDE
:1006C000F7DB0021084600F0DEF810BD08B54E4803
:1006D000006840F010004D49C1F804010846D0F808
:1006E000080140F00100C1F8080149480068009085
:1006F0004848006840F0C000464908604648006825
:1007000040F02C00444908600846006820F0C00012
:1007100008604248006840F0EC00404908604048EA
:100720000068404900EA01003F4908443C4908602C
:100730000846006820F07F400860A1F104000068CE
:1007400020F0EC00A1F1040108603848406820F076
:100750000200364948600846406820F004004860BE
:100760003348006820F00F00314908602F480069C5
:1007700020F0FF0000F118002C49086108460068CD
:100780004FF6C07120EA0100284908600846006859
:1007900020F0300008600846006820F00F0000F1EB
:1007A000070008600846406840F0020048604FF0CB
:1007B00000004FF04021C1F80002009002E00098D4
:1007C000401C009000980A28F9D38020194908603D
:1007D0004FF021014FF0000001F016FA6FF04001D8
:1007E000002001F011FA0421002001F00DFA14217B
:1007F000002001F009FA2021002001F005FA0C2167
:10080000002001F001FA08BD04E10F4000E00F40B4
:1008100008E10F4000440040204400401C450040D7
:100820002C450040FF000FFF002220000080004008
:10083000C88F00400042004070B5054600210120ED
:1008400001F0E2F900240AE0A5F1200000EB8000AD
:10085000064A10440157012001F0D6F9641C052C0A
:10086000F2DB0021012001F0CFF970BD041D000072
:1008700010B5044603E02078FFF7DEFF641C207803
:100880000028F8D110BD70B504460D460B2C01DCD4
:10089000052D00DD70BDC4EBC40040F0800041B206
:1008A000002001F0B1F945F0400041B2002001F014
:1008B000ABF900BFEEE700001D48006F40F00040BC
:1008C0001B4908670846006F40F400600867084647
:1008D000006E20F4F86008660846006E00F5A86017
:1008E00008660846006F20F0700008670846006F31
:1008F00008670846006F20F4005008670846006F3C
:1009000040F0804008670846006F20F0FE5000F17C
:100910008070086700BF0648006D10F0400FFAD0E5
:100920000348006F20F40060014908677047000029
:1009300000E00F400146044A002002E00B5C135423
:10094000401C0828FADB7047A80000200146044A32
:10095000002002E00B5C1354401C0828FADB7047AF
:100960009000002070B506460D4614460A20B6FBDE
:10097000F0F0353040B22C4908700A20B6FBF0F197
:1009800000FB1160303040B227494870632D05D913
:100990002648806C00F0070000F15C050A20B5FBDA
:1009A000F0F0303040B2204988700A20B5FBF0F1F9
:1009B00000FB115505F1300040B21B49C87042F2EE
:1009C0000F70844200D900244FF47A70B4FBF0F029
:1009D000303040B2144908714FF47A70B4FBF0F132
:1009E00000FB11446420B4FBF0F0303040B20E49FB
:1009F00048716420B4FBF0F100FB11440A20B4FB01
:100A0000F0F0303040B2084988710A20B4FBF0F1B0
:100A100000FB114404F1300040B20349C87103499E
:100A2000886CFFF7C5FD70BDC00200200050034078
:100A300010B5FFF72FFEFFF72DFEFFF7C3FC0749A8
:100A4000086008460068FFF7ABFD05490860012013
:100A500004490860FFF71EFE10BD000004000020DE
:100A6000000000200800002000214FF0E02211616A
:100A70009161411E51610649096821F07F4141F0B1
:100A80000051034A116007214FF0E02211617047C5
:100A900020ED00E038B504460D46FFF70DFF754820
:100AA000006840F020007349086073A0FFF74EFF14
:100AB0007448754988627548C862086348630020B5
:100AC000734908607049086072490860724908609B
:100AD00072490860724908607248734908600E20C4
:100AE00069490861002048617049086070480460E5
:100AF0004FF0FF306F4908606F48057000206F4964
:100B000008606F4908606A480068022803D16D4890
:100B10006D4908600AE066480068032803D16B4805
:100B20006949086002E06A486749086062480078DD
:100B300028B968486449486000F044FD3AE05E48DE
:100B4000007801282BD164485F49486001205B4947
:100B500008604848006840F010004649086000F00E
:100B600031FD00205D49C86008600220486041F600
:100B70003F7088620020886301204862886158487D
:100B8000006820F47F0040F4600055490860402070
:100B9000544908604FF001005049C8600AE04648D7
:100BA0000078022803D150484749486002E04F4886
:100BB000454948604EA0FFF7BDFE5048006840F030
:100BC00020004F49C1F808014C48006800904B488C
:100BD000006800904B48006820F470204949086084
:100BE000A1F10400006820F01000A1F104010860E8
:100BF0004548006820F010004349086043480068F9
:100C000020F01000414908604148006840F01000A1
:100C10003F4908603F48006840F010003D490860C7
:100C20004FF000003C49C86008604FF00200486087
:100C30001D480068A0F1010088624FF00000886341
:100C40004FF00100486288613448006820F0FF00DE
:100C500040F04000314908604FF080502149086061
:100C60004FF001002C49C860FFF730FC2C480649C2
:100C7000C86238BD04E60F4055542E362E30337806
:100C80000000000064200000880000201420000004
:100C90005C0000206C00002068000020580000204C
:100CA0006000002000350C001800002054000020D7
:100CB0000C000020100000205000002070000020D8
:100CC00074000020FC1E000048000020241F0000CB
:100CD0004C1F0000741F00009C1F000000400340D8
:100CE00044E400E008E100E0C41F0000EC1F000045
:100CF00020202020202020200000000008E10F40BC
:100D000000E00F402C5502400054024020540240A5
:100D10001C55024010550240005003405CE400E0C6
:100D20003C200000012004494862044800684FEA62
:100D3000101003490860704700400340A89003402A
:100D400000C000402DE9F04F86B0FA480068401E10
:100D5000F949886201204862FFF7B2FB814640F6FC
:100D6000E44009FB00F0000BF4490860F448006817
:100D700038B1F3480068401EF149086006B0BDE88C
:100D8000F08FF048007810F0010F1ED1EE48007887
:100D900010F0010F19D00120EB4908600020EB4949
:100DA00008600120EA4908603220E5490860012016
:100DB000E44908600020E4494861E6490860E648E3
:100DC000E149086348638862D8E7DF480068DD4985
:100DD0000860DD48007810F0010F72D0DB48006831
:100DE00017280AD30220D849086008468269D948E2
:100DF00001680E20FFF7B6FDC0E7D548006800285F
:100E000070D00020D2490860D048006800EB800113
:100E1000C1EB8010D14901EB8000406DD0490860E2
:100E2000CA48006800EB8001C1EB8010CB4901EBA0
:100E30008000401CC4498862C448006800EB8001FF
:100E4000C1EB8010C54901EB80002930BE49C86262
:100E5000BE48006800EB8001C1EB8010BF4901EB88
:100E60008000D0F8E840002C05DD012C03DC0121D6
:100E7000601EBC4A1154002C07DAB4F1FF3F04DBBA
:100E80000021C4F1FF30B74A1154642C51D100F055
:100E900041FC05462DB9B448AB49486306200860BB
:100EA00047E0012D05D1B148A749486306200860F5
:100EB0003FE0022D06D1AE48A349486306200860F2
:100EC00037E067E3032D05D1AA489F494863062010
:100ED00008602EE0042D06D1A7489B4948630620F0
:100EE000086026E0CDE0052D05D1A4489649486369
:100EF000062008601DE0062D05D1A14892494863EF
:100F00000620086015E0072D05D19E488E494863EC
:100F1000062008600DE0142D0BD19B488A49086318
:100F20008C48006828448B49086008460068864958
:100F30004861652C37D100F041FC05462DB9934836
:100F400081494863062008602DE0012D05D19048B5
:100F50007D4948630620086025E0022D05D18D48B3
:100F600079494863062008601DE0032D05D18A48B1
:100F7000754948630620086015E0042D05D18748AF
:100F800071494863062008600DE0142D0BD1844898
:100F90006D4908636F48006828446E490860084638
:100FA000006869494861662C06D17E48C0F8009007
:100FB0007D4800687D490860672C06D17C48C0F8F0
:100FC0000090794800687B490860682C06D17A480F
:100FD000C0F800907448006878490860692C06D110
:100FE0007748C0F8009070480068764908606A2C1D
:100FF00046D17548C0F800906B4800687349086096
:101000000846006870490A686E4909686C4B1B689D
:10101000CDE90231CDE904206848006866490968D5
:10102000CDE9001063480368614802685F480168C1
:101030005C48006800F016FD0546464800682844F4
:1010400044490860084600683F49486160480068B4
:10105000642802DD5F48486312E05D4800685A2852
:1010600003DA5D48384948630AE059480068C0F12E
:101070006400C0EB0010594901EB40003249C862DE
:101080007CE637480068E0BB3048006800EB800130
:10109000C1EB8010314911F82000012819D12B48EB
:1010A000006800EB8001C1EB80102C4901EB80004F
:1010B000C030254948630620086024480068401C69
:1010C0002249086001202249086032201C4908603A
:1010D00042E11E48006800EB8001C1EB80101F490F
:1010E00001EB8000C0301849486318480068401C74
:1010F000164908600120164908603220104908602E
:101100002AE1FFE716480068401E154908600F48AD
:10111000006800EB8001C1EB8010104901EB8000FA
:1011200090F8580028B92E482E49096850F82160D7
:101130006EE059E0180000200050034054000020E9
:10114000680000205C000020880000206C00002067
:10115000600000201C00002014200000DC200000A3
:101160006400002014000020C9360000E6360000AC
:10117000083700002B3700004E37000071370000A1
:1011800092370000B3370000B0360000F737000098
:101190001A3800003C3800005D3800007E3800003E
:1011A000D73700002000002000000020340000207D
:1011B0002400002038000020280000203C000020EF
:1011C0002C000020400000203000002044000020BF
:1011D00078000020C13800009E380000DF38000091
:1011E000E41E00000C000020EB48006800EB8001CA
:1011F000C1EB8010E94901EB800090F8580001280C
:1012000005D1E748E749096850F8216000E0002669
:10121000E148006800EB8001C1EB8010DF4901EB81
:101220008000C06D0644D6F800A0DB48006800EBE3
:101230008001C1EB8010D94901EB800090F860007B
:10124000E0B9D548006800EB8001C1EB8010D349BC
:1012500001EB80006430D449096850F82170CE4811
:10126000006800EB8001C1EB8010CC4901EB8000ED
:101270007C30CD49096850F821803EE0C6480068BE
:1012800000EB8001C1EB8010C44901EB800090F8B5
:10129000600001281CD1C048006800EB8001C1EB50
:1012A0008010BE4901EB80006430BE49096850F8E7
:1012B0002170B948006800EB8001C1EB8010B7498C
:1012C00001EB80007C30B749096850F8218014E0B8
:1012D000B148006800EB8001C1EB8010AF4901EB21
:1012E0008000476EAC48006800EB8001C1EB8010C5
:1012F000AA4901EB8000D0F87C800AEA070040454B
:101300002AD1A548006800EB8001C1EB8010A349F9
:1013100001EB80009430A54908639F48006800EB0A
:101320008001C1EB80109D4901EB8000D0F8BC002A
:101330009F49096808449E490860084600689B491F
:10134000486195480068401C93490860012099490C
:101350000860322098490860002418E19748005D31
:1013600001287DD104EB8400954901EB4010007801
:1013700028B98B488C49096850F821600EE004EBCD
:1013800084008F4901EB40100078012805D1844882
:101390008449096850F8216000E0002604EB8400CD
:1013A000874901EB401040680644D6F800A004EBE2
:1013B000840001EB4010007A98B904EB840001EB43
:1013C00040100C307849096850F8217004EB840013
:1013D0007B4901EB401024307349096850F82180A3
:1013E00027E004EB8400764901EB4010007A0128E5
:1013F00013D104EB840001EB40100C3069490968FB
:1014000050F8217004EB84006D4901EB401024304A
:101410006449096850F821800BE004EB84006849B6
:1014200001EB4010C76804EB840001EB4010D0F8DA
:1014300024800AEA0700404516D14FF0010B04EB67
:1014400084005F4901EB401090F83C0001280DD169
:1014500004EB840001EB401078305449486300E00D
:1014600094E00620086001E04FF0000B04EB8400DC
:10147000534901EB401090F83C0010B9BBF1010F4B
:101480000BDA04EB84004E4901EB401090F83C006D
:1014900001287BD1BBF1000F78D104EB84004849CF
:1014A00001EB401090F83D0028B93D483E490968DD
:1014B00050F821600FE004EB8400414901EB40103B
:1014C00090F83D00012805D135483649096850F8A3
:1014D000216000E0002604EB8400394901EB401054
:1014E000006C0644D6F800A004EB840001EB401029
:1014F00090F8440098B904EB840001EB40104830A8
:101500002949096850F8217004EB84002C4901EB4B
:10151000401060302449096850F8218028E004EB2D
:101520008400274901EB401090F84400012813D1B2
:1015300004EB840001EB401048301A49096850F868
:10154000217004EB84001E4901EB40106030154906
:10155000096850F821800BE004EB8400184901EB86
:101560004010876C04EB840001EB4010D0F86080E1
:101570000AEA0700404509D104EB8400104901EB59
:10158000401078300949486306200860641C012C2B
:10159000FFF6E4AE00BF17E46C000020DC20000082
:1015A000E41E0000100000200C0000208800002035
:1015B0001C000020600000206800002014000020B3
:1015C0001036000008B52748006840F001002649A1
:1015D000C1F804010846D0F8080140F00100C1F844
:1015E00008012248006800902048006800902048C8
:1015F000006B20F001001E4908634FF02B00486289
:101600004FF01A0088624FF07000C86219480068F5
:1016100020F00F0017490860084600680860144869
:10162000006B40F00100124908631348006840F065
:101630000300114908601148006840F003000F4999
:1016400008600F48006820F0FF0000F111000C490D
:101650000860A1F10400006820F00300A1F104017A
:10166000086008BD04E10F4000E00F4008E10F40B2
:1016700000C00040C8CF0040204400401C4500404E
:101680002C450040002142F21072904209D32A22D8
:101690001F4B1A702E225A702A229A70DA701A7111
:1016A0002BE04FF47A72B0FBF2F101F13002184BEB
:1016B0001A702E225A704FF47A72B0FBF2F302FBCA
:1016C00013006422B0FBF2F101F13002104B9A706A
:1016D0006422B0FBF2F302FB13000A22B0FBF2F12A
:1016E00001F130020A4BDA700A22B0FBF2F302FB7E
:1016F000130000F13002064B1A712022044B5A717C
:1017000063229A716D22DA7100221A72704700000A
:101710007C0000202548006810F0080F43D02348C3
:10172000406910F4704F01D00220704720480068D3
:10173000022805D11F48006800F00F00012812D1CF
:101740001B480068032804D11A48006810F00F0FE6
:1017500009D117480068052807D11648006800F02D
:101760000F00082801D00320DFE71348006810F0BD
:10177000080F01D00420D8E70F48006810F0040FCC
:1017800001D10520D1E70C48006810F0020F01D10B
:101790000620CAE70848006810F0010F01D00720B2
:1017A000C3E71420C1E70120BFE700000080034029
:1017B0000C000020A0800340A48003409E480078D5
:1017C000032801D1142070479B480078002842D19B
:1017D0009A48006810F0010F04D09948006810F092
:1017E000010F01D10120EEE79648006800F00300E8
:1017F000032811D19348FC30006800F0030003284F
:101800000AD19148006810F0030F05D18E48001DE1
:101810000068C0B2112801D00320D4E78B48406A89
:1018200080B22B2813D18948806A00F03F001A2823
:101830000DD18648C06A702809D18448006B10F029
:10184000010F04D08248006810F00F0F01D0022071
:10185000B9E71420B7E77848007801287ED17748A7
:10186000006810F0010F09D07448006810F0100FE4
:1018700004D07348006810F0010F01D10120A2E7E5
:1018800070482038006800F0C000C02819D16D48A9
:10189000006800F0EF002F2813D16B480C38006867
:1018A00000F0EF00EF280CD16748006810F0EF0F50
:1018B00007D16548001D006820F470206549884202
:1018C00001D003207FE76448006810F47F4F29D1DE
:1018D0006148006810F0800F24D15F48006810F064
:1018E000400F1FD15C48006810F0300F1AD15A48E1
:1018F000006800F00F00072814D15748406810F026
:10190000040F0FD15448406800F00200022809D1AA
:1019100051480069C0B2182804D15048006810F03E
:101920000F0F01D004204EE74848406A80B22B28B0
:1019300013D14648806A00F03F001A280DD1434871
:10194000C06A702809D14148006B10F0010F04D023
:101950003F48006810F00F0F03D000E003E00220C2
:1019600031E714202FE734480078022862D1334849
:10197000006810F0100F04D03148006810F0010F1B
:1019800001D101201FE72F482038006800F0C00077
:10199000C0281AD12B48006800F0EC002C2814D184
:1019A00029480C38006800F0EC00EC280DD12648DE
:1019B000006810F0EC0F08D12348001D006828498A
:1019C000084024491139884201D00320FBE622480F
:1019D000006810F47F4F29D11F48006810F0800F75
:1019E00024D11D48006810F0400F1FD11A4800682C
:1019F00010F0300F1AD11848006800F00F000728C7
:101A000014D11548406810F0040F0FD112484068F7
:101A100000F00200022809D10F480069C0B218285E
:101A200004D10E48006810F00F0F01D00420CAE660
:101A30001420C8E60020C6E65000002004E10F4054
:101A400008E10F40204400402845004000C000400D
:101A5000C8CF00401122200000800040C88F004005
:101A600000FFF0FF2DE9F04F86B081460FAC94E8FF
:101A7000F010DDF850800020029009EB02002044B5
:101A8000304400EB0C0AC8182844384400EB080B1B
:101A900009FB01F002FB030004FB050006FB070045
:101AA0000CFB0800059009FB09F002FB020004FB97
:101AB000040006FB06000CFB0C00049001FB01F087
:101AC00003FB030005FB050007FB070008FB0800FC
:101AD0000390059800EB80000AFB1B00019041E099
:101AE0004FEA69095210641076104FEA6C0C4910E5
:101AF0005B106D107F104FEA68080298401C02903E
:101B000009EB02002044304400EB0C0AC8182844BA
:101B1000384400EB080B09FB01F002FB030004FB57
:101B2000050006FB07000CFB0800059009FB09F007
:101B300002FB020004FB040006FB06000CFB0C0089
:101B4000049001FB01F003FB030005FB050007FB0C
:101B5000070008FB08000390059800EB80000AFBD3
:101B60001B0001904BF2045E0198704504DCCEF13D
:101B7000000E0198704502DA02980828B0DB02983E
:101B8000082803DB002006B0BDE8F08F049800EBC6
:101B900080000AFB1A00DDF80CE00EEB8E0E0BFB4A
:101BA0001BEE00FB0EF04FF0640E90FBFEF0009079
:101BB000019800FB00FE00989EFBF0F0DFF844E087
:101BC000CEF8000070460068642801DD0020DAE7E6
:101BD0000C480068622801DB3C20D4E70948006813
:101BE000602801DB2820CEE7064800685E2801DB7C
:101BF0001420C8E7034800685A2801DB0A20C2E71E
:101C00000020C0E77800002098B900BF0F4AD268D2
:101C100002F01002102AF9D000220D4B1A600B4A74
:101C2000916000BF094AD26802F01002102AF9D070
:101C30000AE000BF054AD26812F0020FFAD0402233
:101C4000034B1A60014A9160704700000080004019
:101C50000041004001210220FEF71CFFFEF7C8FBF7
:101C6000FEF734FD1848FEF7FFFEFEF7D7FCFEF73F
:101C700059FBFEF71BFD00210846FEF704FE13A0EA
:101C8000FEF7F6FD01210020FEF7FDFD12A0FEF794
:101C9000EFFD05210020FEF7F6FD15A0FEF7E8FD9B
:101CA00011E00020144908600846006801280AD1A4
:101CB00005210420FEF7E7FD10480068FFF7E2FC6D
:101CC0000F48FEF7D5FDECE780841E004C616220D2
:101CD00031343A20000000004D6561737572656D06
:101CE000656E74206F662044697374616E6365006D
:101CF00044203D20000000000800002000000020DB
:101D00007C000020000000000000005F00000007D1
:101D1000000700147F147F14242A7F2A122313083B
:101D2000646236495522500005030000001C224120
:101D3000000041221C0014083E081408083E080850
:101D4000005030000008080808080060600000200B
:101D5000100804023E5149453E00427F4000426166
:101D60005149462141454B311814127F10274545F2
:101D700045393C4A49493001710905033649494909
:101D800036064949291E0036360000005636000046
:101D900008142241001414141414004122140802DF
:101DA00001510906324979413E7E1111117E7F4968
:101DB0004949363E414141227F4141221C7F4949E8
:101DC00049417F090909013E4149497A7F080808CC
:101DD0007F00417F41002040413F017F08142241A4
:101DE0007F404040407F020C027F7F0408107F3E0E
:101DF0004141413E7F090909063E4151215E7F096B
:101E0000192946464949493101017F01013F4040B6
:101E1000403F1F2040201F3F4038403F63140814BC
:101E20006307087008076151494543007F4141003D
:101E300002040810200041417F0004020102044016
:101E400040404040000102040020545454787F4830
:101E50004444383844444420384444487F38545437
:101E60005418087E0901020C5252523E7F080404A5
:101E70007800447D40002040443D007F102844000D
:101E800000417F40007C041804787C080404783802
:101E9000444444387C14141408081414187C7C0836
:101EA0000404084854545420043F4440203C40401B
:101EB000207C1C2040201C3C4030403C4428102802
:101EC000440C5050503C4464544C4400083641008B
:101ED00000007F0000004136080010080810081FAD
:101EE000247C241F0040004000500040004002407D
:101EF000004002400040024000400240416E616CE0
:101F00006F6720696E707574206973205045322F99
:101F100041494E31000000000000000000000000B8
:101F200000000000416E616C6F6720696E7075740F
:101F3000206973205045332F41494E300000000086
:101F4000000000000000000000000000416E616C15
:101F50006F6720696E707574206973205045352F46
:101F600041494E3800000000000000000000000061
:101F70000000000053696D756C61746564204E6FDC
:101F80006B696135313130206F6E205041312D3019
:101F90000000000000000000000000005265616CBD
:101FA000204E6F6B696135313130206F6E205041AA
:101FB000372D322B53636F7065206F6E2050413187
:101FC0002D3000005265616C204E6F6B69613531B8
:101FD0003130206F6E205041372D3200000000005C
:101FE0000000000000000000000000004E6F204EC6
:101FF0006F6B6961353131302C206E6F2073636FE8
:1020000070650000000000000000000000000000FB
:1020100000000000200000000000000000000000A0
:1020200000000000000000000000000000000000B0
:10203000000000000000000000000000544578612E
:102040005320697320696E697469616C697A65648B
:1020500020666F72204C6162203134000000000065
:1020600000000000436C69636B2047726164696E15
:102070006720627574746F6E20746F207374617260
:10208000742067726164696E67000000446F6E655A
:102090002067726164696E67000000000000000044
:1020A0000000000000000000000000000000000030
:1020B00000000000303132333435363738393031B2
:1020C00032333435363738393031323334353637C8
:1020D0003839303132333435363738000157616999
:1020E000740000000000000000000000000000007C
:1020F00000000000000000000000000000000000E0
:102100000000000000436865636B696E67207468B7
:10211000652054457861535F496E697428292069A8
:102120006E20706172616D65746572000000000060
:10213000010000000200000008E10F400000000064
:10214000000000000000000000000000000000008F
:10215000000000000000000001000000010000007D
:10216000000000000000000000000000010000006E
:10217000466972737420706172616D657465722056
:10218000636F72726563740000000000000000005D
:1021900000000000000000000000000041626F72BB
:1021A000743A2054457861532E6820626164206F30
:1021B0007220666F7220646966666572656E74204F
:1021C0006C6162000000000001576169740000004A
:1021D00000000000000000000000000000000000FF
:1021E00000000000000000000000000000000000EF
:1021F00000436865636B696E672074686520537976
:10220000735469636B20636F6E74726F6C207265B8
:10221000676973746572000000000000140000001C
:102220000200000010E000E00200000007000000D3
:10223000000000000000000000000000000000009E
:102240000000000007000000000000000000000087
:1022500000000000000000000000000053797354EB
:1022600069636B2073657420636F72726563746C4D
:1022700079000000000000000000000000000000E5
:10228000000000000000000041626F72743A2053A9
:1022900079735469636B206F66662C2077726F6E5A
:1022A000672C206F72206E6F20696E7473000000BF
:1022B0000000000001576169740000000000000088
:1022C000000000000000000000000000000000000E
:1022D00000000000000000000000000000436865EE
:1022E000636B696E67207468652053797354696302
:1022F0006B2072656C6F61642072656769737465C9
:102300007200000000000000140000000200000045
:1023100014E000E002000000FFFFFF0000000000EA
:1023200000000000000000000000000000000000AD
:102330007F841E000000000000000000000000007C
:1023400000000000000000005379735469636B20A3
:1023500072656C6F616420697320636F727265636C
:1023600074000000000000000000000000000000F9
:102370000000000041626F72743A2053797354690F
:10238000636B20696E7465727275707473206E6F02
:102390007420343020487A00000000000000000063
:1023A0000157616974000000000000000000000097
:1023B000000000000000000000000000000000001D
:1023C000000000000000000000436865636B696E58
:1023D0006720746865204144433020636C6F636BF1
:1023E00000000000000000000000000000000000ED
:1023F00000000000140000000200000000E10F4097
:1024000002000000000001000000000000000000C9
:1024100000000000000000000000000000000100BB
:1024200000000000000000000000000000000000AC
:10243000000000004144433020636C6F636B2069EF
:1024400073206F6E0000000000000000000000001C
:10245000000000000000000000000000000000007C
:1024600041626F72743A204144433020636C6F6361
:102470006B206973206F666600000000000000009A
:10248000000000000000000000000000005761692B
:1024900074000000000000000000000000000000C8
:1024A000000000000000000000000000000000002C
:1024B0000000000000436865636B696E6720746804
:1024C00065204144433020636F6E666967757261B1
:1024D00074696F6E00000000000000000000000042
:1024E000320000000200000008E10F40020000007E
:1024F00000000000000000000000000000000000DC
:1025000000000000000000000000000000000000CB
:1025100000000000000000000000000000000000BB
:102520004144433020636F6E6669677572617469F8
:102530006F6E207465737420646F6E650000000018
:10254000000000000000000000000000000000008B
:10255000000000000000000000000000000000007B
:10256000000000000000000000000000000000006B
:102570000000000064000000015761697400000061
:10258000000000000000000000000000000000004B
:10259000000000000000000000000000000000003B
:1025A00000436865636B696E672074686520506FCF
:1025B0007274204520636C6F636B000000000000A4
:1025C00000000000000000000000000014000000F7
:1025D0000200000008E10F400200000010000000AF
:1025E00000000000000000000000000000000000EB
:1025F00000000000100000000000000000000000CB
:10260000000000000000000000000000506F727425
:10261000204520636C6F636B206973206F6E000030
:1026200000000000000000000000000000000000AA
:10263000000000000000000041626F72743A2050F8
:102640006F7274204520636C6F636B206973206F19
:1026500066660000000000000000000000000000AE
:1026600000000000015761697400000000000000D4
:10267000000000000000000000000000000000005A
:10268000000000000000000000000000004368653A
:10269000636B696E672074686520506F72742045A3
:1026A00020616E616C6F6720656E61626C6520727F
:1026B00065672E000000000014000000000000000C
:1026C00028050000000000000000000000000000DD
:1026D00004000000080000000000000020000000CE
:1026E00000000000000000000400000008000000DE
:1026F0000000000020000000506F7274204520612F
:102700006E616C6F6720697320656E61626C6564D1
:1027100000000000000000000000000000000000B9
:102720000000000041626F72743A20506F72742092
:102730004520414D53454C2069732077726F6E6779
:102740000000000000000000000000000000000089
:1027500001576169740000000000000000000000E3
:102760000000000000000000000000000000000069
:10277000000000000000000000436865636B696EA4
:10278000672074686520506F7274204520616C74F6
:102790002E2066756E63742E207265672E00000011
:1027A00000000000140000000000000020040000F1
:1027B0000000000000000000000000000400000015
:1027C00008000000000000002000000000000000E1
:1027D00000000000040000000800000000000000ED
:1027E00020000000506F7274204520414653454C34
:1027F000206973204F4B0000000000000000000023
:1028000000000000000000000000000000000000C8
:1028100041626F72743A20506F72742045204146B5
:1028200053454C2069732077726F6E67000000007B
:102830000000000000000000000000000157616976
:102840007400000000000000000000000000000014
:102850000000000000000000000000000000000078
:102860000000000000436865636B696E6720746850
:102870006520506F727420452070756C6C757020E7
:1028800072656769737465720000000000000000E3
:10289000140000000000000010050000000000000F
:1028A000000000000000000004000000080000001C
:1028B00000000000200000000000000000000000F8
:1028C0000000000000000000000000000000000008
:1028D000506F727420452070756C6C207570206983
:1028E00073204F4B000000000000000000000000BB
:1028F00000000000000000000000000041626F7254
:10290000743A20506F7274204520505552206973DC
:102910002077726F6E67000000000000000000006A
:102920000000000000000000015761697400000011
:102930000000000000000000000000000000000097
:102940000000000000000000000000000000000087
:1029500000436865636B696E672074686520506F1B
:10296000727420452070756C6C646F776E20726590
:1029700067697374657200000000000014000000B5
:10298000000000001405000000000000000000002E
:10299000000000000400000008000000000000002B
:1029A0002000000000000000000000000000000007
:1029B000000000000000000000000000506F727472
:1029C00020452070756C6C20646F776E20697320D1
:1029D0004F4B00000000000000000000000000005D
:1029E000000000000000000041626F72743A205045
:1029F0006F72742045205044522069732077726FA3
:102A00006E670000000000000000000000000000F1
:102A10000000000001576169740000000000000020
:102A200000000000000000000000000000000000A6
:102A30000000000000000000000000000043686586
:102A4000636B696E672074686520506F72742045EF
:102A5000206469676974616C20656E61626C6520D1
:102A60007265672E000000001400000000000000E6
:102A70001C05000000000000000000000000000035
:102A8000040000000800000000000000200000001A
:102A90000000000000000000000000000000000036
:102AA0000000000000000000506F727420452044B8
:102AB000454E206973204F4B0000000000000000CD
:102AC0000000000000000000000000000000000006
:102AD0000000000041626F72743A20506F727420DF
:102AE000452044454E2069732077726F6E67000061
:102AF00000000000000000000000000000000000D6
:102B00000057616974000000000000000000000030
:102B100000000000000000000000000000000000B5
:102B2000000000000000000000436865636B696EF0
:102B3000672074686520646973706C617920636FC5
:102B40006E66696775726174696F6E0000000000DF
:102B500000000000320000000200000008E10F4009
:102B60000200000000000000000000000000000063
:102B70000000000000000000000000000000000055
:102B80000000000000000000000000000000000045
:102B9000000000004C616220313420696E697420AD
:102BA0006973204F4B00000000000000000000008F
:102BB0000000000000000000000000000000000015
:102BC0000000000000000000000000000000000005
:102BD00000000000000000000000000000000000F5
:102BE0000000000000000000650000000052656C5D
:102BF000656173652073776974636820535731008A
:102C000000000000000000000000000000000000C4
:102C1000000000000057616974696E6720666F727A
:102C20002053573120746F2062652072656C656196
:102C30007365640000000000000000000000000058
:102C4000E8030000020000004050024002000000C3
:102C50001000000000000000000000000000000064
:102C60000000000000000000100000000000000054
:102C70000000000000000000000000000000000054
:102C80005377697463682069732072656C6561733A
:102C9000656400000000000000000000000000006B
:102CA000000000000000000000000000537769747D
:102CB0006368206E657665722072656C6561736508
:102CC00064000000000000000000000000000000A0
:102CD000000000000000000000536C69646520746F
:102CE0006F2066697273742C207072657373205341
:102CF000573100000000000000000000000000004C
:102D00000057616974696E6720746F206361707425
:102D10007572652066697273742076616C756500E2
:102D200000000000000000000000000060EA000059
:102D300002000000405002400200000010000000AD
:102D40000000000000000000000000000000000083
:102D50000000000000000000000000000000000073
:102D600000000000000000000000000043617074DB
:102D70007572696E672066697273742076616C750E
:102D800065000000000000000000000000000000DE
:102D90000000000000000000537769746368206E33
:102DA000657665722070726573736564000000005B
:102DB0000000000000000000000000000000000013
:102DC000000000000052656C6561736520737769CF
:102DD00074636820535731000000000000000000B9
:102DE00000000000000000000000000000576169C2
:102DF00074696E6720666F722053573120746F209C
:102E000062652072656C6561736564000000000096
:102E10000000000000000000E803000002000000C5
:102E200040500240020000001000000000000000BE
:102E30000000000000000000000000000000000092
:102E40001000000000000000000000000000000072
:102E50000000000000000000537769746368206977
:102E6000732072656C65617365640000000000008A
:102E70000000000000000000000000000000000052
:102E800000000000537769746368206E6576657290
:102E90002072656C656173656400000000000000CD
:102EA00000000000000000000000000066000000BC
:102EB00000536C69646520746F207365636F6E6482
:102EC0002C2070726573732053573100000000008E
:102ED00000000000000000000057616974696E671F
:102EE00020746F2063617074757265207365636F01
:102EF0006E642076616C75650000000000000000C3
:102F00000000000060EA00000200000040500240A3
:102F1000020000001000000000000000000000009F
:102F200000000000000000000000000000000000A1
:102F30000000000000000000000000000000000091
:102F400000000000436170747572696E67207365DC
:102F5000636F6E642076616C756500000000000090
:102F60000000000000000000000000000000000061
:102F7000537769746368206E657665722070726538
:102F80007373656400000000000000000000000092
:102F90000000000000000000000000000052656C0E
:102FA00065617365207377697463682053573100D6
:102FB0000000000000000000000000000000000011
:102FC000000000000057616974696E6720666F72C7
:102FD0002053573120746F2062652072656C6561E3
:102FE00073656400000000000000000000000000A5
:102FF000E803000002000000405002400200000010
:1030000010000000000000000000000000000000B0
:1030100000000000000000001000000000000000A0
:1030200000000000000000000000000000000000A0
:103030005377697463682069732072656C65617386
:1030400065640000000000000000000000000000B7
:1030500000000000000000000000000053776974C9
:103060006368206E657665722072656C6561736554
:1030700064000000000000000000000000000000EC
:10308000000000006700000000536C696465207454
:103090006F2074686972642C20707265737320539A
:1030A0005731000000000000000000000000000098
:1030B0000057616974696E6720746F206361707472
:1030C0007572652074686972642076616C7565003C
:1030D00000000000000000000000000060EA0000A6
:1030E00002000000405002400200000010000000FA
:1030F00000000000000000000000000000000000D0
:1031000000000000000000000000000000000000BF
:103110000000000000000000000000004361707427
:103120007572696E672074686972642076616C7567
:10313000650000000000000000000000000000002A
:103140000000000000000000537769746368206E7F
:1031500065766572207072657373656400000000A7
:10316000000000000000000000000000000000005F
:10317000000000000052656C65617365207377691B
:103180007463682053573100000000000000000005
:10319000000000000000000000000000005761690E
:1031A00074696E6720666F722053573120746F20E8
:1031B00062652072656C65617365640000000000E3
:1031C0000000000000000000E80300000200000012
:1031D000405002400200000010000000000000000B
:1031E00000000000000000000000000000000000DF
:1031F00010000000000000000000000000000000BF
:1032000000000000000000005377697463682069C3
:10321000732072656C6561736564000000000000D6
:10322000000000000000000000000000000000009E
:1032300000000000537769746368206E65766572DC
:103240002072656C65617365640000000000000019
:103250000000000000000000000000006800000006
:1032600000536C69646520746F20666F75727468B2
:103270002C207072657373205357310000000000DA
:1032800000000000000000000057616974696E676B
:1032900020746F206361707475726520666F75723B
:1032A00074682076616C7565000000000000000005
:1032B0000000000060EA00000200000040500240F0
:1032C00002000000100000000000000000000000EC
:1032D00000000000000000000000000000000000EE
:1032E00000000000000000000000000000000000DE
:1032F00000000000436170747572696E6720666F2C
:10330000757274682076616C7565000000000000BD
:1033100000000000000000000000000000000000AD
:10332000537769746368206E657665722070726584
:1033300073736564000000000000000000000000DE
:103340000000000000000000000000000052656C5A
:103350006561736520737769746368205357310022
:10336000000000000000000000000000000000005D
:10337000000000000057616974696E6720666F7213
:103380002053573120746F2062652072656C65612F
:1033900073656400000000000000000000000000F1
:1033A000E80300000200000040500240020000005C
:1033B00010000000000000000000000000000000FD
:1033C00000000000000000001000000000000000ED
:1033D00000000000000000000000000000000000ED
:1033E0005377697463682069732072656C656173D3
:1033F0006564000000000000000000000000000004
:103400000000000000000000000000005377697415
:103410006368206E657665722072656C65617365A0
:103420006400000000000000000000000000000038
:10343000000000006900000000536C69646520749E
:103440006F2066696674682C2070726573732053F0
:1034500057310000000000000000000000000000E4
:103460000057616974696E6720746F2063617074BE
:103470007572652066696674682076616C75650092
:1034800000000000000000000000000060EA0000F2
:103490000200000040500240020000001000000046
:1034A000000000000000000000000000000000001C
:1034B000000000000000000000000000000000000C
:1034C0000000000000000000000000004361707474
:1034D0007572696E672066696674682076616C75BE
:1034E0006500000000000000000000000000000077
:1034F0000000000000000000537769746368206ECC
:1035000065766572207072657373656400000000F3
:1035100000000000000000000000000000000000AB
:103520000000000000576169740000000000000006
:10353000000000000000000000000000000000008B
:10354000000000000000000000000000004368656B
:10355000636B696E6720736C69646520706F746556
:103560006E74696F6D65746572206C696E656172E9
:1035700069747900000000003200000002000000C1
:1035800008E10F4002000000000000000000000001
:10359000000000000000000000000000000000002B
:1035A000000000000000000000000000000000001B
:1035B00000000000000000004C696E6561726974D3
:1035C00079207465737420646F6E650000000000DC
:1035D00000000000000000000000000000000000EB
:1035E00000000000000000000000000000000000DB
:1035F00000000000000000000000000000000000CB
:103600000000000000000000000000006A00000050
:103610000200000008E10F4002000000000000006E
:10362000000000000000000000000000000000009A
:103630000000000001000000000000000000000089
:103640000000000000000000000000000002000078
:1036500008E10F4002000000000000000000000030
:10366000000000000000000000000000000000005A
:103670000100000000000000000000000000000049
:10368000000000000000000000000000000000003A
:10369000000000000000000000000000000000002A
:1036A000000000000000000000000000000000001A
:1036B00041444320636F6E66696775726564206379
:1036C0006F72726563746C790041626F72743A2034
:1036D0004144433020636F6E66696775726564208C
:1036E00077726F6E670041626F72743A2041444393
:1036F000302073616D706C652073657120332064B8
:10370000697361626C65640041626F72743A204152
:10371000444330206E6F7420736F667477617265F6
:10372000207472696767657265640041626F7274C4
:103730003A20414443302073616D706C696E67209C
:1037400077726F6E67206368616E6E656C004162B0
:103750006F72743A20414443302073616D706C691C
:103760006E672074656D702E206E6F742070696EA8
:103770000041626F72743A20414443302073616D9E
:10378000706C6520696E742E206E6F742075736581
:10379000640041626F72743A2041444330205353B5
:1037A00043544C3320454E44302069732077726F68
:1037B0006E670041626F72743A2041444330206961
:1037C0007320696E20646966666572656E746961EE
:1037D0006C206D6F646500446973706C6179206959
:1037E0007320636F6E6669677572656420636F72BC
:1037F000726563746C790041626F72743A20446937
:1038000073706C617920697320636F6E6669677588
:103810007265642077726F6E670041626F72743AEE
:10382000204120636C6F636B20666F722064697344
:10383000706C6179206973206F66660041626F72F7
:10384000743A20554152543020697320636F6E667C
:103850006967757265642077726F6E670041626F89
:1038600072743A20506F72744120697320636F6ED6
:10387000666967757265642077726F6E6700416272
:103880006F72743A205353493020697320636F6E0E
:10389000666967757265642077726F6E6700725E25
:1038A000323C302E39202D20436865636B206861DF
:1038B0007264776172652C206571756174696F6ED1
:1038C0000042616420646174612C206465627567E4
:1038D00020616E6420747279206C6174657200508E
:1038E0006572666563746C79206C696E6561722CB3
:1038F00020725E32203D20312E303000004578634A
:10390000656C6C656E74206A6F622C2020202072BA
:103910005E32203D20302E393900004E696365202B
:103920006C696E6561726974792C202020725E3238
:10393000203D20302E39380000476F6F64206C69BD
:103940006E6561726974792C202020725E32203D90
:1039500020302E39370000476F6F64206C696E6528
:1039600061726974792C202020725E32203D2030F3
:103970002E39360000436F756C64206265206265E5
:10398000747465722C2020725E32203D20302E39F6
:10399000350000436C6F73652C2074727920616769
:1039A00061696E2C20725E32203D20302E39340049
:1039B00000436C6F73652C207472792061676169B4
:1039C0006E2C20725E32203D20302E3933000043B1
:1039D0006C6F73652C2074727920616761696E2C3D
:1039E00020725E32203D20302E39320000436C6F51
:1039F00073652C2074727920616761696E2C207266
:103A00005E32203D20302E39310000436C6F7365EB
:103A10002C2074727920616761696E2C20725E328D
:103A2000203D20302E39300000010A05070F0C0818
:103A30000200000002000000060000000300000079
:103A4000000000000100000007000000040000006A
:103A5000050000000300000004000000000000005A
:103A60000200000006000000070000000100000046
:103A700005000000943A0000000000207C000000D7
:103A8000C0020000103B00007C000020E4060000A3
:103A9000DC02000000000000000000000000000048
:103AA000000000000000000000000000803801005D
:103AB0000000000000000000000000000000000006
:103AC00000000000000000000000000000000000F6
:103AD00000000000000000000000000000000000E6
:103AE00000000000000000000000000000000000D6
:103AF00000000000000000000000000000000000C6
:103B000000000000000000000000000000000000B5
:040000050000026D88
:00000001FF
