:020000040000FA
:10000000680700206D02000071020000730200000A
:100010007502000077020000790200000000000075
:100020000000000000000000000000007B02000053
:100030007D020000000000007F020000B10C000003
:10004000830200008302000083020000830200009C
:10005000830200008302000083020000830200008C
:10006000830200008302000083020000830200007C
:10007000830200008302000083020000830200006C
:10008000830200008302000083020000830200005C
:10009000830200008302000083020000830200004C
:1000A000830200008302000083020000830200003C
:1000B000830200008302000083020000830200002C
:1000C000830200008302000083020000830200001C
:1000D000830200008302000083020000830200000C
:1000E00083020000830200008302000083020000FC
:1000F00083020000830200008302000083020000EC
:1001000083020000830200008302000083020000DB
:1001100083020000830200008302000083020000CB
:1001200083020000830200008302000083020000BB
:1001300083020000830200008302000083020000AB
:1001400000000000000000000000000000000000AF
:100150008302000083020000CD0E00008302000035
:10016000000000000000000000000000000000008F
:10017000000000000000000000000000000000007F
:10018000000000000000000000000000000000006F
:10019000000000000000000000000000000000005F
:1001A000000000000000000000000000000000004F
:1001B000ED0E0000830200008302000083020000B5
:1001C000830200008302000083020000830200001B
:1001D000830200008302000083020000830200000B
:1001E00083020000830200008302000083020000FB
:1001F00083020000830200008302000083020000EB
:10020000830200008302000083020000000000005F
:1002100083020000830200008302000083020000CA
:1002200083020000830200008302000083020000BA
:1002300083020000830200008302000083020000AA
:10024000830200008302000083020000830200009A
:10025000830200008302000083020000830200008A
:1002600083020000830200008302000000F00AB84D
:10027000FEE7FEE7FEE7FEE7FEE7FEE7FEE7FEE756
:10028000FEE7FEE700F002F800F03AF80AA090E876
:10029000000C82448344AAF10107DA4501D100F041
:1002A0002FF8AFF2090EBAE80F0013F0010F18BFD4
:1002B000FB1A43F0010318477C3A00009C3A000007
:1002C000103A24BF78C878C1FAD8520724BF30C882
:1002D00030C144BF04680C60704700000023002454
:1002E00000250026103A28BF78C1FBD8520728BF46
:1002F00030C148BF0B6070471FB51FBD10B510BDA2
:1003000000F029F81146FFF7F7FF01F080FA00F03E
:1003100047F803B4FFF7F2FF03BC00F04BF800000E
:1003200072B6704762B67047EFF3108072B67047CE
:1003300080F31088704730BF704702480249014A75
:10034000024B704768030020680700206803002004
:10035000704770477047754600F028F8AE460500B4
:100360006946534620F00700854618B020B5FFF7D0
:10037000E4FFBDE820404FF000064FF000074FF0CB
:1003800000084FF0000B21F00701AC46ACE8C009B3
:10039000ACE8C009ACE8C009ACE8C0098D467047BC
:1003A0000446AFF300802046FFF7B3FF00487047D4
:1003B0000403002001491820ABBEFEE7260002001E
:1003C00070470000002011E00B4908680B490968DC
:1003D000A1290BD20949097801F00F01084A42F816
:1003E000210006490968491C044A11600549096849
:1003F00011F4807FE8D07047A890034014000020DB
:1004000088020020AC90034008B52B48006840F0FB
:1004100008002A49C1F808012748006800902648CA
:10042000006800902648006820F008002449086011
:100430002448006840F0080022490860224800680B
:1004400020F00800204908602048006840F00800BB
:100450001E4908601948D0F8000140F400301749DF
:10046000C1F800014FF00000009002E00098401C2D
:10047000009000981428F9D301201549086040F233
:10048000231014490862002008600846406940F4BF
:10049000704048610320086304200F4908604FF052
:1004A00006000C49C1F8A4004FF0000088604FF02E
:1004B0000800086008BD000008E10F4000E00F40A0
:1004C00000740040207400401C75004028750040F6
:1004D000C49F034000900340A090034008B51C480F
:1004E000006840F002001B49C1F808011848006884
:1004F00000901948006820F00F001749086001F1CA
:10050000040000686FF30F0001F104010860134854
:10051000006840F00F00114908601148006840F081
:100520000F000F4908600F48006820F00F000D49C8
:1005300008600D48006840F00F000B4908600B4848
:10054000D0F8FC0320F00F000949086008BD000046
:1005500008E10F4000E00F402855004000540040E3
:1005600008550040205400401C55004000500040F9
:10057000FC5300400149086070470000FC530040F4
:10058000F0B50646002420E0701C6043C0EBC000BC
:1005900000F0040711480057A0F13005104800573B
:1005A000454005F00800800005F0040100EB410023
:1005B00005F00301451885EA0700413040B20949BA
:1005C00051F82410084A5054641C082CDCDB00202D
:1005D00005490872084600F08FF8F0BDC8020020F7
:1005E000EC3C0000F43C0000D20200201D48006FEB
:1005F00040F000401B4908670846006F40F4006067
:1006000008670846006E20F4F86008660846006E29
:1006100000F5A86008660846006F20F070000867C3
:100620000846006F08670846006F20F4005008670E
:100630000846006F40F0804008670846006F20F0D1
:10064000FE5000F18070086700BF0648006D10F092
:10065000400FFAD00348006F20F40060014908679A
:100660007047000000E00F400248006800F00F00F3
:1006700070470000FC43024008B51848006840F08D
:1006800010001749C1F80801144800680090154887
:10069000006820F00F001349086001F104000068B1
:1006A0006FF30F0001F1040108600F48006820F0AB
:1006B0000F000D4908600D48006820F00F000B493D
:1006C00008600B48006840F00F00094908600948BD
:1006D000006840F00F000749086008BD08E10F40BE
:1006E00000E00F4028450240004402402044024000
:1006F000144502401C4502400146044A002002E025
:100700000B5C1354401C0828FADB70477000002073
:100710000146044A002002E00B5C1354401C0828E8
:10072000FADB70475800002070B506460D461446A7
:100730000A20B6FBF0F0353040B22C4908700A2090
:10074000B6FBF0F100FB1160303040B22749487031
:10075000632D05D92648806C00F0070000F15C0588
:100760000A20B5FBF0F0303040B2204988700A20F2
:10077000B5FBF0F100FB115505F1300040B21B490B
:10078000C87042F20F70844200D900244FF47A708E
:10079000B4FBF0F0303040B2144908714FF47A7075
:1007A000B4FBF0F100FB11446420B4FBF0F03030F6
:1007B00040B20E4948716420B4FBF0F100FB1144D3
:1007C0000A20B4FBF0F0303040B2084988710A20AA
:1007D000B4FBF0F100FB114404F1300040B20349D6
:1007E000C8710349886CFFF7CBFE70BDC8020020BA
:1007F0000050034000204FF0E0210861886148610B
:100800000648006820F07F4040F00050034908602F
:1008100007204FF0E02108617047000020ED00E064
:1008200000204FF0E0214861014908607047000056
:10083000FC5300400021044A1170411E4FF0E02299
:100840005161072111617047000000202DE9F04F30
:1008500091B0002010900F900E900D900C900B9086
:100860000A900990002600278046814682468346EA
:100870000890FFF755FDB848C06820F00100B64960
:10088000C8600846C06820F02000C860B34800680F
:10089000401E88620846C06840F00100C860B04849
:1008A000006820F00800AE490860AE480068486162
:1008B000AD48006808630846006840F0080008601A
:1008C000FFF730FDA9480068102803D2002011B0BE
:1008D000BDE8F08F0024B2E0A54850F8241010982D
:1008E00008441090A24850F8241004F00700A14AD0
:1008F00052F820200F9801FB02000F909C4850F8FE
:10090000240004F007019C4A52F8211000FB016604
:10091000974850F82410A007400F964A52F820201C
:100920000E9801FB02000E90914850F82400A10798
:10093000490F914A52F8211000FB01778C4850F87A
:10094000241004EB440000F007008A4A52F82020EB
:100950000D9801FB02000D90854850F8240004EB2F
:10096000440101F00701844A52F8211000FB01887C
:100970007F4850F82410E007400F7E4A52F82020AC
:100980000C9801FB02000C90794850F82400E10714
:10099000490F794A52F8211000FB0199744850F828
:1009A000241004EB840000F00700724A52F8202063
:1009B0000B9801FB02000B906D4850F8240004EBEB
:1009C000840101F007016C4A52F8211000FB01AAD2
:1009D000674850F8241004EB44008007400F654A34
:1009E00052F820200A9801FB02000A90604850F853
:1009F000240004EB44018907490F5F4A52F8211093
:100A000000FB01BB5A4850F82410C4EBC40000F0AE
:100A10000700584A52F82020099801FB020009906B
:100A2000534850F82410C4EBC40000F00700524AA9
:100A300052F82020089801FB02000890641C102C3A
:100A4000FFF64AAF1121109890FBF1F000FB00F582
:100A50000F9890FBF1F0404396FBF1F1112296FBC9
:100A6000F2F201FB0200079011210E9890FBF1F0C9
:100A7000404397FBF1F1112297FBF2F201FB0200D8
:100A8000069011210D9890FBF1F0404398FBF1F195
:100A9000112298FBF2F201FB0200059011210C9843
:100AA00090FBF1F0404399FBF1F1112299FBF2F236
:100AB00001FB0200049011210B9890FBF1F04043E0
:100AC0009AFBF1F111229AFBF2F201FB0200039072
:100AD00011210A9890FBF1F040439BFBF1F11122A8
:100AE0009BFBF2F201FB020002901121099890FB9E
:100AF000F1F040431122089991FBF2F2112391FB8E
:100B0000F3F102FB0100019046F2A810854201DAE0
:100B10000120DCE6194885421ADB1948854217DCBA
:100B200018490798884213DB1749069888420FDC5A
:100B3000059888420CDC0498884209DC03988842B6
:100B400006DC0298884203DC0E490198884201DAEB
:100B50000020BCE61420BAE600500340100000203C
:100B600000900340480000204C00002014000020AA
:100B700088020020AC3C0000CC3C000040420F004A
:100B8000002D310180D1F00860E3160038B504462D
:100B9000FFF7C6FB2F48C06820F001002D49C86050
:100BA0000846C06840F02000C860601E88620846A1
:100BB000C06840F00100C8602748006820F00800C5
:100BC0002549086008464069244908602248406970
:100BD00020F47040204948610846406900F5A04073
:100BE00048610846006B1E4908601B48006B20F0F6
:100BF0000700194908630846006BC01C08631948C0
:100C0000006820F00F00C1F8A0000846D0F8A0004E
:100C100000F10400134908604FF006000E49C1F8C6
:100C2000A4000846806820F0080088600846006834
:100C300040F00800086002E00B48006800900B4894
:100C4000006810F4807FF7D0002009490860FFF7A2
:100C500069FB38BD0050034000900340480000206D
:100C60004C000020A0900340A8900340AC900340AB
:100C7000140000204FF4007004490860402004492B
:100C800008604FF001000349C8607047440000202D
:100C900008E100E0004003404020034908604FF0B5
:100CA00000000249C860704788E100E0004003404E
:100CB00010B507480078401C00F01F000449087078
:100CC0000449034A127831F81200FFF753FC10BDB3
:100CD000000000208618000070B504460D46164638
:100CE000FFF784FC5648006840F030005449086023
:100CF00054A0FFF70DFD5648564988625648C86211
:100D00000863486300205549086052490860544907
:100D100008605449086054490860544908605448C0
:100D2000544908600D204B49086100204861524930
:100D3000086052480460524805605048006818B97D
:100D40005048514908600AE04C480068012803D126
:100D50004E484D49086002E04D484B4908604848FC
:100D6000006818B94B48484948600AE044480068A0
:100D7000012803D148484449486002E047484249B5
:100D8000486047A0FFF7B8FC3C4800683C49096848
:100D9000884205D130482F4988624448486370BD75
:100DA00000204349C860086002204860314800685C
:100DB000401E8862002088630120486288613D48A7
:100DC000006820F0FF0040F040003A4908604FF012
:100DD0008050394908604FF001003549C8603748F4
:100DE00006604FF00000364908603448006800B3E0
:100DF00000F0B6FC00203349C8600860022048605B
:100E000041F63F7088620020886301204862886153
:100E100028481838006820F47F0040F46000254915
:100E2000183908604020244908604FF00100254926
:100E3000C860FFF7E9FA24480649C86200BFAEE778
:100E400004E60F4055542E362E3033780000000053
:100E5000481A000050000020D01900002C0000208B
:100E60003C00002038000020280000203000002036
:100E700000350C0010000020240000200400002099
:100E800008000020E01800001C00002030190000BD
:100E9000801900000819000058190000A819000066
:100EA000202020202020202000000000201A000008
:100EB000005003405CE400E008E100E04000002056
:100EC0004400002000400340F819000001200449BC
:100ED0004862044800684FEA1010034908607047F0
:100EE00000400340A890034000C000402DE9F047B7
:100EF0000120FE494862FFF765FA814640F6E4406A
:100F000009FB00F0000BFA490860FA48006830B1AC
:100F1000F8480068401EF7490860BDE8F087F648C9
:100F2000007810F0010F23D1F448007810F0010F81
:100F30001ED00120F14908600020F1490860F14805
:100F4000006808B1FFF7A8FE0120EF4908603220D1
:100F5000E84908600120E84908600020E749486145
:100F6000EA490860EA48E549086348638862D4E7CB
:100F7000E2480068E0490860E048007810F0010F9E
:100F800073D0DF48006822280FD30220DB490860B5
:100F900008468269DD4801680D20FFF7C5FBD94886
:100FA000006808B1FFF766FEB7E7D7480068002879
:100FB00070D00020D4490860D148006800EB80015F
:100FC000C1EB8010D34901EB8000406DD24908602D
:100FD000CB48006800EB8001C1EB8010CD4901EBEC
:100FE0008000401CC5498862C548006800EB80014C
:100FF000C1EB8010C74901EB80002930BF49C862AE
:10100000BF48006800EB8001C1EB8010C14901EBD3
:101010008000D0F8E840002C05DD042C03DC012121
:10102000601EBE4A1154002C07DA14F1040F04DBD1
:101030000021C4F1FF30B94A1154052C04D144F603
:10104000A720FFF7A3FD8EE0601D1CD1FFF7FEFB7C
:1010500005461DB9B2A0A949486384E0012D05D118
:10106000B848A649486300257DE060E3B6A0A349DF
:101070000863A64800682844A44908600846006838
:101080009E4948616FE0062C05D144F28220FFF7AB
:101090007DFD68E068E0A01D1BD1FFF7D7FB05468A
:1010A0001DB9B2A0954948635DE0012D04D1A54862
:1010B00092494863002556E0B5A0904908639348DB
:1010C0000068284491490860084600688B494861D7
:1010D00049E0072C04D143F64130FFF757FD42E0C9
:1010E000E01D1BD1FFF7B2FB05461DB9B1A0834936
:1010F000486338E0012D04D19248804948630025B7
:1011000031E0B5A07D4908638048006828447F49E4
:101110000860084600687949486124E0082C04D139
:1011200043F2D310FFF732FD1DE014F108001AD18D
:10113000FFF78CFB05461DB9B0A07049486312E06B
:10114000012D04D17F486D49486300250BE0B4A010
:101150006A4908636D48006828446C49086008467D
:10116000006866494861D8E66B480068E0BB64489F
:10117000006800EB8001C1EB8010664911F8200087
:10118000012819D15E48006800EB8001C1EB801096
:10119000604901EB8000C030584948630620086070
:1011A00057480068401C56490860012056490860AD
:1011B0003220504908609CE15148006800EB8001F2
:1011C000C1EB8010534901EB8000C0304B494863AC
:1011D0004B480068401C4A49086001204A490860A1
:1011E00032204449086084E1FFE74B480068401E14
:1011F000494908604248006800EB8001C1EB80105B
:10120000444901EB800090F8580028B98D488E4978
:10121000096850F8216013E03948006800EB80014C
:10122000C1EB80103B4901EB800090F85800012889
:1012300005D184488549096850F8216000E00026FE
:101240002F48006800EB8001C1EB8010314901EBB1
:101250008000C06D0644D6F800902948006800EB75
:101260008001C1EB80102B4901EB800090F86000F9
:10127000E0B92348006800EB8001C1EB80102549EC
:1012800001EB800064307049096850F821701C48F7
:10129000006800EB8001C1EB80101E4901EB80006B
:1012A0007C306949096850F82180F3E014480068EF
:1012B00000EB8001C1EB8010164901EB800090F833
:1012C0006000012810D10E48006800EB8001C1EBDE
:1012D0008010104901EB800064305C49096850F8C7
:1012E000217007480068B3E0BFE0000000500340F1
:1012F00024000020380000202C0000205000002096
:101300003C00002040000020300000201800002099
:10131000D0190000C01A0000340000200C0000208A
:101320004F7574707574206672657175656E63793A
:10133000206973206E6F742035323320487A20285C
:1013400043290000983C00004F7574707574206646
:1013500072657175656E63792069732061626F755E
:10136000742035323320487A000000004F757470C5
:101370007574206672657175656E63792069732076
:101380006E6F742035383720487A202844290000B1
:101390004F7574707574206672657175656E6379CA
:1013A0002069732061626F75742035383720487A60
:1013B000000000004F757470757420667265717559
:1013C000656E6379206973206E6F7420363539201D
:1013D000487A2028452900004F757470757420667E
:1013E00072657175656E63792069732061626F75CE
:1013F000742036353920487A000000004F7574702B
:101400007574206672657175656E637920697320E5
:101410006E6F742037383320487A2028472900001F
:101420004F7574707574206672657175656E637939
:101430002069732061626F75742037383320487AD1
:1014400000000000C8180000040000200800002070
:1014500000EB8001C1EB8010B64901EB80007C30CD
:10146000B549096850F8218014E0B448006800EBE1
:101470008001C1EB8010AF4901EB8000476EAF489F
:10148000006800EB8001C1EB8010AA4901EB8000ED
:10149000D0F87C8009EA070040452AD1A7480068B7
:1014A00000EB8001C1EB8010A24901EB8000943079
:1014B000A3490863A148006800EB8001C1EB8010DC
:1014C0009C4901EB8000D0F8BC009E4909680844A3
:1014D0009C49086008460068994948619748006837
:1014E000401C9649086001209749086032209749BE
:1014F0000860002418E19648005D01287ED104EBC5
:101500008400944901EB4010007828B9924893492F
:10151000096850F821600EE004EB84008D4901EB6E
:1015200040100078012805D18B488349096850F89C
:10153000216000E0002604EB8400864901EB4010A6
:1015400040680644D6F8009004EB840001EB40109C
:10155000007A98B904EB840001EB40100C307F490D
:10156000096850F8217004EB84007A4901EB4010BF
:1015700024307A49096850F8218027E004EB840080
:10158000744901EB4010007A012813D104EB840068
:1015900001EB40100C306849096850F8217004EBE9
:1015A00084006C4901EB401024306349096850F80D
:1015B00021800BE004EB8400664901EB4010C76812
:1015C00004EB840001EB4010D0F8248009EA070006
:1015D000404516D14FF0010A04EB84005D4901EB50
:1015E000401090F83C0001280DD104EB840001EB81
:1015F0004010783052494863062000E093E00860CC
:1016000001E04FF0000A04EB8400524901EB401066
:1016100090F83C0010B9BAF1010F0BDA04EB84002A
:101620004C4901EB401090F83C0001287BD1BAF105
:10163000000F78D104EB8400464901EB401090F88C
:101640003D0028B944484549096850F821600FE039
:1016500004EB84003F4901EB401090F83D00012865
:1016600005D13D483449096850F8216000E0002662
:1016700004EB8400374901EB4010006C0644D6F8B7
:10168000009004EB840001EB401090F8440098B9FE
:1016900004EB840001EB401048303049096850F8F1
:1016A000217004EB84002B4901EB401060302B4982
:1016B000096850F8218028E004EB8400254901EBFB
:1016C000401090F84400012813D104EB840001EB92
:1016D000401048301849096850F8217004EB840024
:1016E0001C4901EB401060301349096850F8218013
:1016F0000BE004EB8400174901EB4010876C04EB0E
:10170000840001EB4010D0F8608009EA07004045F2
:1017100009D104EB84000F4901EB401078300849EF
:10172000486306200860641C042CFFF6E4AE00BF8A
:101730001DE40000C01A0000080000203C0000204A
:101740005000002018000020300000203800002049
:101750000C000020183A0000C81800000400002007
:101760001F48006840F001001E49C1F80401084606
:10177000D0F8080140F00100C1F808011A48006BD8
:1017800020F00100184908634FF02B0048624FF029
:101790001A0088624FF07000C8620846006B40F083
:1017A000010008631148006840F003000F49086019
:1017B0000F48006840F003000D4908600D480068BC
:1017C00020F0FF0000F111000A490860A1F10400B7
:1017D000006820F00300A1F10401086070470000D8
:1017E00004E10F4000E00F4000C0004020440040F2
:1017F0001C4500402C45004006E04FF47A5100E0C3
:10180000491E0029FCD1401E0028F6D17047012254
:1018100011460420FFF760FAFEF760FEFEF7EAFFCC
:10182000FEF72AFFFEF77EFD2CE0FEF71DFFC4B297
:10183000AC4226D0092C1DD2DFE804F005080D1CAF
:10184000121C1C1C1700FEF7EBFF16E041F2AA2049
:10185000FEF7F0FF11E041F2A100FEF7EBFF0CE014
:101860004FF46D60FEF7E6FF07E040F67340FEF7C9
:10187000E1FF02E0FEF7D4FF00BF00BF0A20FFF740
:10188000BBFF2546D1E7080009000B000C000D0046
:101890000E000E000F000F000F000E000E000D00D6
:1018A0000C000B00090008000700050004000300FD
:1018B000020002000100010001000200020003001A
:1018C00004000500070000000040004000500040F8
:1018D00000600040007000400040024000500240A4
:1018E000496E707574206973205041352D322C205B
:1018F000706F736974697665206C6F6769632073B4
:1019000077697463686573004F75747075742069C6
:1019100073205041352D322C207265736973746FBA
:10192000722044414300000000000000000000005D
:10193000496E707574206973205042332D302C200D
:10194000706F736974697665206C6F676963207363
:1019500077697463686573004F7574707574206976
:1019600073205042332D302C207265736973746F6D
:10197000722044414300000000000000000000000D
:10198000496E707574206973205045332D302C20BA
:10199000706F736974697665206C6F676963207313
:1019A00077697463686573004F7574707574206926
:1019B00073205045332D302C207265736973746F1A
:1019C00072204441430000000000000000000000BD
:1019D00020000000000000000000000000000000E7
:1019E00000000000000000000000000000000000F7
:1019F0000000000000000000544578615320697326
:101A000020696E697469616C697A656420666F72B9
:101A1000204C616220313300000000000000000013
:101A20004572726F723A204120706F727420617338
:101A30007369676E656420696E7075742026206F07
:101A40007574707574000000436C69636B20477295
:101A50006164696E6720627574746F6E20746F20A4
:101A600073746172742067726164696E670000004C
:101A7000446F6E652067726164696E6700000000E4
:101A80000000000000000000000000000000000056
:101A900000000000000000003031323334353637AA
:101AA00038393031323334353637383930313233F2
:101AB000343536373839303132333435363738000B
:101AC0000157616974000000000000000000000080
:101AD0000000000000000000000000000000000006
:101AE000000000000000000000436865636B696E41
:101AF00067207468652054457861535F496E697446
:101B0000282920696E20706172616D6574657200AC
:101B100000000000010000000200000008E10F408A
:101B200000000000000000000000000000000000B5
:101B300000000000000000000000000000000000A5
:101B40000000000001000000010000000000000093
:101B500001000000466972737420706172616D65E6
:101B600074657220636F7272656374000000000018
:101B70000000000000000000000000000000000065
:101B800041626F72743A2054457861532E68206226
:101B90006164206F7220666F722064696666657288
:101BA000656E74206C61620000000000015761697D
:101BB00074000000000000000000000000000000B1
:101BC0000000000000000000000000000000000015
:101BD0000000000000436865636B696E67207468ED
:101BE000652054457861535F496E69742829206FD8
:101BF000757420706172616D61746572000000001F
:101C0000010000000200000008E10F400100000098
:101C100000000000000000000000000000000000C4
:101C200000000000000000000000000000000000B4
:101C300001000000010000000000000001000000A1
:101C40005365636F6E6420706172616D6574657257
:101C500020636F7272656374000000000000000072
:101C600000000000000000000000000041626F72F0
:101C7000743A2054457861532E6820626164206F65
:101C80007220666F7220646966666572656E742084
:101C90006C6162000000000001576169740000007F
:101CA0000000000000000000000000000000000034
:101CB0000000000000000000000000000000000024
:101CC00000436865636B696E6720746865205379AB
:101CD000735469636B20636F6E74726F6C207265EE
:101CE0006769737465720000000000001400000052
:101CF0000200000010E000E0020000000700000009
:101D000000000000000000000000000000000000D3
:101D100000000000070000000000000000000000BC
:101D20000000000000000000000000005379735420
:101D300069636B2073657420636F72726563746C82
:101D4000790000000000000000000000000000001A
:101D5000000000000000000041626F72743A2053DE
:101D600079735469636B206F66662C2077726F6E8F
:101D7000672C206F72206E6F20696E7473000000F4
:101D800000000000015761697400000000000000BD
:101D90000000000000000000000000000000000043
:101DA0000000000000000000000000000043686523
:101DB000636B696E672074686520696E7075742046
:101DC000706F727420636C6F636B00000000000022
:101DD00000000000000000001400000002000000ED
:101DE00008E10F40000000000100000002000000B8
:101DF00000000000000000001000000000000000D3
:101E000001000000020000000000000000000000CF
:101E10001000000000000000496E70757420636CB3
:101E20006F636B206973206F6E000000000000007C
:101E300000000000000000000000000000000000A2
:101E40000000000041626F72743A20496E70757430
:101E500020706F727420636C6F636B206973206FE6
:101E600066660000000000000000000000000000A6
:101E700001576169740000000000000000000000CC
:101E80000000000000000000000000000000000052
:101E9000000000000000000000436865636B696E8D
:101EA0006720746865206F757470757420706F7228
:101EB0007420636C6F636B00000000000000000082
:101EC00000000000140000000200000008E10F40C4
:101ED00001000000010000000200000000000000FE
:101EE00000000000100000000000000001000000E1
:101EF00002000000000000000000000010000000D0
:101F0000000000004F757470757420636C6F636B14
:101F1000206973206F6E00000000000000000000C8
:101F200000000000000000000000000000000000B1
:101F300041626F72743A204F757470757420706FBF
:101F4000727420636C6F636B206973206F66660028
:101F5000000000000000000000000000015761695F
:101F600074000000000000000000000000000000FD
:101F70000000000000000000000000000000000061
:101F80000000000000436865636B696E6720746839
:101F90006520696E70757420616E616C6F67206575
:101FA0006E61626C65207265672E000000000000A3
:101FB00014000000000000002805000000000000E0
:101FC0003C0000000F0000000000000000000000C6
:101FD0000F000000000000000000000000000000F2
:101FE00000000000000000000000000000000000F1
:101FF000496E70757420616E616C6F672069732023
:1020000064697361626C6564000000000000000098
:1020100000000000000000000000000041626F723C
:10202000743A20496E70757420414D53454C2069B7
:10203000732077726F6E67000000000000000000E0
:1020400000000000000000000157616974000000FA
:102050000000000000000000000000000000000080
:102060000000000000000000000000000000000070
:1020700000436865636B696E6720746865206F75DF
:102080007470757420616E616C6F6720656E61623B
:102090006C65207265672E000000000014000000CF
:1020A0000100000028050000010000003C000000C5
:1020B0000F00000000000000000000000F00000002
:1020C0000000000000000000000000000000000010
:1020D0000000000000000000000000004F75747058
:1020E000757420616E616C6F672069732064697319
:1020F00061626C65640000000000000000000000E8
:10210000000000000000000041626F72743A204F2E
:10211000757470757420414D53454C206973207758
:10212000726F6E67000000000000000000000000F9
:102130000000000001576169740000000000000009
:10214000000000000000000000000000000000008F
:10215000000000000000000000000000004368656F
:10216000636B696E672074686520696E7075742092
:10217000706F727420636F6E74726F6C207265671B
:102180002E0000000000000014000000000000000D
:102190002C0500000000000000FF0F00FF0F0000F2
:1021A0000000000000000000FF0F00000000000021
:1021B000000000000000000000000000000000001F
:1021C0000000000000000000496E7075742050434C
:1021D000544C2073657420666F72204750494F003D
:1021E00000000000000000000000000000000000EF
:1021F0000000000041626F72743A20496E7075747D
:10220000205043544C2069732077726F6E67000032
:1022100000000000000000000000000000000000BE
:102220000157616974000000000000000000000018
:10223000000000000000000000000000000000009E
:10224000000000000000000000436865636B696ED9
:102250006720746865206F757470757420706F7274
:102260007420636F6E74726F6C207265672E00004D
:102270000000000014000000010000002C05000018
:102280000100000000FFFF00FFFF00000000000051
:1022900000000000FFFF0000000000000000000040
:1022A000000000000000000000000000000000002E
:1022B000000000004F7574707574205043544C201A
:1022C00073657420666F72204750494F000000000C
:1022D00000000000000000000000000000000000FE
:1022E00041626F72743A204F757470757420504358
:1022F000544C2069732077726F6E670000000000F5
:1023000000000000000000000000000001576169AB
:102310007400000000000000000000000000000049
:1023200000000000000000000000000000000000AD
:102330000000000000436865636B696E6720746885
:102340006520696E70757420646972656374696F65
:102350006E2072656769737465720000000000008A
:102360001400000000000000000400000000000055
:102370003C0000000F000000000000000000000012
:102380000F0000000000000000000000000000003E
:10239000000000000000000000000000000000003D
:1023A000496E70757420646972656374696F6E201C
:1023B0006973204F4B000000000000000000000087
:1023C00000000000000000000000000041626F7289
:1023D000743A20496E70757420646972656374691B
:1023E0006F6E2069732077726F6E670000000000C7
:1023F0000000000000000000015761697400000047
:1024000000000000000000000000000000000000CC
:1024100000000000000000000000000000000000BC
:1024200000436865636B696E6720746865206F752B
:102430007470757420646972656374696F6E20725C
:102440006567697374657200000000001400000085
:102450000100000000040000010000003C0000003A
:102460000F00000000000000000000000F0000004E
:10247000000000003C0000000F0000000000000011
:10248000000000000F000000000000004F75747095
:10249000757420646972656374696F6E2069732056
:1024A0004F4B000000000000000000000000000092
:1024B000000000000000000041626F72743A204F7B
:1024C000757470757420646972656374696F6E20C9
:1024D00069732077726F6E670000000000000000D3
:1024E0000000000001576169740000000000000056
:1024F00000000000000000000000000000000000DC
:1025000000000000000000000000000000436865BB
:10251000636B696E672074686520696E70757420DE
:10252000616C742E2066756E63742E207265676907
:1025300073746572000000001400000000000000C9
:1025400020040000000000003C0000000F0000001C
:1025500000000000000000000F000000000000006C
:10256000000000000000000000000000000000006B
:102570000000000000000000496E707574204146A4
:1025800053454C206973204F4B00000000000000B1
:10259000000000000000000000000000000000003B
:1025A0000000000041626F72743A20496E707574C9
:1025B00020414653454C2069732077726F6E670047
:1025C000000000000000000000000000000000000B
:1025D0000157616974000000000000000000000065
:1025E00000000000000000000000000000000000EB
:1025F000000000000000000000436865636B696E26
:102600006720746865206F757470757420616C74D0
:102610002E2066756E63742E207265672E00000092
:102620000000000014000000010000002004000071
:10263000010000003C0000000F000000000000004E
:10264000000000000F00000000000000000000007B
:10265000000000000000000000000000000000007A
:10266000000000004F757470757420414653454C4E
:10267000206973204F4B00000000000000000000A4
:10268000000000000000000000000000000000004A
:1026900041626F72743A204F7574707574204146B0
:1026A00053454C2069732077726F6E6700000000FD
:1026B00000000000000000000000000001576169F8
:1026C0007400000000000000000000000000000096
:1026D00000000000000000000000000000000000FA
:1026E0000000000000436865636B696E67207468D2
:1026F0006520696E7075742070756C6C75702072D1
:1027000065676973746572000000000000000000D6
:102710001400000000000000100500000000000090
:102720003C0000000F00000000000000000000005E
:102730000F0000000000000000000000000000008A
:102740000000000000000000000000000000000089
:10275000496E7075742070756C6C2075702069738B
:10276000204F4B00000000000000000000000000AF
:1027700000000000000000000000000041626F72D5
:10278000743A20496E707574205055522069732038
:1027900077726F6E6700000000000000000000000C
:1027A0000000000000000000015761697400000093
:1027B0000000000000000000000000000000000019
:1027C0000000000000000000000000000000000009
:1027D00000436865636B696E6720746865206F7578
:1027E000747075742070756C6C7570207265676993
:1027F0007374657200000000000000001400000007
:102800000100000010050000010000003C00000075
:102810000F00000000000000000000000F0000009A
:1028200000000000000000000000000000000000A8
:102830000000000000000000000000004F757470F0
:1028400075742070756C6C207570206973204F4B07
:102850000000000000000000000000000000000078
:10286000000000000000000041626F72743A204FC7
:102870007574707574205055522069732077726F8B
:102880006E67000000000000000000000000000073
:1028900000000000015761697400000000000000A2
:1028A0000000000000000000000000000000000028
:1028B0000000000000000000000000000043686508
:1028C000636B696E6720746865206F7574707574CA
:1028D0002070756C6C646F776E20726567697374B5
:1028E00065720000000000001400000001000000FC
:1028F00014050000010000003C0000000F00000073
:1029000000000000000000000F00000000000000B8
:1029100000000000000000000000000000000000B7
:1029200000000000000000004F7574707574207086
:10293000756C6C20646F776E206973204F4B0000BC
:102940000000000000000000000000000000000087
:102950000000000041626F72743A204F7574707508
:1029600074205044522069732077726F6E670000A4
:102970000000000000000000000000000000000057
:1029800001576169740000000000000000000000B1
:102990000000000000000000000000000000000037
:1029A000000000000000000000436865636B696E72
:1029B000672074686520696E707574206469676942
:1029C00074616C20656E61626C65207265672E00B3
:1029D0000000000014000000000000001C050000C2
:1029E000000000003C0000000F000000000000009C
:1029F000000000000F000000000000003C0000008C
:102A00000F00000000000000000000000F000000A8
:102A100000000000496E7075742044454E206973B3
:102A2000204F4B00000000000000000000000000EC
:102A30000000000000000000000000000000000096
:102A400041626F72743A20496E7075742044454E2D
:102A50002069732077726F6E67000000000000002D
:102A60000000000000000000000000000157616944
:102A700074000000000000000000000000000000E2
:102A80000000000000000000000000000000000046
:102A90000000000000436865636B696E672074681E
:102AA00065206F7574707574206469676974616CF2
:102AB00020656E61626C65207265672E0000000003
:102AC00014000000010000001C05000001000000CF
:102AD0003C0000000F0000000000000000000000AB
:102AE0000F000000000000003C0000000F0000008C
:102AF00000000000000000000F00000000000000C7
:102B00004C616220313320696E6974206973204FF3
:102B10004B0000000000000000000000000000006A
:102B200000000000000000000000000041626F7221
:102B3000743A204F75747075742044454E20697343
:102B40002077726F6E670000000000000000000038
:102B500000000000000000000052656C65617365B4
:102B600020416C6C205377697463686573000000C2
:102B70000000000000000000000000000000000055
:102B800000436865636B696E6720616C6C207377C6
:102B90006974636865732072656C65617365640050
:102BA0000000000000000000000000000100000024
:102BB0000200000008E10F400200000000000000D9
:102BC0000000000000000000000000000000000005
:102BD00000000000000000000000000000000000F5
:102BE00000000000000000000000000020000000C5
:102BF00000000000000000000000000000000000D5
:102C000000000000000000000000000000000000C4
:102C100000000000000000000000000000000000B4
:102C200000000000000000000000000000000000A4
:102C30000000000000000000000000000000000094
:102C4000010000000052656C6561736520416C6C89
:102C5000205377697463686573000000000000000A
:102C60000000000000000000000000000043686554
:102C7000636B696E6720616C6C207377697463683D
:102C800065732072656C6561736564000000000007
:102C90000000000000000000010000000200000031
:102CA00008E10F40020000000000000000000000EA
:102CB0000000000000000000000000000000000014
:102CC0000000000000000000000000000000000004
:102CD00000000000000000002000000000000000D4
:102CE00000000000000000000000000000000000E4
:102CF00000000000000000000000000000000000D4
:102D000000000000000000000000000000000000C3
:102D100000000000000000000000000000000000B3
:102D200000000000000000000000000002000000A1
:102D30000052656C6561736520416C6C2053776946
:102D4000746368657300000000000000000000006C
:102D5000000000000000000000436865636B696EBE
:102D60006720616C6C207377697463686573207287
:102D7000656C656173656400000000000000000080
:102D800000000000010000000200000008E10F4008
:102D90000200000000000000000000000000000031
:102DA0000000000000000000000000000000000023
:102DB0000000000000000000000000000000000013
:102DC00000000000200000000000000000000000E3
:102DD00000000000000000000000000000000000F3
:102DE00000000000000000000000000000000000E3
:102DF00000000000000000000000000000000000D3
:102E000000000000000000000000000000000000C2
:102E10000000000000000000030000000152656C8B
:102E20006561736520416C6C2053776974636865D4
:102E3000730000000000000000000000000000001F
:102E40000000000000436865636B696E6720616C79
:102E50006C2073776974636865732072656C656153
:102E60007365640000000000000000000000000026
:102E7000E803000000000000FC0300000000000068
:102E80003C0000000F0000000000000000000000F7
:102E90000F00000000000000000000000000000023
:102EA0000000000000000000000000000000000022
:102EB0005377697463686573206172652072656C0D
:102EC0006561736564000000000000000000000000
:102ED00000000000000000000400000041626F726A
:102EE000743A205377697463686573206E657665FC
:102EF000722072656C6561736564000000000000FB
:102F000000000000040000000052656C65617365FC
:102F100020416C6C2053776974636865730000000E
:102F200000000000000000000000000000000000A1
:102F30000046696E697368696E6720636865636BD4
:102F4000696E67206F75747075742073696C656E37
:102F500074000000000000000000000001000000FC
:102F60000200000008E10F40020000000000000025
:102F70000000000000000000000000000000000051
:102F80000000000000000000000000000000000041
:102F9000000000000000000000000000537769748A
:102FA00063686573206172652072656C6561736525
:102FB00064000000000000000000000000000000AD
:102FC0000000000000000000000000000000000001
:102FD00000000000000000000000000000000000F1
:102FE00000000000000000000000000000000000E1
:102FF000FCFFFFFF0052656C6561736520416C6CDE
:103000002053776974636865730000000000000056
:103010000000000000000000000000000046696E93
:10302000697368696E6720636865636B696E6720A2
:103030006F75747075742073696C656E7400000030
:10304000000000000000000001000000020000007D
:1030500008E10F4002000000000000000000000036
:103060000000000000000000000000000000000060
:103070000000000000000000000000000000000050
:1030800000000000000000005377697463686573F6
:10309000206172652072656C656173656400000073
:1030A0000000000000000000000000000000000020
:1030B0000000000000000000000000000000000010
:1030C0000000000000000000000000000000000000
:1030D000000000000000000000000000FDFFFFFFF6
:1030E0000052656C6561736520416C6C2053776993
:1030F00074636865730000000000000000000000B9
:1031000000000000000000000046696E69736869F5
:103110006E6720636865636B696E67206F75747096
:1031200075742073696C656E740000000000000007
:1031300000000000010000000200000008E10F4054
:10314000020000000000000000000000000000007D
:10315000000000000000000000000000000000006F
:10316000000000000000000000000000000000005F
:1031700000000000537769746368657320617265AD
:103180002072656C656173656400000000000000DA
:10319000000000000000000000000000000000002F
:1031A000000000000000000000000000000000001F
:1031B000000000000000000000000000000000000F
:1031C0000000000000000000FEFFFFFF01507573CB
:1031D0006820616E6420486F6C6420537769746363
:1031E0006820302028432900000000000000000073
:1031F0000000000000436865636B696E67206F6EB6
:103200006C79207377697463682030202843292003
:1032100070726573736564000000000000000000B8
:10322000E803000000000000FC03000000000000B4
:103230003C0000000F000000000000000000000043
:103240000F0000000000000004000000010000006A
:10325000000000000000000001000000000000006D
:10326000537769746368206973207072657373653E
:1032700064000000000000000000000000000000EA
:1032800000000000000000000400000041626F72B6
:10329000743A2053776974636820302028432920CA
:1032A0006E657665722070726573736564000000E8
:1032B00000000000FFFFFFFF005075736820616E83
:1032C0006420486F6C6420537769746368203020F1
:1032D000284329000000000000000000000000005A
:1032E00000436865636B696E67206F7574707574F1
:1032F000206672657175656E637920697320353259
:103300003320487A0000000000000000C8000000E0
:103310000200000008E10F40020000000000000071
:10332000000000000000000000000000000000009D
:10333000000000000100000000000000000000008C
:10334000000000000000000000000000000000007D
:10335000000000000000000000000000000000006D
:10336000000000000000000000000000000000005D
:10337000000000000000000020000000000000002D
:10338000000000000000000000000000000000003D
:10339000000000000000000000000000000000002D
:1033A00005000000015075736820616E6420486F4D
:1033B0006C642053776974636820312028442900A5
:1033C00000000000000000000000000000436865ED
:1033D000636B696E67206F6E6C79207377697463B5
:1033E0006820312028442920707265737365640059
:1033F0000000000000000000E803000000000000E2
:10340000FC030000000000003C0000000F00000072
:1034100000000000000000000F000000000000009D
:103420000800000002000000000000000000000092
:10343000020000000000000053776974636820698F
:1034400073207072657373656400000000000000F3
:10345000000000000000000000000000000000006C
:103460000400000041626F72743A205377697463FC
:1034700068203120284429206E657665722070729C
:10348000657373656400000000000000FBFFFFFF30
:10349000005075736820616E6420486F6C6420531F
:1034A00077697463682031202844290000000000F7
:1034B000000000000000000000436865636B696E57
:1034C00067206F7574707574206672657175656EAE
:1034D00063792069732035383720487A000000006E
:1034E00000000000C80000000200000008E10F40DA
:1034F00002000000000000000000000000000000CA
:1035000000000000000000000000000001000000BA
:1035100000000000000000000000000000000000AB
:10352000000000000000000000000000000000009B
:10353000000000000000000000000000000000008B
:10354000000000000000000000000000000000007B
:10355000200000000000000000000000000000004B
:10356000000000000000000000000000000000005B
:10357000000000000000000006000000015075730C
:103580006820616E6420486F6C64205377697463AF
:1035900068203220284529000000000000000000BB
:1035A0000000000000436865636B696E67206F6E02
:1035B0006C7920737769746368203220284529204C
:1035C0007072657373656400000000000000000005
:1035D000E803000000000000FC0300000000000001
:1035E0003C0000000F000000000000000000000090
:1035F0000F000000000000001000000004000000A8
:1036000000000000000000000400000000000000B6
:10361000537769746368206973207072657373658A
:103620006400000000000000000000000000000036
:1036300000000000000000000400000041626F7202
:10364000743A205377697463682032202845292012
:103650006E65766572207072657373656400000034
:1036600000000000FAFFFFFF005075736820616ED4
:103670006420486F6C64205377697463682032203B
:1036800028452900000000000000000000000000A4
:1036900000436865636B696E67206F75747075743D
:1036A000206672657175656E6379206973203635A1
:1036B0003920487A0000000000000000C800000027
:1036C0000200000008E10F400200000000000000BE
:1036D00000000000000000000000000000000000EA
:1036E00000000000010000000000000000000000D9
:1036F00000000000000000000000000000000000CA
:1037000000000000000000000000000000000000B9
:1037100000000000000000000000000000000000A9
:103720000000000000000000200000000000000079
:103730000000000000000000000000000000000089
:103740000000000000000000000000000000000079
:1037500007000000015075736820616E6420486F97
:103760006C642053776974636820332028472900EC
:103770000000000000000000000000000043686539
:10378000636B696E67206F6E6C7920737769746301
:1037900068203320284729207072657373656400A0
:1037A0000000000000000000E8030000000000002E
:1037B000FC030000000000003C0000000F000000BF
:1037C00000000000000000000F00000000000000EA
:1037D00020000000080000000000000000000000C1
:1037E00008000000000000005377697463682069D6
:1037F0007320707265737365640000000000000040
:1038000000000000000000000000000000000000B8
:103810000400000041626F72743A20537769746348
:1038200068203320284729206E65766572207072E3
:10383000657373656400000000000000F9FFFFFF7E
:10384000005075736820616E6420486F6C6420536B
:10385000776974636820332028472900000000003E
:10386000000000000000000000436865636B696EA3
:1038700067206F7574707574206672657175656EFA
:1038800063792069732037383320487A00000000BC
:1038900000000000C80000000200000008E10F4026
:1038A0000200000000000000000000000000000016
:1038B0000000000000000000000000000100000007
:1038C00000000000000000000000000000000000F8
:1038D00000000000000000000000000000000000E8
:1038E00000000000000000000000000000000000D8
:1038F00000000000000000000000000000000000C8
:103900002000000000000000000000000000000097
:1039100000000000000000000000000000000000A7
:1039200000000000000000000800000000446F6E6E
:103930006500000000000000000000000000000022
:103940000000000000000000000000000000000077
:103950000000000000446F6E652067726164696E4C
:1039600067000000000000000000000000000000F0
:103970000000000000000000000000000000000047
:10398000010000000200000008E10F4002000000FA
:103990000000000000000000000000000000000027
:1039A0000000000000000000000000000000000017
:1039B0000000000000000000000000000000000007
:1039C000446F6E652067726164696E670000000075
:1039D00000000000000000000000000000000000E7
:1039E00000000000000000000000000000000000D7
:1039F00000000000000000000000000000000000C7
:103A000000000000000000000000000000000000B6
:103A100000000000F8FFFFFF00000000FC030000B2
:103A2000000000003C0000000F000000000000004B
:103A3000000000000F000000000000000000000077
:103A40000000000000000000000000000000000076
:103A50000000000000010000FC0300000100000065
:103A6000200000000800000000000000000000002E
:103A70000800000000000000200000000800000016
:103A8000000000000000000008000000000000002E
:103A900041626F72743A20537065616B6572206F7A
:103AA0006E207768696C652073776974636820722B
:103AB000656C65617365640000000000FC03000034
:103AC000000000003C0000000F00000000000000AB
:103AD000000000000F0000000000000000000000D7
:103AE00000000000000000000000000000000000D6
:103AF0000000000000010000FC03000001000000C5
:103B000010000000040000000000000000000000A1
:103B1000040000000000000010000000040000008D
:103B20000000000000000000040000000000000091
:103B300041626F72743A20537065616B6572206FD9
:103B40006E207768696C652073776974636820728A
:103B5000656C65617365640000000000FC03000093
:103B6000000000003C0000000F000000000000000A
:103B7000000000000F000000000000000000000036
:103B80000000000000000000000000000000000035
:103B90000000000000010000FC0300000100000024
:103BA000080000000200000000000000000000000B
:103BB00002000000000000000800000002000000F9
:103BC00000000000000000000200000000000000F3
:103BD00041626F72743A20537065616B6572206F39
:103BE0006E207768696C65207377697463682072EA
:103BF000656C65617365640000000000FC030000F3
:103C0000000000003C0000000F0000000000000069
:103C1000000000000F000000000000000000000095
:103C20000000000000000000000000000000000094
:103C30000000000000010000FC0300000100000083
:103C4000040000000100000000000000000000006F
:103C5000010000000000000004000000010000005E
:103C60000000000000000000010000000000000053
:103C700041626F72743A20537065616B6572206F98
:103C80006E207768696C6520737769746368207249
:103C9000656C6561736564005369676E616C20696A
:103CA0007320746F6F20736D616C6C0011000000E5
:103CB0000C00000000000000F4FFFFFFEFFFFFFF1B
:103CC000F4FFFFFF000000000C00000000000000F7
:103CD000F4FFFFFFEFFFFFFFF4FFFFFF0000000016
:103CE0000C000000110000000C000000010A050794
:103CF0000F0C080202000000060000000300000094
:103D000000000000010000000700000004000000A7
:103D10000500000003000000040000000000000097
:103D20000200000006000000070000000100000083
:103D300005000000543D000000000020500000007D
:103D4000C0020000A43D0000500000201807000041
:103D5000DC02000000000000000000000000000085
:103D60000000000000350C00000000000000000012
:103D70000000000000000000000000000000000043
:103D80000000000000000000000000000000000033
:103D90000000000000000000000000000000000023
:043DA000000000001F
:040000050000026D88
:00000001FF
