:020000040000FA
:10000000280700206D02000071020000730200004A
:100010007502000077020000790200000000000075
:100020000000000000000000000000007B02000053
:100030007D020000000000007F020000810200003D
:10004000830200008302000083020000830200009C
:10005000830200008302000083020000830200008C
:10006000830200008302000083020000830200007C
:10007000830200008302000083020000830200006C
:10008000830200008302000083020000830200005C
:10009000830200008302000083020000830200004C
:1000A000830200008302000083020000830200003C
:1000B0008302000083020000550500008302000057
:1000C000830200008302000083020000830200001C
:1000D000830200008302000083020000830200000C
:1000E00083020000830200008302000083020000FC
:1000F00083020000830200008302000083020000EC
:1001000083020000830200008302000083020000DB
:1001100083020000830200008302000083020000CB
:1001200083020000830200008302000083020000BB
:1001300083020000830200008302000083020000AB
:1001400000000000000000000000000000000000AF
:100150008302000083020000E90B0000830200001C
:10016000000000000000000000000000000000008F
:10017000000000000000000000000000000000007F
:10018000000000000000000000000000000000006F
:10019000000000000000000000000000000000005F
:1001A000000000000000000000000000000000004F
:1001B000090C00008302000083020000830200009B
:1001C000830200008302000083020000830200001B
:1001D000830200008302000083020000830200000B
:1001E00083020000830200008302000083020000FB
:1001F00083020000830200008302000083020000EB
:10020000830200008302000083020000000000005F
:1002100083020000830200008302000083020000CA
:1002200083020000830200008302000083020000BA
:1002300083020000830200008302000083020000AA
:10024000830200008302000083020000830200009A
:10025000830200008302000083020000830200008A
:1002600083020000830200008302000000F00AB84D
:10027000FEE7FEE7FEE7FEE7FEE7FEE7FEE7FEE756
:10028000FEE7FEE700F002F800F03AF80AA090E876
:10029000000C82448344AAF10107DA4501D100F041
:1002A0002FF8AFF2090EBAE80F0013F0010F18BFD4
:1002B000FB1A43F001031847F82500001826000038
:1002C000103A24BF78C878C1FAD8520724BF30C882
:1002D00030C144BF04680C60704700000023002454
:1002E00000250026103A28BF78C1FBD8520728BF46
:1002F00030C148BF0B6070471FB51FBD10B510BDA2
:1003000000F029F81146FFF7F7FF00F0BBFE00F000
:1003100047F803B4FFF7F2FF03BC00F04BF800000E
:1003200072B6704762B67047EFF3108072B67047CE
:1003300080F31088704730BF704702480249014A75
:10034000024B7047280300202807002028030020C4
:10035000704770477047754600F028F8AE460500B4
:100360006946534620F00700854618B020B5FFF7D0
:10037000E4FFBDE820404FF000064FF000074FF0CB
:1003800000084FF0000B21F00701AC46ACE8C009B3
:10039000ACE8C009ACE8C009ACE8C0098D467047BC
:1003A0000446AFF300802046FFF7B3FF00487047D4
:1003B000C402002001491820ABBEFEE7260002005F
:1003C000704700000148006870470000A890034093
:1003D00008B52948006840F008002849C1F808011C
:1003E0002548006800902448006800902448006870
:1003F00020F00800224908602248006840F0080008
:10040000204908602048006820F008001E49086064
:100410001E48006840F008001C4908601C4800683D
:1004200040F002001A4908604FF00000009002E01E
:100430000098401C009000981428F9D30120154919
:10044000086040F223101449086200200860084642
:10045000406940F470404861042008630F49086017
:100460004FF006000C49C1F8A4004FF0000088606E
:100470004FF00800086008BD08E10F4000E00F40A1
:1004800000740040207400401C7500402875004036
:1004900038E60F40C49F034000900340A090034003
:1004A0000348006820F008000249C1F8FC037047C7
:1004B000FC530240005002400348006820F0020054
:1004C0000249C1F8FC037047FC530240005002404F
:1004D00006E043F2154100E0491E0029FCD1401E10
:1004E0000028F6D170470000F0B50646002420E051
:1004F000701C6043C0EBC00000F0040711480057B7
:10050000A0F1300510480057454005F00800800074
:1005100005F0040100EB410005F00301451885EAF0
:100520000700413040B2094951F82410084A50549C
:10053000641C082CDCDB002005490872084600F02A
:10054000EDF8F0BD88020020682800007028000047
:10055000920200202649886C2649096811F0100F84
:100560000DD02549096801F01001102907D1234950
:10057000096821B90121214A1160214908601D49FA
:10058000096811F0020F2ED01B49096801F0020121
:10059000022919D119490968012924D10221174AD0
:1005A000116017490968091A164AB1FBF2F1164A97
:1005B0001160114909684FF0010222EAD101134A82
:1005C00011600F4908600EE00C49096802290AD140
:1005D00003210A4A11600A490968091A094AB1FB4C
:1005E000F2F10B4A11601221024A08321160704781
:1005F0000040034014540240FC530240100000200D
:100600004400002080380100480000204C000020F9
:10061000140000201D48006F40F000401B4908678F
:100620000846006F40F4006008670846006E20F43A
:10063000F86008660846006E00F5A860086608467F
:10064000006F20F0700008670846006F08670846D2
:10065000006F20F4005008670846006F40F08040AB
:1006600008670846006F20F0FE5000F180700867B0
:1006700000BF0648006D10F0400FFAD00348006F2D
:1006800020F40060014908677047000000E00F4057
:1006900008B51B48006840F020001A49C1F808015D
:1006A000174800680090184800684FF0000016498D
:1006B000086001F1040000684FF0000001F104013E
:1006C00008601248006820F01000104908600846D1
:1006D000006840F00E0008600D4800684FF0000010
:1006E0000B4908600B48006840F010000949086099
:1006F0000948006840F01E000749086008BD000076
:1007000008E10F4000E00F4028550240005402402D
:1007100020540240105502401C5502400146044A34
:10072000002002E00B5C1354401C0828FADB7047E1
:10073000700000200146044A002002E00B5C1354C4
:10074000401C0828FADB70475800002070B50646A8
:100750000D4614460A20B6FBF0F0353040B22C4965
:1007600008700A20B6FBF0F100FB1160303040B297
:1007700027494870632D05D92648806C00F0070092
:1007800000F15C050A20B5FBF0F0303040B22049A2
:1007900088700A20B5FBF0F100FB115505F130001F
:1007A00040B21B49C87042F20F70844200D9002445
:1007B0004FF47A70B4FBF0F0303040B21449087155
:1007C0004FF47A70B4FBF0F100FB11446420B4FBE9
:1007D000F0F0303040B20E4948716420B4FBF0F1C3
:1007E00000FB11440A20B4FBF0F0303040B208495D
:1007F00088710A20B4FBF0F100FB114404F13000D1
:1008000040B20349C8710349886CFFF76DFE70BDA3
:1008100088020020005003400348006840F00800B0
:100820000249C1F8FC037047FC53024000500240EB
:100830000348006840F002000249C1F8FC03704719
:10084000FC530240005002402748006830B141F696
:100850003F70264988624020254908602548006885
:1008600005280DD112202449086023480C3800685F
:1008700020F0120020490C39086020201F49086030
:100880001F480068CD2804D21EA0224948630020DA
:1008900070471B480068B0F5947F04D31EA01D4923
:1008A00048630020F4E720480068CD2804D21FA048
:1008B000184948630020EBE71B480068B0F5947FB7
:1008C00004D31FA0134948630020E1E721480068D2
:1008D00020B921A00F4948630020D9E724A00D4981
:1008E00008632120D4E700004000002000400340BE
:1008F00008E100E0040000201C54024080E100E018
:100900004800002044656C6179203C203230356D10
:10091000730000005000002044656C6179203E2087
:100920003237356D730000001400002050756C7371
:10093000652054696D65203C203230356D730000B0
:1009400050756C73652054696D65203E20323935D1
:100950006D7300004C00002052656164792073685B
:100960006F756C64206265207A65726F000000000C
:1009700044656C617965642056542070756C7365AC
:1009800020697320676F6F640000000010B50020BD
:100990001F4908601F4908601F4908601F49086017
:1009A0001F490860FFF7BCFC1E480068052823D1DA
:1009B0001D48006820F012001B490860081D0068EF
:1009C00040F01200091D0860FF2017491831086027
:1009D00015480C30006840F0120013490C310860D3
:1009E0001248006820F47F0040F480000F4908603E
:1009F0004FF080400E4908604FF040000D490860FC
:100A00004FF0FF300C498862FFF78CFC10BD0000EE
:100A100010000020440000204800002014000020A6
:100A20004C00002004000020045402401CE400E0BC
:100A300000E100E088E100E00040034070B50546B9
:100A40000E461446FFF7E6FD4948006840F03000C6
:100A50004749086047A0FFF76DFE49484949886249
:100A60004948C8620863486300204849086045490E
:100A70000860474908604749086047490860474996
:100A8000086047484749086007203E490861002040
:100A900048614549086005204449086044490860A8
:100AA0004448454908604548486045A0FFF736FE80
:100AB00000204649C8600860022048603948006844
:100AC000401E886200208863012048628861404897
:100AD000006820F0FF0040F040003D4908604FF002
:100AE00080503C4908604FF001003849C860FFF76A
:100AF0006FFC39480460006808B300F057FA002022
:100B00003649C86008600220486041F63F7088623C
:100B1000002088630120486288612D4818380068E9
:100B200020F47F0040F46000294918390860402013
:100B3000284908604FF001002849C86014E00020EF
:100B40002649C860086002204860C01E88620020F4
:100B500088630120486200208861402020490860A5
:100B60004FF001001D49C8601E480649C86270BDAB
:100B700004E60F4055542E362E3033780000000026
:100B80007C110000500000202C1100002C000020DF
:100B90003C00002038000020280000203000002009
:100BA00000350C000C000020240000200000002074
:100BB00004000020DC1000001C00002004110000D4
:100BC0002020202020202020000000000050034092
:100BD0005CE400E008E100E0400000200040034049
:100BE00088E100E0541100000120044948620448F3
:100BF00000684FEA10100349086070470040034046
:100C0000A890034000C000402DE9F041D84800689A
:100C1000401ED849886201204862FFF7D3FB40F6A6
:100C2000B8314843000BD4490860D448006830B15B
:100C3000D2480068401ED1490860BDE8F081D04824
:100C4000007810F0010F1ED1CE48007810F0010F8F
:100C500019D00120CB4908600020CB490860012051
:100C6000CA4908603220C54908600120C4490860AB
:100C70000020C4494861C6490860C648C1490863A4
:100C800048638862D9E7BF480068BD490860BD482D
:100C9000007810F0010F7DD0BB48006817280AD3F8
:100CA0000220B849086008468269B94801680720EF
:100CB000FFF74CFDC1E7B5480068E8B30020B34931
:100CC0000860B148006800EB8001C1EB8010B249B8
:100CD00001EB8000406DB1490860AB48006800EB53
:100CE0008001C1EB8010AC4901EB8000401CA5499C
:100CF0008862A548006800EB8001C1EB8010A6491E
:100D000001EB800029309F49C8629F48006800EBD2
:100D10008001C1EB8010A04901EB8000D0F8E870A1
:100D2000022F01D1FFF732FEB81C0CD1FFF78CFD6A
:100D300097490968084400E005E0954908600846BD
:100D400000689049486195480068E8BB8E48006893
:100D500000EB8001C1EB80108F4911F820000128C1
:100D60001BD18948006800EB8001C1EB80108A49E3
:100D700001EB8000C0308349486306200860824848
:100D80000068401C804908600120804908603220CA
:100D90007A4900E0E9E00860E7E07B48006800EBA2
:100DA0008001C1EB80107C4901EB8000C0307549A7
:100DB000486375480068401C734908600120734906
:100DC000086032206D4900E001E00860CDE0734822
:100DD0000068401E714908606B48006800EB8001A4
:100DE000C1EB80106C4901EB800090F8580028B9E5
:100DF0006B486C49096850F8214013E0624800686C
:100E000000EB8001C1EB8010634901EB800090F89A
:100E10005800012805D162486349096850F821400B
:100E200000E000245848006800EB8001C1EB80100E
:100E3000594901EB8000C06D0444D4F80080524849
:100E4000006800EB8001C1EB8010534901EB80008A
:100E500090F86000E0B94C48006800EB8001C1EBFD
:100E600080104D4901EB800064304E49096850F80C
:100E700021504548006800EB8001C1EB80104649D5
:100E800001EB80007C304749096850F821603DE063
:100E90003D48006800EB8001C1EB80103E4901EB4A
:100EA000800090F8600001281CD13748006800EBF2
:100EB0008001C1EB8010384901EB800064303A4971
:100EC000096850F821503048006800EB8001C1EB00
:100ED0008010314901EB80007C303349096850F8BB
:100EE000216013E02848006800EB8001C1EB80100E
:100EF000294901EB8000456E2348006800EB800122
:100F0000C1EB8010244901EB8000C66F08EA0500A0
:100F1000B0422AD11C48006800EB8001C1EB801070
:100F20001D4901EB8000943016490863164800689B
:100F300000EB8001C1EB8010174901EB8000D0F875
:100F4000BC00134909680844114908600846006854
:100F50000C4948610C480068401C0B49086001209E
:100F60000A49086032200549086000BF65E60000B4
:100F70000C00002000500340240000203800002016
:100F80002C000020500000203C00002030000020F9
:100F9000180000202C110000F41100003400002083
:100FA000C410000000000020040000201F4800685A
:100FB00040F001001E49C1F804010846D0F80801BC
:100FC00040F00100C1F808011A48006B20F0010050
:100FD000184908634FF02B0048624FF01A008862EE
:100FE0004FF07000C8620846006B40F001000863D3
:100FF0001148006840F003000F4908600F4800687E
:1010000040F003000D4908600D48006820F0FF0023
:1010100000F111000A490860A1F10400006820F005
:101020000300A1F1040108607047000004E10F40D3
:1010300000E00F4000C00040204400401C4500403C
:101040002C4500400648006810F0100F00D0704793
:1010500000BF0348006810F0100FFAD000BFF6E799
:10106000FC5302400648006810F0100F00D1704792
:1010700000BF0348006810F0100FFAD100BFF6E778
:10108000FC530240012205210846FFF7D7FCFFF779
:10109000FFFAFFF747F914E0FFF7BEFBFFF7E2FFA7
:1010A000FFF7FEF90A20FFF713FAFFF7CBFFFA204C
:1010B000FFF70EFAFFF7BCFBFA20FFF709FAFFF77C
:1010C000FBF9E9E7004000400050004000600040AC
:1010D000007000400040024000500240496E7075B0
:1010E0007420697320504634203D2053573100004E
:1010F00000000000000000000000000000000000F0
:10110000000000004F757470757473206172652063
:101110005046332C504631203D204C4544000000C1
:10112000000000000000000000000000200000009F
:1011300000000000000000000000000000000000AF
:10114000000000000000000000000000000000009F
:1011500000000000544578615320697320696E696E
:101160007469616C697A656420666F72204C616293
:10117000203700000000000000000000436C69639D
:101180006B2047726164696E6720627574746F6E5C
:1011900020746F2073746172742067726164696E69
:1011A00067000000446F6E652067726164696E6756
:1011B000000000000000000000000000000000002F
:1011C0000000000000000000000000003031323359
:1011D00034353637383930313233343536373839BB
:1011E00030313233343536373839303132333435C3
:1011F00036373800015761697400000000000000B4
:1012000000000000000000000000000000000000DE
:1012100000000000000000000000000000436865BE
:10122000636B696E67207468652054457861535F0D
:10123000496E6974282920696E20706172616D653C
:101240007465720000000000010000000200000050
:1012500008E10F4000000000000000000000000056
:10126000000000000000000000000000000000007E
:10127000010000000100000001000000010000006A
:101280000100000000000000466972737420706164
:1012900072616D6574657220636F7272656374004C
:1012A000000000000000000000000000000000003E
:1012B0000000000041626F72743A20544578615317
:1012C0002E6820626164206F7220666F72206469EC
:1012D00066666572656E74206C61620000000000D5
:1012E0000157616974000000000000000000000068
:1012F00000000000000000000000000000000000EE
:10130000000000000000000000436865636B696E28
:1013100067207468652054457861535F496E69742D
:101320002829206F757420706172616D6174657217
:1013300000000000010000000200000008E10F4072
:10134000010000000000000000000000000000009C
:10135000000000000000000000000000010000008C
:101360000100000001000000010000000100000079
:10137000000000005365636F6E6420706172616DE0
:101380006574657220636F7272656374000000009B
:10139000000000000000000000000000000000004D
:1013A00041626F72743A2054457861532E6820620E
:1013B0006164206F7220666F722064696666657270
:1013C000656E74206C616200000000000157616965
:1013D0007400000000000000000000000000000099
:1013E00000000000000000000000000000000000FD
:1013F0000000000000436865636B696E67207468D5
:101400006520696E70757420706F727420636C6FE4
:10141000636B0000000000000000000000000000FE
:10142000140000000200000008E10F40000000006E
:10143000010000000200000004000000080000009D
:101440001000000020000000010000000200000069
:101450000400000008000000100000002000000050
:10146000496E70757420636C6F636B206973206FB5
:101470006E000000000000000000000000000000FE
:1014800000000000000000000000000041626F72D8
:10149000743A20496E70757420706F727420636C9A
:1014A0006F636B206973206F6666000000000000A8
:1014B0000000000000000000015761697400000096
:1014C000000000000000000000000000000000001C
:1014D000000000000000000000000000000000000C
:1014E00000436865636B696E6720746865206F757B
:1014F0007470757420706F727420636C6F636B000E
:1015000000000000000000000000000014000000C7
:101510000200000008E10F4001000000010000008F
:10152000020000000400000008000000100000009D
:101530002000000001000000020000000400000084
:101540000800000010000000200000004F757470BB
:10155000757420636C6F636B206973206F6E00007D
:10156000000000000000000000000000000000007B
:10157000000000000000000041626F72743A204FCA
:10158000757470757420706F727420636C6F636B08
:10159000206973206F6666000000000000000000F4
:1015A00000000000015761697400000000000000A5
:1015B000000000000000000000000000000000002B
:1015C000000000000000000000000000004368650B
:1015D000636B696E672074686520696E707574202E
:1015E000616E616C6F6720656E61626C652072650B
:1015F000672E000000000000140000000000000042
:1016000028050000000000000000000000000000AD
:1016100000000000000000000000000010000000BA
:1016200000000000000000000000000000000000BA
:101630000000000000000000496E70757420616EAB
:10164000616C6F672069732064697361626C6564A3
:10165000000000000000000000000000000000008A
:101660000000000041626F72743A20496E70757418
:1016700020414D53454C2069732077726F6E67008F
:10168000000000000000000000000000000000005A
:1016900001576169740000000000000000000000B4
:1016A000000000000000000000000000000000003A
:1016B000000000000000000000436865636B696E75
:1016C0006720746865206F757470757420616E6131
:1016D0006C6F6720656E61626C65207265672E00B5
:1016E00000000000140000000100000028050000B8
:1016F00001000000000000000000000000000000E9
:1017000000000000000000000A00000000000000CF
:1017100000000000000000000000000000000000C9
:10172000000000004F757470757420616E616C6FFD
:10173000672069732064697361626C6564000000EE
:101740000000000000000000000000000000000099
:1017500041626F72743A204F757470757420414DF8
:1017600053454C2069732077726F6E67000000004C
:101770000000000000000000000000000157616947
:1017800074000000000000000000000000000000E5
:101790000000000000000000000000000000000049
:1017A0000000000000436865636B696E6720746821
:1017B0006520696E70757420706F727420636F6E2F
:1017C00074726F6C207265672E00000000000000CC
:1017D00014000000000000002C05000000000000C4
:1017E00000000000000000000000000000000000F9
:1017F0000000000000000F000000000000000000DA
:1018000000000000000000000000000000000000D8
:10181000496E707574205043544C20736574206673
:101820006F72204750494F00000000000000000088
:1018300000000000000000000000000041626F7224
:10184000743A20496E707574205043544C2069736B
:101850002077726F6E67000000000000000000003B
:1018600000000000000000000157616974000000E2
:101870000000000000000000000000000000000068
:101880000000000000000000000000000000000058
:1018900000436865636B696E6720746865206F75C7
:1018A0007470757420706F727420636F6E74726FD1
:1018B0006C207265672E000000000000140000001C
:1018C000010000002C0500000100000000000000E5
:1018D0000000000000000000000000000000000008
:1018E000F0F0000000000000000000000000000018
:1018F0000000000000000000000000004F75747040
:101900007574205043544C2073657420666F7220A8
:101910004750494F00000000000000000000000098
:10192000000000000000000041626F72743A204F16
:101930007574707574205043544C2069732077720D
:101940006F6E670000000000000000000000000053
:1019500000000000015761697400000000000000F1
:101960000000000000000000000000000000000077
:101970000000000000000000000000000043686557
:10198000636B696E672074686520696E707574207A
:10199000646972656374696F6E20726567697374D8
:1019A000657200000000000014000000000000004C
:1019B0000004000000000000000000000000000023
:1019C0000000000000000000000000001000000007
:1019D0000000000000000000000000000000000007
:1019E0000000000000000000496E707574206469FA
:1019F00072656374696F6E206973204F4B0000003D
:101A000000000000000000000000000000000000D6
:101A10000000000041626F72743A20496E70757464
:101A200020646972656374696F6E206973207772D0
:101A30006F6E670000000000000000000000000062
:101A40000157616974000000000000000000000000
:101A50000000000000000000000000000000000086
:101A6000000000000000000000436865636B696EC1
:101A70006720746865206F7574707574206469726E
:101A8000656374696F6E207265676973746572004F
:101A9000000000001400000001000000000400002D
:101AA0000100000000000000000000000000000035
:101AB00000000000000000000A000000000000001C
:101AC0000000000000000000000000000000000016
:101AD0000A0000004F757470757420646972656344
:101AE00074696F6E206973204F4B00000000000086
:101AF00000000000000000000000000000000000E6
:101B000041626F72743A204F757470757420646905
:101B100072656374696F6E2069732077726F6E6788
:101B20000000000000000000000000000157616993
:101B30007400000000000000000000000000000031
:101B40000000000000000000000000000000000095
:101B50000000000000436865636B696E672074686D
:101B60006520696E70757420616C742E2066756EC8
:101B700063742E20726567697374657200000000DB
:101B8000140000000000000020040000000000001D
:101B90000000000000000000000000000000000045
:101BA0000000000010000000000000000000000025
:101BB0000000000000000000000000000000000025
:101BC000496E70757420414653454C206973204F0F
:101BD0004B000000000000000000000000000000BA
:101BE00000000000000000000000000041626F7271
:101BF000743A20496E70757420414653454C2069F3
:101C0000732077726F6E6700000000000000000014
:101C1000000000000000000001576169740000002E
:101C200000000000000000000000000000000000B4
:101C300000000000000000000000000000000000A4
:101C400000436865636B696E6720746865206F7513
:101C50007470757420616C742E2066756E63742EBA
:101C6000207265672E0000000000000014000000D4
:101C7000010000002004000001000000000000003E
:101C80000000000000000000000000000000000054
:101C90000A0000000000000000000000000000003A
:101CA0000000000000000000000000004F7574708C
:101CB000757420414653454C206973204F4B0000FA
:101CC0000000000000000000000000000000000014
:101CD000000000000000000041626F72743A204F63
:101CE000757470757420414653454C206973207794
:101CF000726F6E670000000000000000000000002E
:101D0000000000000157616974000000000000003D
:101D100000000000000000000000000000000000C3
:101D200000000000000000000000000000436865A3
:101D3000636B696E672074686520696E70757420C6
:101D400070756C6C7570207265676973746572006C
:101D5000000000000000000014000000000000006F
:101D6000100500000000000000000000000000005E
:101D70000000000000000000000000001000000053
:101D80000000000000000000000000000000000053
:101D90000000000010000000496E7075742070751E
:101DA0006C6C207570206973204F4B0000000000A0
:101DB0000000000000000000000000000000000023
:101DC0000000000041626F72743A20496E707574B1
:101DD000205055522069732077726F6E67000000A3
:101DE00000000000000000000000000000000000F3
:101DF000015761697400000000000000000000004D
:101E000000000000000000000000000000000000D2
:101E1000000000000000000000436865636B696E0D
:101E20006720746865206F75747075742070756CA8
:101E30006C757020726567697374657200000000CC
:101E40000000000014000000010000001005000068
:101E50000100000000000000000000000000000081
:101E600000000000000000000A0000000000000068
:101E70000000000000000000000000000000000062
:101E8000000000004F75747075742070756C6C20C4
:101E90007570206973204F4B0000000000000000A7
:101EA0000000000000000000000000000000000032
:101EB00041626F72743A204F75747075742050557A
:101EC000522069732077726F6E6700000000000077
:101ED00000000000000000000000000001576169E0
:101EE000740000000000000000000000000000007E
:101EF00000000000000000000000000000000000E2
:101F00000000000000436865636B696E67207468B9
:101F10006520696E707574206469676974616C20EE
:101F2000656E61626C65207265672E0000000000BE
:101F300014000000000000001C050000000000006C
:101F40000000000000000000000000000000000091
:101F50000000000010000000000000000000000071
:101F60000000000000000000000000001000000061
:101F7000496E7075742044454E206973204F4B00A4
:101F80000000000000000000000000000000000051
:101F900000000000000000000000000041626F72BD
:101FA000743A20496E7075742044454E2069732040
:101FB00077726F6E670000000000000000000000F4
:101FC000000000000000000001576169740000007B
:101FD0000000000000000000000000000000000001
:101FE00000000000000000000000000000000000F1
:101FF00000436865636B696E6720746865206F7560
:1020000074707574206469676974616C20656E61B1
:10201000626C65207265672E0000000014000000ED
:10202000010000001C05000001000000000000008D
:1020300000000000000000000000000000000000A0
:102040000A00000000000000000000000000000086
:1020500000000000000000000A0000004C61622047
:102060003720696E6974206973204F4B00000000AF
:102070000000000000000000000000000000000060
:10208000000000000100000041626F72743A204FAE
:1020900075747075742044454E2069732077726F93
:1020A0006E6700000000000000000000000000005B
:1020B000000000000052656C656173652053573164
:1020C0000000000000000000000000000000000010
:1020D00000000000000000000000000000436865F0
:1020E000636B696E67207377697463682053573137
:1020F0002072656C6561736564000000000000007B
:102100000000000000000000E803000000000000E4
:10211000FC030000000000000000000000000000C0
:10212000000000000000000000000000100000009F
:10213000000000000000000000000000000000009F
:10214000000000001000000053776974636820539A
:1021500057312072656C6561736564000000000092
:10216000000000000000000000000000000000006F
:102170000000000053776974636820535731206E64
:10218000657665722072656C656173656400000038
:10219000000000000000000000000000000000003F
:1021A0000052656C65617365205357310000000073
:1021B000000000000000000000000000000000001F
:1021C000000000000000000000436865636B696E5A
:1021D00067205245414459206F6E2C205654206F81
:1021E0006666000000000000000000000000000023
:1021F00000000000E803000001000000FC030000F4
:1022000001000000000000000000000000000000CD
:1022100000000000000000000A00000000000000B4
:1022200000000000000000000000000000000000AE
:102230000800000047726164657220736565732051
:10224000677265656E00000000000000000000007D
:10225000000000000000000000000000000000007E
:1022600052656164792073686F756C6420626520C3
:102270006F6E2C2056542073686F756C64206265F5
:10228000206F6666000000000000000000507573BB
:102290006820616E6420686F6C64205357310000C1
:1022A000000000000000000000000000000000002E
:1022B0000000000000436865636B696E6720666F0D
:1022C0007220737769746368205357312070726588
:1022D000737365640000000000000000000000004F
:1022E000E803000000000000FC0300000000000004
:1022F00000000000000000000000000000000000DE
:1023000000000000100000000000000000000000BD
:1023100000000000000000000000000000000000BD
:102320005377697463682053573120697320707242
:102330006573736564000000000000000000000089
:1023400000000000000000000000000053776974E6
:10235000636820535731206E657665722070726510
:1023600073736564000000000000000000000000BE
:102370000000000000000000005075736820616ECE
:102380006420686F6C642053573100000000000027
:10239000000000000000000000000000000000003D
:1023A00000436865636B696E67205245414459205C
:1023B0006F66662C205654206F6666000000000091
:1023C0000000000000000000000000002C010000E0
:1023D00001000000FC0300000100000000000000FC
:1023E00000000000000000000000000000000000ED
:1023F0000A000000000000000000000000000000D3
:10240000000000000000000000000000477261644E
:1024100065722073656573204C454473206F666652
:1024200000000000000000000000000000000000AC
:1024300000000000000000004C4544206E657665F9
:1024400072207475726E6564206F6666000000000D
:10245000000000000000000000000000000000007C
:10246000020000000152656C6561736520535731AD
:10247000000000000000000000000000000000005C
:10248000000000000000000000000000004368653C
:10249000636B696E67207377697463682053573183
:1024A0002072656C656173656400000000000000C7
:1024B0000000000000000000E80300000000000031
:1024C000FC0300000000000000000000000000000D
:1024D00000000000000000000000000010000000EC
:1024E00000000000000000000000000000000000EC
:1024F00000000000100000005377697463682053E7
:1025000057312069732072656C65617365640000E2
:1025100000000000000000000000000000000000BB
:102520000000000053776974636820535731206EB0
:10253000657665722072656C656173656400000084
:10254000000000000000000000000000000000008B
:102550000052656C656173652053573100000000BF
:10256000000000000000000000000000000000006B
:10257000000000000000000000436865636B696EA6
:102580006720666F72205652542070756C73650018
:10259000000000000000000000000000000000003B
:1025A00000000000320000000200000008E10F40BF
:1025B0000200000000000000000000000000000019
:1025C000000000000000000000000000000000000B
:1025D00000000000000000000000000000000000FB
:1025E0000000000056542070756C7365207465738C
:1025F0007420636F6D706C657465000000000000EE
:1026000000000000000000000000000021000000A9
:1026100000000000000000000000000000000000BA
:1026200000000000000000000000000000000000AA
:102630000000000000000000000000000052656C77
:1026400065617365205357310000000000000000F1
:10265000000000000000000000000000000000007A
:102660000000000000436865636B696E6720524597
:10267000414459206F6E2C205654206F666600002E
:10268000000000000000000000000000000000004A
:102690001900000001000000FC0300000100000020
:1026A000000000000000000000000000000000002A
:1026B000000000000A000000000000000000000010
:1026C0000000000000000000000000000800000002
:1026D0004772616465722073656573206772656512
:1026E0006E0000000000000000000000000000007C
:1026F00000000000000000002100000041626F7235
:10270000743A2073686F756C64206265205265614D
:102710006479206F6E2C205654206F66660000008E
:1027200000000000FEFFFFFF00000000FC030000AF
:102730000000000000000000000000000000000099
:102740000000000000000000100000000000000079
:102750000000000000000000000000000000000079
:102760000000000000010000FC0300000100000068
:102770000000000000000000000000000000000059
:102780000000000002000000000000000000000047
:102790000000000000000000000000000000000039
:1027A00041626F72743A205654206F6E2020626529
:1027B000666F7265203235300000000000000000B6
:1027C000000000000000000000000000FC0300000A
:1027D00000000000000000000000000000000000F9
:1027E00000000000000000001000000000000000D9
:1027F00000000000000000000000000000000000D9
:102800000000000000010000FC03000001000000C7
:1028100000000000000000000000000000000000B8
:1028200000000000020000000000000000000000A6
:102830000000000000000000000000000000000098
:1028400041626F72743A205654206F66662062654A
:10285000747765656E2032353020616E64203530C6
:102860003000000000000000010A05070F0C0802FC
:10287000020000000600000003000000000000004D
:102880000100000007000000040000000500000037
:10289000030000000400000000000000020000002F
:1028A0000600000007000000010000000500000015
:1028B000D02800000000002050000000C0020000EE
:1028C0002029000050000020D8060000DC02000093
:1028D0000500000005000000000000008038010035
:1028E00000000000000000000000000000000000E8
:1028F00000000000000000000000000000000000D8
:1029000000000000000000000000000000000000C7
:1029100000000000000000000000000000000000B7
:040000050000026D88
:00000001FF
