:020000040000FA
:10000000100700206D020000710200007302000062
:100010007502000077020000790200000000000075
:100020000000000000000000000000007B02000053
:100030007D020000000000007F020000810200003D
:10004000830200008302000083020000830200009C
:10005000830200008302000083020000830200008C
:10006000830200008302000083020000830200007C
:10007000830200008302000083020000830200006C
:10008000830200008302000083020000830200005C
:10009000830200008302000083020000830200004C
:1000A000830200008302000083020000830200003C
:1000B000830200008302000083020000830200002C
:1000C000830200008302000083020000830200001C
:1000D000830200008302000083020000830200000C
:1000E00083020000830200008302000083020000FC
:1000F00083020000830200008302000083020000EC
:1001000083020000830200008302000083020000DB
:1001100083020000830200008302000083020000CB
:1001200083020000830200008302000083020000BB
:1001300083020000830200008302000083020000AB
:1001400000000000000000000000000000000000AF
:10015000830200008302000083020000830200008B
:10016000000000000000000000000000000000008F
:10017000000000000000000000000000000000007F
:10018000000000000000000000000000000000006F
:10019000000000000000000000000000000000005F
:1001A000000000000000000000000000000000004F
:1001B0005506000083020000830200008302000055
:1001C000830200008302000083020000830200001B
:1001D000830200008302000083020000830200000B
:1001E00083020000830200008302000083020000FB
:1001F00083020000830200008302000083020000EB
:10020000830200008302000083020000000000005F
:1002100083020000830200008302000083020000CA
:1002200083020000830200008302000083020000BA
:1002300083020000830200008302000083020000AA
:10024000830200008302000083020000830200009A
:10025000830200008302000083020000830200008A
:1002600083020000830200008302000000F00AB84D
:10027000FEE7FEE7FEE7FEE7FEE7FEE7FEE7FEE756
:10028000FEE7FEE700F002F800F03AF80AA090E876
:10029000000C82448344AAF10107DA4501D100F041
:1002A0002FF8AFF2090EBAE80F0013F0010F18BFD4
:1002B000FB1A43F001031847D40B0000F40B0000B5
:1002C000103A24BF78C878C1FAD8520724BF30C882
:1002D00030C144BF04680C60704700000023002454
:1002E00000250026103A28BF78C1FBD8520728BF46
:1002F00030C148BF0B6070471FB51FBD10B510BDA2
:1003000000F029F81146FFF7F7FF00F031FC00F08C
:1003100047F803B4FFF7F2FF03BC00F04BF800000E
:1003200072B6704762B67047EFF3108072B67047CE
:1003300080F31088704730BF704702480249014A75
:10034000024B70471003002010070020100300200C
:10035000704770477047754600F028F8AE460500B4
:100360006946534620F00700854618B020B5FFF7D0
:10037000E4FFBDE820404FF000064FF000074FF0CB
:1003800000084FF0000B21F00701AC46ACE8C009B3
:10039000ACE8C009ACE8C009ACE8C0098D467047BC
:1003A0000446AFF300802046FFF7B3FF00487047D4
:1003B000AC02002001491820ABBEFEE72600020077
:1003C000704700000148006870470000A890034093
:1003D00008B52948006840F008002849C1F808011C
:1003E0002548006800902448006800902448006870
:1003F00020F00800224908602248006840F0080008
:10040000204908602048006820F008001E49086064
:100410001E48006840F008001C4908601C4800683D
:1004200040F002001A4908604FF00000009002E01E
:100430000098401C009000981428F9D30120154919
:10044000086040F223101449086200200860084642
:10045000406940F470404861042008630F49086017
:100460004FF006000C49C1F8A4004FF0000088606E
:100470004FF00800086008BD08E10F4000E00F40A1
:1004800000740040207400401C7500402875004036
:1004900038E60F40C49F034000900340A090034003
:1004A0001D48006F40F000401B4908670846006F78
:1004B00040F4006008670846006E20F4F8600866A3
:1004C0000846006E00F5A86008660846006F20F038
:1004D000700008670846006F08670846006F20F440
:1004E000005008670846006F40F0804008670846E3
:1004F000006F20F0FE5000F18070086700BF0648D2
:10050000006D10F0400FFAD00348006F20F4006037
:10051000014908677047000000E00F400146044AA7
:10052000002002E00B5C1354401C0828FADB7047E3
:10053000580000200146044A002002E00B5C1354DE
:10054000401C0828FADB70474000002000B5FFF788
:10055000A7FF2948006840F020002749086027A02D
:10056000FFF7E8FF2848294988622948C8620863DC
:10057000486300202749086024490860264908602C
:100580002649086026490860264908602648274908
:1005900008600B201D49086100204861244908605B
:1005A000052024490860486023A0FFF7B7FF00201A
:1005B0002449C8600860022048601C480068401E4A
:1005C0008862002088630120486288611E480068B4
:1005D00020F0FF0040F040001B4908604FF08050C1
:1005E0001A4908604FF001001649C860FFF7F0FE95
:1005F00017480649C86200BD04E60F4055542E3620
:100600002E303278000000005C0C00003800002022
:100610000C0C0000180000202800002024000020FE
:10062000140000201C00002000350C0000000020F9
:100630001000002008000020202020202020202062
:1006400000000000005003405CE400E008E100E02E
:10065000340C000000B57B480068401E7A4A906266
:1006600001205062FFF7AEFE40F6E4425043000B1B
:10067000764A10607648006828B175480068401EC8
:10068000734A106000BD7348007810F0010F1ED14E
:100690007148007810F0010F19D001206E4A1060E7
:1006A00000206E4A106001206D4A10606420684A84
:1006B00010600120674A10600020674A5061694A53
:1006C00010606948644A106350639062DAE76248D8
:1006D0000068604A10606048007810F0010F7DD01B
:1006E0005E480068022803D302205B4A1060C9E715
:1006F0005B48006838B30020594A106057480068CA
:10070000C0EBC00202EB0010584A02EBC000406D83
:10071000574A106051480068C0EBC00202EB00105D
:10072000524A02EBC000001D4B4A90624B480068E1
:10073000C0EBC00202EB00104C4A02EBC0002C30B0
:10074000454AD0629EE74A48006828BB4348006893
:10075000C0EBC00202EB0010444A02EBC000903034
:100760003D4A50633D480068C0EBC00202EB0010F8
:100770003E4A52F8300018B10620374A10600AE0AD
:1007800036480068401C354A10600120344A106029
:1007900064202F4A106075E735480068401E344ACF
:1007A00010602E480068C0EBC00202EB00102F4A18
:1007B00002EBC000806D016828480068C0EBC002F1
:1007C00002EB0010294A02EBC000C06D0140234833
:1007D0000068C0EBC00202EB001000E030E0234AEA
:1007E00002EBC000006E88422AD11C480068C0EBB2
:1007F000C00202EB00101D4A02EBC0006430164A32
:10080000106316480068C0EBC00202EB0010174AE4
:1008100002EBC000D0F88C00124A12681044114A52
:100820001060104600680C4A50610C480068401C7B
:100830000A4A106001200A4A10606420044A1060CD
:1008400000BF1FE700000020005003401000002000
:10085000240000201800002038000020280000207C
:100860001C000020040000200C0C0000D40C000030
:1008700020000020002142F21072904209D32A2267
:100880001F4B1A702E225A702A229A70DA701A712F
:100890002BE04FF47A72B0FBF2F101F13002184B09
:1008A0001A702E225A704FF47A72B0FBF2F302FBE8
:1008B00013006422B0FBF2F101F13002104B9A7088
:1008C0006422B0FBF2F302FB13000A22B0FBF2F148
:1008D00001F130020A4BDA700A22B0FBF2F302FB9C
:1008E000130000F13002064B1A712022044B5A719A
:1008F00063229A716D22DA7100221A727047000029
:100900002C000020002142F21072904206D32A22CD
:100910003E4B1A705A709A70DA7070E00A2808D24A
:1009200020223A4B1A705A709A7000F13002DA7035
:1009300065E0642813D22022344B1A705A700A22C0
:10094000B0FBF2F101F130029A700A22B0FBF2F32F
:1009500002FB130000F130022C4BDA704FE0B0F5CF
:100960007A7F1ED22022294B1A706422B0FBF2F14A
:1009700001F130025A706422B0FBF2F302FB130063
:100980000A22B0FBF2F101F13002204B9A700A22E8
:10099000B0FBF2F302FB130000F130021B4BDA70E4
:1009A0002DE042F21072904229D24FF47A72B0FBDD
:1009B000F2F101F13002154B1A704FF47A72B0FB6C
:1009C000F2F302FB13006422B0FBF2F101F13002FA
:1009D0000E4B5A706422B0FBF2F302FB13000A22A2
:1009E000B0FBF2F101F13002084B9A700A22B0FB21
:1009F000F2F302FB130000F13002044BDA70202204
:100A0000024B1A7100225A71704700002C0000201E
:100A100000BF0448806910F0100FFAD10148006847
:100A2000C0B2704700C0004010B500230024FFF79B
:100A3000EFFF42B21AE0302A0BDB392A09DCA2F1BF
:100A400030000A2103FB0103641CD0B200F05EF801
:100A500009E0082A07D134B10A20B3FBF0F3641E81
:100A6000D0B200F053F8FFF7D3FF42B20D2AE2D123
:100A7000184610BD1F48006840F001001E49C1F82B
:100A800004010846D0F8080140F00100C1F808014F
:100A90001A48006B20F00100184908634FF02B0042
:100AA00048624FF01A0088624FF07000C862084632
:100AB000006B40F0010008631148006840F003003B
:100AC0000F4908600F48006840F003000D490860B6
:100AD0000D48006820F0FF0000F111000A4908608D
:100AE000A1F10400006820F00300A1F104010860F6
:100AF0007047000004E10F4000E00F4000C00040DC
:100B0000204400401C4500402C45004000BF0449E3
:100B1000896911F0200FFAD101490860704700007F
:100B200000C0004010B504462046FFF7A3FE02486F
:100B300000F004F810BD00002C00002000B50246B3
:100B4000002304E0D05CFFF7E1FF581CC3B2D05C87
:100B50000028F7D100BD000010B504462046FFF77D
:100B6000D1FE0248FFF7EAFF10BD00002C00002074
:100B7000FFF7ECFCFFF77EFFFFF7D4FB0BA0FFF7BE
:100B8000DDFF11E00DA0FFF7D9FFFFF74DFF044691
:100B90000DA0FFF7D3FF2046FFF7DEFF0FA0FFF702
:100BA000CDFF2046FFF7BEFFECE7000052756E6EEA
:100BB000696E67204C616220313100000A0D496E78
:100BC0007075743A0000000020554152545F4F7513
:100BD0007455446563203D20000000002C20205502
:100BE0004152545F4F757444697374616E6365203C
:100BF0007E200000004000400050004000600040A7
:100C00000070004000400240005002402000000000
:100C100000000000000000000000000000000000D4
:100C200000000000000000000000000000000000C4
:100C300000000000544578615320697320696E6993
:100C40007469616C697A656420666F72204C6162B8
:100C500020313100000000000000000055736520C5
:100C60005445786153646973706C617920666F7262
:100C70002067726164696E67204C616220313100C7
:100C800000000000446F6E652067726164696E67E2
:100C90000000000000000000000000000000000054
:100CA000000000000000000000000000303132337E
:100CB00034353637383930313233343536373839E0
:100CC00030313233343536373839303132333435E8
:100CD00036373800010000004772616465204C61BE
:100CE00062203131207769746820544578615364FB
:100CF0006973706C61790000000000000000000062
:100D0000436865636B696E67205541525420636C7C
:100D10006F636B0000000000000000000000000096
:100D200000000000000000001400000004E10F407B
:100D30000100000001000000436C6F636B206973C9
:100D4000206F6E00000000000000000000000000A6
:100D50000000000000000000000000000000000093
:100D60000000000041626F72743A205541525430C5
:100D700020636C6F636B206973206F6666000000F0
:100D80000000000000000000000000000100000062
:100D90004772616465204C6162203131207769744B
:100DA00068205445786153646973706C6179000000
:100DB0000000000000000000436865636B696E6717
:100DC000205541525420636C6F636B00000000009B
:100DD0000000000000000000000000000000000013
:100DE0001400000008E10F400100000001000000B5
:100DF000436C6F636B206973206F6E00000000000E
:100E000000000000000000000000000000000000E2
:100E100000000000000000000000000041626F724E
:100E2000743A20506F7274204120636C6F636B20A2
:100E30006973206F6666000000000000000000007B
:100E400000000000010A05070F0C08020200000064
:100E50000600000003000000000000000100000088
:100E6000070000000400000005000000030000006F
:100E70000400000000000000020000000600000066
:100E8000070000000100000005000000AC0E00009B
:100E9000000000202C000000C0020000D80E00005E
:100EA0002C000020E4060000DC0200008038010075
:100EB0000000000000000000000000000000000032
:100EC0000000000000000000000000000000000022
:080ED00000000000000000001A
:040000050000026D88
:00000001FF
